{
  "contractName": "AddressManagement",
  "abi": [
    {
      "inputs": [
        {
          "internalType": "address",
          "name": "admin_",
          "type": "address"
        }
      ],
      "stateMutability": "nonpayable",
      "type": "constructor"
    },
    {
      "anonymous": false,
      "inputs": [
        {
          "indexed": false,
          "internalType": "address",
          "name": "previousAdmin",
          "type": "address"
        },
        {
          "indexed": false,
          "internalType": "address",
          "name": "newAdmin",
          "type": "address"
        }
      ],
      "name": "AddressManagementAdminChanged",
      "type": "event"
    },
    {
      "inputs": [],
      "name": "addressManagementAdmin",
      "outputs": [
        {
          "internalType": "address",
          "name": "admin_",
          "type": "address"
        }
      ],
      "stateMutability": "view",
      "type": "function",
      "constant": true
    },
    {
      "inputs": [
        {
          "internalType": "address",
          "name": "newAdmin",
          "type": "address"
        }
      ],
      "name": "changeAddressManagementAdmin",
      "outputs": [],
      "stateMutability": "nonpayable",
      "type": "function"
    },
    {
      "inputs": [
        {
          "internalType": "string",
          "name": "contractName",
          "type": "string"
        },
        {
          "internalType": "address",
          "name": "contractAddress",
          "type": "address"
        }
      ],
      "name": "updateContractAddress",
      "outputs": [],
      "stateMutability": "nonpayable",
      "type": "function"
    },
    {
      "inputs": [
        {
          "internalType": "string",
          "name": "contractName",
          "type": "string"
        }
      ],
      "name": "getContractAddressByAdmin",
      "outputs": [
        {
          "internalType": "address",
          "name": "contractAddress",
          "type": "address"
        }
      ],
      "stateMutability": "view",
      "type": "function",
      "constant": true
    },
    {
      "inputs": [
        {
          "internalType": "address",
          "name": "contractAddress",
          "type": "address"
        }
      ],
      "name": "getContractNameByAdmin",
      "outputs": [
        {
          "internalType": "string",
          "name": "contractName",
          "type": "string"
        }
      ],
      "stateMutability": "view",
      "type": "function",
      "constant": true
    },
    {
      "inputs": [
        {
          "internalType": "string",
          "name": "contractName",
          "type": "string"
        }
      ],
      "name": "getContractAddress",
      "outputs": [
        {
          "internalType": "address",
          "name": "contractAddress",
          "type": "address"
        }
      ],
      "stateMutability": "view",
      "type": "function",
      "constant": true
    }
  ],
  "bytecode": "0x608060405234801561001057600080fd5b5060405161087038038061087083398101604081905261002f9161006b565b61004181640100000000610047810204565b50610099565b7faf3ccdab63767d83181d2ac8c40c256cce5f7d52dd79fa93eadafa27d81b942e55565b60006020828403121561007c578081fd5b8151600160a060020a0381168114610092578182fd5b9392505050565b6107c8806100a86000396000f3fe608060405234801561001057600080fd5b506004361061007e577c0100000000000000000000000000000000000000000000000000000000600035046304433bbc811461008357806338aed2f7146100b3578063990b1649146100c8578063a7cc787a146100d0578063be921c9d146100f0578063f92eecc114610103575b600080fd5b6100966100913660046105e9565b610116565b604051600160a060020a0390911681526020015b60405180910390f35b6100c66100c1366004610624565b610168565b005b6100966101fd565b6100e36100de3660046105c8565b610242565b6040516100aa919061068c565b6100966100fe3660046105e9565b61031b565b6100c66101113660046105c8565b61035c565b3360009081526001602052604081208054610130906106ef565b15905061007e576000826040516101479190610670565b90815260405190819003602001902054600160a060020a031690505b919050565b60008051602061077383398151915254600160a060020a031633600160a060020a0316141561007e57806000836040516101a29190610670565b9081526040805160209281900383019020805473ffffffffffffffffffffffffffffffffffffffff1916600160a060020a039485161790559183166000908152600182529190912083516101f892850190610491565b505050565b60006102156000805160206107738339815191525490565b600160a060020a031633600160a060020a0316141561007e57506000805160206107738339815191525490565b606061025a6000805160206107738339815191525490565b600160a060020a031633600160a060020a0316141561007e57600160a060020a03821660009081526001602052604090208054610296906106ef565b80601f01602080910402602001604051908101604052809291908181526020018280546102c2906106ef565b801561030f5780601f106102e45761010080835404028352916020019161030f565b820191906000526020600020905b8154815290600101906020018083116102f257829003601f168201915b50505050509050610163565b60006103336000805160206107738339815191525490565b600160a060020a031633600160a060020a0316141561007e576000826040516101479190610670565b60008051602061077383398151915254600160a060020a031633600160a060020a0316141561007e57600160a060020a03811661041f576040517f08c379a000000000000000000000000000000000000000000000000000000000815260206004820152603260248201527f5472616e73706172656e7455706772616461626c6550726f78793a206e65772060448201527f61646d696e206973206164647265737320300000000000000000000000000000606482015260840160405180910390fd5b7f1fcd9f8f9240447000d2e6d16dc98e443b2ff6561f5fc7c704e3f765f0ae37e86104566000805160206107738339815191525490565b60408051600160a060020a03928316815291841660208301520160405180910390a161048e8160008051602061077383398151915255565b50565b82805461049d906106ef565b90600052602060002090601f0160209004810192826104bf5760008555610505565b82601f106104d857805160ff1916838001178555610505565b82800160010185558215610505579182015b828111156105055782518255916020019190600101906104ea565b50610511929150610515565b5090565b5b808211156105115760008155600101610516565b8035600160a060020a038116811461016357600080fd5b600082601f830112610551578081fd5b813567ffffffffffffffff8082111561056c5761056c610743565b604051601f8301601f19908116603f0116810190828211818310171561059457610594610743565b816040528381528660208588010111156105ac578485fd5b8360208701602083013792830160200193909352509392505050565b6000602082840312156105d9578081fd5b6105e28261052a565b9392505050565b6000602082840312156105fa578081fd5b813567ffffffffffffffff811115610610578182fd5b61061c84828501610541565b949350505050565b60008060408385031215610636578081fd5b823567ffffffffffffffff81111561064c578182fd5b61065885828601610541565b9250506106676020840161052a565b90509250929050565b600082516106828184602087016106bf565b9190910192915050565b60006020825282518060208401526106ab8160408501602087016106bf565b601f01601f19169190910160400192915050565b60005b838110156106da5781810151838201526020016106c2565b838111156106e9576000848401525b50505050565b60028104600182168061070357607f821691505b6020821081141561073d577f4e487b7100000000000000000000000000000000000000000000000000000000600052602260045260246000fd5b50919050565b7f4e487b7100000000000000000000000000000000000000000000000000000000600052604160045260246000fdfeaf3ccdab63767d83181d2ac8c40c256cce5f7d52dd79fa93eadafa27d81b942ea2646970667358221220e4cc075ad91fb3d694a8885f2c1e2eb633905c67ace9eb03329b74254a2ace0164736f6c63430008030033",
  "immutableReferences": {},
  "source": "// SPDX-License-Identifier: GPL-3.0\n\npragma solidity ^0.8.0;\n\ncontract AddressManagement {\n    \n    bytes32 constant ADMIN_SLOT = keccak256(\"leave.me.alone.slot\");\n\n    mapping (string => address) name2AddressMap;\n    mapping (address => string) address2NameMap;\n    \n    event AddressManagementAdminChanged(address previousAdmin, address newAdmin);\n    \n    constructor(address admin_) {\n        _setAddressManagementAdmin(admin_);\n    }\n\n    modifier isAdmin() {\n        if (msg.sender == _addressManagementAdmin()) {\n            _;\n        } else {\n            revert();\n        }\n    }\n\n    modifier isOfficialContract() {\n        if(bytes(address2NameMap[msg.sender]).length != 0) {\n            _;\n        } else {\n            revert();\n        }\n    }\n    \n    function addressManagementAdmin() external view isAdmin virtual returns (address admin_) {\n        admin_ = _addressManagementAdmin();\n    }\n    \n    \n    function changeAddressManagementAdmin(address newAdmin) external virtual isAdmin {\n        require(newAdmin != address(0), \"TransparentUpgradableProxy: new admin is address 0\");\n        emit AddressManagementAdminChanged(_addressManagementAdmin(), newAdmin);\n        _setAddressManagementAdmin(newAdmin);\n    }\n    \n    function _setAddressManagementAdmin(address newAdmin) private {\n        bytes32 slot = ADMIN_SLOT;\n        \n        assembly {\n            sstore(slot, newAdmin)\n        }\n    }\n    \n    function _addressManagementAdmin() internal view virtual returns(address admin_) {\n        bytes32 slot = ADMIN_SLOT;\n        \n        assembly {\n            admin_ := sload(slot)\n        }\n    }\n\n    function updateContractAddress(string memory contractName, address contractAddress) external isAdmin {\n        name2AddressMap[contractName] = contractAddress;\n        address2NameMap[contractAddress] = contractName;\n    }\n\n    function getContractAddressByAdmin(string memory contractName) external view isAdmin returns (address contractAddress) {\n        return name2AddressMap[contractName];\n    }\n\n    function getContractNameByAdmin(address contractAddress) external view isAdmin returns (string memory contractName) {\n        return address2NameMap[contractAddress];\n    }\n\n    function getContractAddress(string memory contractName) public view isOfficialContract returns (address contractAddress) {\n        return name2AddressMap[contractName];\n    }\n    \n}",
  "sourcePath": "/Users/AlsieSam/Desktop/DEX/truffle/contracts/AddressManagement.sol",
  "compiler": {
    "name": "solc",
    "version": "0.8.3+commit.8d00100c.Emscripten.clang"
  },
  "schemaVersion": "3.4.3",
  "updatedAt": "2022-03-22T10:58:29.768Z",
  "networkType": "ethereum",
  "devdoc": {
    "kind": "dev",
    "methods": {},
    "version": 1
  },
  "userdoc": {
    "kind": "user",
    "methods": {},
    "version": 1
  }
}