{
  "contractName": "CollateralizedLoanProxy",
  "abi": [
    {
      "inputs": [
        {
          "internalType": "address",
          "name": "_logic",
          "type": "address"
        },
        {
          "internalType": "address",
          "name": "admin_",
          "type": "address"
        },
        {
          "internalType": "bytes",
          "name": "_data",
          "type": "bytes"
        }
      ],
      "stateMutability": "nonpayable",
      "type": "constructor"
    },
    {
      "anonymous": false,
      "inputs": [
        {
          "indexed": false,
          "internalType": "address",
          "name": "previousAdmin",
          "type": "address"
        },
        {
          "indexed": false,
          "internalType": "address",
          "name": "newAdmin",
          "type": "address"
        }
      ],
      "name": "AddressManagementAdminChanged",
      "type": "event"
    },
    {
      "anonymous": false,
      "inputs": [
        {
          "indexed": false,
          "internalType": "address",
          "name": "previousAdmin",
          "type": "address"
        },
        {
          "indexed": false,
          "internalType": "address",
          "name": "newAdmin",
          "type": "address"
        }
      ],
      "name": "AdminChanged",
      "type": "event"
    },
    {
      "anonymous": false,
      "inputs": [
        {
          "indexed": true,
          "internalType": "address",
          "name": "beacon",
          "type": "address"
        }
      ],
      "name": "BeaconUpgraded",
      "type": "event"
    },
    {
      "anonymous": false,
      "inputs": [
        {
          "indexed": true,
          "internalType": "address",
          "name": "implementation",
          "type": "address"
        }
      ],
      "name": "Upgraded",
      "type": "event"
    },
    {
      "stateMutability": "payable",
      "type": "fallback",
      "payable": true
    },
    {
      "inputs": [],
      "name": "addressManagementAdmin",
      "outputs": [
        {
          "internalType": "address",
          "name": "admin_",
          "type": "address"
        }
      ],
      "stateMutability": "view",
      "type": "function",
      "constant": true
    },
    {
      "inputs": [],
      "name": "admin",
      "outputs": [
        {
          "internalType": "address",
          "name": "admin_",
          "type": "address"
        }
      ],
      "stateMutability": "nonpayable",
      "type": "function"
    },
    {
      "inputs": [
        {
          "internalType": "address",
          "name": "newAdmin",
          "type": "address"
        }
      ],
      "name": "changeAddressManagementAdmin",
      "outputs": [],
      "stateMutability": "nonpayable",
      "type": "function"
    },
    {
      "inputs": [
        {
          "internalType": "address",
          "name": "newAdmin",
          "type": "address"
        }
      ],
      "name": "changeAdmin",
      "outputs": [],
      "stateMutability": "nonpayable",
      "type": "function"
    },
    {
      "inputs": [
        {
          "internalType": "string",
          "name": "contractName",
          "type": "string"
        }
      ],
      "name": "getContractAddress",
      "outputs": [
        {
          "internalType": "address",
          "name": "contractAddress",
          "type": "address"
        }
      ],
      "stateMutability": "view",
      "type": "function",
      "constant": true
    },
    {
      "inputs": [
        {
          "internalType": "string",
          "name": "contractName",
          "type": "string"
        }
      ],
      "name": "getContractAddressByAdmin",
      "outputs": [
        {
          "internalType": "address",
          "name": "contractAddress",
          "type": "address"
        }
      ],
      "stateMutability": "view",
      "type": "function",
      "constant": true
    },
    {
      "inputs": [
        {
          "internalType": "address",
          "name": "contractAddress",
          "type": "address"
        }
      ],
      "name": "getContractNameByAdmin",
      "outputs": [
        {
          "internalType": "string",
          "name": "contractName",
          "type": "string"
        }
      ],
      "stateMutability": "view",
      "type": "function",
      "constant": true
    },
    {
      "inputs": [],
      "name": "implementation",
      "outputs": [
        {
          "internalType": "address",
          "name": "implementation_",
          "type": "address"
        }
      ],
      "stateMutability": "nonpayable",
      "type": "function"
    },
    {
      "inputs": [
        {
          "internalType": "string",
          "name": "contractName",
          "type": "string"
        },
        {
          "internalType": "address",
          "name": "contractAddress",
          "type": "address"
        }
      ],
      "name": "updateContractAddress",
      "outputs": [],
      "stateMutability": "nonpayable",
      "type": "function"
    },
    {
      "inputs": [
        {
          "internalType": "address",
          "name": "newImplementation",
          "type": "address"
        }
      ],
      "name": "upgradeTo",
      "outputs": [],
      "stateMutability": "nonpayable",
      "type": "function"
    },
    {
      "inputs": [
        {
          "internalType": "address",
          "name": "newImplementation",
          "type": "address"
        },
        {
          "internalType": "bytes",
          "name": "data",
          "type": "bytes"
        }
      ],
      "name": "upgradeToAndCall",
      "outputs": [],
      "stateMutability": "payable",
      "type": "function",
      "payable": true
    },
    {
      "stateMutability": "payable",
      "type": "receive",
      "payable": true
    }
  ],
  "bytecode": "0x60806040523480156200001157600080fd5b506040516200191d3803806200191d833981016040819052620000349162000673565b8183818382816200006760017f360894a13ba1a3210667c828492db98dca3e2076cc3735a920a3ca505d382bbd620007a2565b600080516020620018d683398151915214620000ac577f4e487b7100000000000000000000000000000000000000000000000000000000600052600160045260246000fd5b620000c38282600064010000000062000173810204565b50620000f3905060017fb53127684a568b3173ae13b9f8a6016e243e63b6e8ee1178d6a717850b5d6104620007a2565b600080516020620018b68339815191521462000138577f4e487b7100000000000000000000000000000000000000000000000000000000600052600160045260246000fd5b6200014c82640100000000620001bc810204565b505050620001698162000229640100000000026401000000009004565b505050506200083d565b62000187836401000000006200024d810204565b600082511180620001955750805b15620001b757620001b58383640100000000620007056200029882021704565b505b505050565b7f7e644d79422f17c01e4894b5f4f588d331ebfa28653d42ae832dc59e38c9798f620001f0640100000000620002d0810204565b60408051600160a060020a03928316815291841660208301520160405180910390a1620002268164010000000062000309810204565b50565b7faf3ccdab63767d83181d2ac8c40c256cce5f7d52dd79fa93eadafa27d81b942e55565b6200026181640100000000620003ef810204565b604051600160a060020a038216907fbc7cd75a20ee27fd9adebab32041f755214dbc6bffa90cc0225b39da2e5c2d3b90600090a250565b6060620002c98383604051806060016040528060278152602001620018f660279139640100000000620004bf810204565b9392505050565b6000620002fa600080516020620018b683398151915264010000000062000431620005ed82021704565b54600160a060020a0316905090565b600160a060020a038116620003a5576040517f08c379a000000000000000000000000000000000000000000000000000000000815260206004820152602660248201527f455243313936373a206e65772061646d696e20697320746865207a65726f206160448201527f646472657373000000000000000000000000000000000000000000000000000060648201526084015b60405180910390fd5b80620003ce600080516020620018b683398151915264010000000062000431620005ed82021704565b8054600160a060020a031916600160a060020a039290921691909117905550565b620004088164010000000062000731620005f082021704565b62000496576040517f08c379a000000000000000000000000000000000000000000000000000000000815260206004820152602d60248201527f455243313936373a206e657720696d706c656d656e746174696f6e206973206e60448201527f6f74206120636f6e74726163740000000000000000000000000000000000000060648201526084016200039c565b80620003ce600080516020620018d683398151915264010000000062000431620005ed82021704565b6060620004d584640100000000620005f0810204565b62000563576040517f08c379a000000000000000000000000000000000000000000000000000000000815260206004820152602660248201527f416464726573733a2064656c65676174652063616c6c20746f206e6f6e2d636f60448201527f6e7472616374000000000000000000000000000000000000000000000000000060648201526084016200039c565b60008085600160a060020a0316856040516200058091906200074f565b600060405180830381855af49150503d8060008114620005bd576040519150601f19603f3d011682016040523d82523d6000602084013e620005c2565b606091505b5091509150620005e382828662000603640100000000026401000000009004565b9695505050505050565b90565b600160a060020a0381163b15155b919050565b6060831562000614575081620002c9565b825115620006255782518084602001fd5b816040517f08c379a00000000000000000000000000000000000000000000000000000000081526004016200039c91906200076d565b8051600160a060020a0381168114620005fe57600080fd5b60008060006060848603121562000688578283fd5b62000693846200065b565b9250620006a3602085016200065b565b9150604084015167ffffffffffffffff80821115620006c0578283fd5b818601915086601f830112620006d4578283fd5b815181811115620006e957620006e96200080e565b604051601f8201601f19908116603f011681019083821181831017156200071457620007146200080e565b816040528281528960208487010111156200072d578586fd5b62000740836020830160208801620007df565b80955050505050509250925092565b6000825162000763818460208701620007df565b9190910192915050565b60006020825282518060208401526200078e816040850160208701620007df565b601f01601f19169190910160400192915050565b600082821015620007da577f4e487b710000000000000000000000000000000000000000000000000000000081526011600452602481fd5b500390565b60005b83811015620007fc578181015183820152602001620007e2565b83811115620001b55750506000910152565b7f4e487b7100000000000000000000000000000000000000000000000000000000600052604160045260246000fd5b611069806200084d6000396000f3fe6080604052600436106100bd576000357c0100000000000000000000000000000000000000000000000000000000900480638f283970116100815780638f28397014610179578063990b164914610199578063a7cc787a146101ae578063be921c9d146101db578063f851a440146101fb578063f92eecc114610210576100cc565b806304433bbc146100d45780633659cfe61461011157806338aed2f7146101315780634f1ef286146101515780635c60da1b14610164576100cc565b366100cc576100ca610230565b005b6100ca610230565b3480156100e057600080fd5b506100f46100ef366004610e67565b61024a565b604051600160a060020a0390911681526020015b60405180910390f35b34801561011d57600080fd5b506100ca61012c366004610dcf565b6102a5565b34801561013d57600080fd5b506100ca61014c366004610ea2565b6102f1565b6100ca61015f366004610de9565b610386565b34801561017057600080fd5b506100f46103f7565b34801561018557600080fd5b506100ca610194366004610dcf565b610434565b3480156101a557600080fd5b506100f461045e565b3480156101ba57600080fd5b506101ce6101c9366004610dcf565b6104a4565b6040516101089190610f0a565b3480156101e757600080fd5b506100f46101f6366004610e67565b61057d565b34801561020757600080fd5b506100f46105be565b34801561021c57600080fd5b506100ca61022b366004610dcf565b6105e9565b610238610740565b6102486102436107da565b6107e9565b565b336000908152600160205260408120805461026490610f69565b15905061029b5760008260405161027b9190610eee565b90815260405190819003602001902054600160a060020a031690506102a0565b600080fd5b919050565b6102ad61080d565b600160a060020a031633600160a060020a031614156102e6576102e181604051806020016040528060008152506000610840565b6102ee565b6102ee610230565b50565b600080516020610fed83398151915254600160a060020a031633600160a060020a0316141561029b578060008360405161032b9190610eee565b9081526040805160209281900383019020805473ffffffffffffffffffffffffffffffffffffffff1916600160a060020a0394851617905591831660009081526001825291909120835161038192850190610c98565b505050565b61038e61080d565b600160a060020a031633600160a060020a031614156103ef576103ea8383838080601f01602080910402602001604051908101604052809392919081815260200183838082843760009201919091525060019250610840915050565b610381565b610381610230565b600061040161080d565b600160a060020a031633600160a060020a03161415610429576104226107da565b9050610431565b610431610230565b90565b61043c61080d565b600160a060020a031633600160a060020a031614156102e6576102e18161086b565b6000610476600080516020610fed8339815191525490565b600160a060020a031633600160a060020a0316141561029b57600080516020610fed83398151915254610422565b60606104bc600080516020610fed8339815191525490565b600160a060020a031633600160a060020a0316141561029b57600160a060020a038216600090815260016020526040902080546104f890610f69565b80601f016020809104026020016040519081016040528092919081815260200182805461052490610f69565b80156105715780601f1061054657610100808354040283529160200191610571565b820191906000526020600020905b81548152906001019060200180831161055457829003601f168201915b505050505090506102a0565b6000610595600080516020610fed8339815191525490565b600160a060020a031633600160a060020a0316141561029b5760008260405161027b9190610eee565b60006105c861080d565b600160a060020a031633600160a060020a031614156104295761042261080d565b600080516020610fed83398151915254600160a060020a031633600160a060020a0316141561029b57600160a060020a0381166106965760405160e560020a62461bcd02815260206004820152603260248201527f5472616e73706172656e7455706772616461626c6550726f78793a206e65772060448201527f61646d696e20697320616464726573732030000000000000000000000000000060648201526084015b60405180910390fd5b7f1fcd9f8f9240447000d2e6d16dc98e443b2ff6561f5fc7c704e3f765f0ae37e86106cd600080516020610fed8339815191525490565b60408051600160a060020a03928316815291841660208301520160405180910390a16102e181600080516020610fed83398151915255565b606061072a838360405180606001604052806027815260200161100d602791396108bf565b9392505050565b600160a060020a03163b151590565b6107486109b6565b600160a060020a031633600160a060020a031614156107d25760405160e560020a62461bcd02815260206004820152603860248201527f5472616e73616374696f6e7350726f78793a2041646d696e2063616e6e6f742060448201527f66616c6c6261636b20746f2070726f7879207461726765740000000000000000606482015260840161068d565b6102486109c0565b60006107e4610a7d565b905090565b3660008037600080366000845af43d6000803e808015610808573d6000f35b3d6000fd5b60007fb53127684a568b3173ae13b9f8a6016e243e63b6e8ee1178d6a717850b5d61035b54600160a060020a0316905090565b61084983610aa5565b6000825111806108565750805b15610381576108658383610705565b50505050565b7f7e644d79422f17c01e4894b5f4f588d331ebfa28653d42ae832dc59e38c9798f61089461080d565b60408051600160a060020a03928316815291841660208301520160405180910390a16102ee81610ae5565b6060600160a060020a0384163b6109415760405160e560020a62461bcd02815260206004820152602660248201527f416464726573733a2064656c65676174652063616c6c20746f206e6f6e2d636f60448201527f6e74726163740000000000000000000000000000000000000000000000000000606482015260840161068d565b60008085600160a060020a03168560405161095c9190610eee565b600060405180830381855af49150503d8060008114610997576040519150601f19603f3d011682016040523d82523d6000602084013e61099c565b606091505b50915091506109ac828286610bb5565b9695505050505050565b60006107e461080d565b6109c861080d565b600160a060020a031633600160a060020a03161415610a785760405160e560020a62461bcd02815260206004820152604260248201527f5472616e73706172656e745570677261646561626c6550726f78793a2061646d60448201527f696e2063616e6e6f742066616c6c6261636b20746f2070726f7879207461726760648201527f6574000000000000000000000000000000000000000000000000000000000000608482015260a40161068d565b610248565b60007f360894a13ba1a3210667c828492db98dca3e2076cc3735a920a3ca505d382bbc610831565b610aae81610bf1565b604051600160a060020a038216907fbc7cd75a20ee27fd9adebab32041f755214dbc6bffa90cc0225b39da2e5c2d3b90600090a250565b600160a060020a038116610b645760405160e560020a62461bcd02815260206004820152602660248201527f455243313936373a206e65772061646d696e20697320746865207a65726f206160448201527f6464726573730000000000000000000000000000000000000000000000000000606482015260840161068d565b807fb53127684a568b3173ae13b9f8a6016e243e63b6e8ee1178d6a717850b5d61035b805473ffffffffffffffffffffffffffffffffffffffff1916600160a060020a039290921691909117905550565b60608315610bc457508161072a565b825115610bd45782518084602001fd5b8160405160e560020a62461bcd02815260040161068d9190610f0a565b600160a060020a0381163b610c715760405160e560020a62461bcd02815260206004820152602d60248201527f455243313936373a206e657720696d706c656d656e746174696f6e206973206e60448201527f6f74206120636f6e747261637400000000000000000000000000000000000000606482015260840161068d565b807f360894a13ba1a3210667c828492db98dca3e2076cc3735a920a3ca505d382bbc610b87565b828054610ca490610f69565b90600052602060002090601f016020900481019282610cc65760008555610d0c565b82601f10610cdf57805160ff1916838001178555610d0c565b82800160010185558215610d0c579182015b82811115610d0c578251825591602001919060010190610cf1565b50610d18929150610d1c565b5090565b5b80821115610d185760008155600101610d1d565b8035600160a060020a03811681146102a057600080fd5b600082601f830112610d58578081fd5b813567ffffffffffffffff80821115610d7357610d73610fbd565b604051601f8301601f19908116603f01168101908282118183101715610d9b57610d9b610fbd565b81604052838152866020858801011115610db3578485fd5b8360208701602083013792830160200193909352509392505050565b600060208284031215610de0578081fd5b61072a82610d31565b600080600060408486031215610dfd578182fd5b610e0684610d31565b9250602084013567ffffffffffffffff80821115610e22578384fd5b818601915086601f830112610e35578384fd5b813581811115610e43578485fd5b876020828501011115610e54578485fd5b6020830194508093505050509250925092565b600060208284031215610e78578081fd5b813567ffffffffffffffff811115610e8e578182fd5b610e9a84828501610d48565b949350505050565b60008060408385031215610eb4578182fd5b823567ffffffffffffffff811115610eca578283fd5b610ed685828601610d48565b925050610ee560208401610d31565b90509250929050565b60008251610f00818460208701610f3d565b9190910192915050565b6000602082528251806020840152610f29816040850160208701610f3d565b601f01601f19169190910160400192915050565b60005b83811015610f58578181015183820152602001610f40565b838111156108655750506000910152565b600281046001821680610f7d57607f821691505b60208210811415610fb7577f4e487b7100000000000000000000000000000000000000000000000000000000600052602260045260246000fd5b50919050565b7f4e487b7100000000000000000000000000000000000000000000000000000000600052604160045260246000fdfeaf3ccdab63767d83181d2ac8c40c256cce5f7d52dd79fa93eadafa27d81b942e416464726573733a206c6f772d6c6576656c2064656c65676174652063616c6c206661696c6564a2646970667358221220cda4c11f087a4f6c89ba8e7abd7e2ab10a4f7d3ee7565377cbccc60a176d4c5064736f6c63430008030033b53127684a568b3173ae13b9f8a6016e243e63b6e8ee1178d6a717850b5d6103360894a13ba1a3210667c828492db98dca3e2076cc3735a920a3ca505d382bbc416464726573733a206c6f772d6c6576656c2064656c65676174652063616c6c206661696c6564",
  "immutableReferences": {},
  "source": "// SPDX-License-Identifier: GPL-3.0\n\npragma solidity ^0.8.0;\n\nimport \"@openzeppelin/contracts/proxy/transparent/TransparentUpgradeableProxy.sol\";\nimport \"./AddressManagement.sol\";\n\ncontract CollateralizedLoanProxy is TransparentUpgradeableProxy, AddressManagement {\n    constructor(address _logic, address admin_, bytes memory _data) TransparentUpgradeableProxy(_logic, admin_, _data) AddressManagement(admin_) { }\n    \n    function _beforeFallback() internal virtual override {\n        require(msg.sender != _admin(), \"TransactionsProxy: Admin cannot fallback to proxy target\");\n        super._beforeFallback();\n    }\n}",
  "sourcePath": "/Users/AlsieSam/Desktop/DEX/truffle/contracts/CollateralizedLoanProxy.sol",
  "compiler": {
    "name": "solc",
    "version": "0.8.3+commit.8d00100c.Emscripten.clang"
  },
  "schemaVersion": "3.4.3",
  "updatedAt": "2022-03-22T10:58:29.804Z",
  "networkType": "ethereum",
  "devdoc": {
    "kind": "dev",
    "methods": {
      "admin()": {
        "details": "Returns the current admin. NOTE: Only the admin can call this function. See {ProxyAdmin-getProxyAdmin}. TIP: To get this value clients can read directly from the storage slot shown below (specified by EIP1967) using the https://eth.wiki/json-rpc/API#eth_getstorageat[`eth_getStorageAt`] RPC call. `0xb53127684a568b3173ae13b9f8a6016e243e63b6e8ee1178d6a717850b5d6103`"
      },
      "changeAdmin(address)": {
        "details": "Changes the admin of the proxy. Emits an {AdminChanged} event. NOTE: Only the admin can call this function. See {ProxyAdmin-changeProxyAdmin}."
      },
      "implementation()": {
        "details": "Returns the current implementation. NOTE: Only the admin can call this function. See {ProxyAdmin-getProxyImplementation}. TIP: To get this value clients can read directly from the storage slot shown below (specified by EIP1967) using the https://eth.wiki/json-rpc/API#eth_getstorageat[`eth_getStorageAt`] RPC call. `0x360894a13ba1a3210667c828492db98dca3e2076cc3735a920a3ca505d382bbc`"
      },
      "upgradeTo(address)": {
        "details": "Upgrade the implementation of the proxy. NOTE: Only the admin can call this function. See {ProxyAdmin-upgrade}."
      },
      "upgradeToAndCall(address,bytes)": {
        "details": "Upgrade the implementation of the proxy, and then call a function from the new implementation as specified by `data`, which should be an encoded function call. This is useful to initialize new storage variables in the proxied contract. NOTE: Only the admin can call this function. See {ProxyAdmin-upgradeAndCall}."
      }
    },
    "version": 1
  },
  "userdoc": {
    "kind": "user",
    "methods": {},
    "version": 1
  }
}