{
  "contractName": "CollateralizedLoan",
  "abi": [
    {
      "inputs": [
        {
          "internalType": "address",
          "name": "admin_",
          "type": "address"
        }
      ],
      "stateMutability": "nonpayable",
      "type": "constructor"
    },
    {
      "anonymous": false,
      "inputs": [
        {
          "indexed": false,
          "internalType": "address",
          "name": "previousAdmin",
          "type": "address"
        },
        {
          "indexed": false,
          "internalType": "address",
          "name": "newAdmin",
          "type": "address"
        }
      ],
      "name": "AddressManagementAdminChanged",
      "type": "event"
    },
    {
      "anonymous": false,
      "inputs": [
        {
          "indexed": false,
          "internalType": "uint256",
          "name": "_loanId",
          "type": "uint256"
        },
        {
          "indexed": false,
          "internalType": "address",
          "name": "_lender",
          "type": "address"
        },
        {
          "indexed": false,
          "internalType": "uint256",
          "name": "_cancelTime",
          "type": "uint256"
        }
      ],
      "name": "LoanCancelled",
      "type": "event"
    },
    {
      "anonymous": false,
      "inputs": [
        {
          "indexed": false,
          "internalType": "uint256",
          "name": "_loanId",
          "type": "uint256"
        },
        {
          "indexed": false,
          "internalType": "address",
          "name": "_borrower",
          "type": "address"
        },
        {
          "indexed": false,
          "internalType": "uint256",
          "name": "_checkTime",
          "type": "uint256"
        }
      ],
      "name": "LoanDefaulted",
      "type": "event"
    },
    {
      "anonymous": false,
      "inputs": [
        {
          "indexed": false,
          "internalType": "uint256",
          "name": "_loanId",
          "type": "uint256"
        },
        {
          "indexed": false,
          "internalType": "address",
          "name": "_lender",
          "type": "address"
        },
        {
          "indexed": false,
          "internalType": "uint256",
          "name": "_nextRepaymentDeadline",
          "type": "uint256"
        },
        {
          "indexed": false,
          "internalType": "uint256",
          "name": "_disburseTime",
          "type": "uint256"
        }
      ],
      "name": "LoanDisbursed",
      "type": "event"
    },
    {
      "anonymous": false,
      "inputs": [
        {
          "indexed": false,
          "internalType": "uint256",
          "name": "_loanId",
          "type": "uint256"
        },
        {
          "indexed": false,
          "internalType": "address",
          "name": "_borrower",
          "type": "address"
        },
        {
          "indexed": false,
          "internalType": "uint256",
          "name": "_repaidTime",
          "type": "uint256"
        }
      ],
      "name": "LoanFullyRepaid",
      "type": "event"
    },
    {
      "anonymous": false,
      "inputs": [
        {
          "indexed": false,
          "internalType": "uint256",
          "name": "_loanId",
          "type": "uint256"
        },
        {
          "indexed": false,
          "internalType": "address",
          "name": "_lender",
          "type": "address"
        },
        {
          "indexed": false,
          "internalType": "uint256",
          "name": "_initiatedTime",
          "type": "uint256"
        }
      ],
      "name": "LoanInitiated",
      "type": "event"
    },
    {
      "anonymous": false,
      "inputs": [
        {
          "indexed": false,
          "internalType": "uint256",
          "name": "_loanId",
          "type": "uint256"
        },
        {
          "indexed": false,
          "internalType": "address",
          "name": "_borrower",
          "type": "address"
        },
        {
          "indexed": false,
          "internalType": "uint256",
          "name": "_repaidTime",
          "type": "uint256"
        }
      ],
      "name": "LoanRepaid",
      "type": "event"
    },
    {
      "anonymous": false,
      "inputs": [
        {
          "indexed": false,
          "internalType": "uint256",
          "name": "_loanId",
          "type": "uint256"
        },
        {
          "indexed": false,
          "internalType": "address",
          "name": "_requester",
          "type": "address"
        },
        {
          "indexed": false,
          "internalType": "uint256",
          "name": "_requestedTime",
          "type": "uint256"
        }
      ],
      "name": "LoanRequested",
      "type": "event"
    },
    {
      "inputs": [],
      "name": "addressManagementAdmin",
      "outputs": [
        {
          "internalType": "address",
          "name": "admin_",
          "type": "address"
        }
      ],
      "stateMutability": "view",
      "type": "function",
      "constant": true
    },
    {
      "inputs": [
        {
          "internalType": "address",
          "name": "newAdmin",
          "type": "address"
        }
      ],
      "name": "changeAddressManagementAdmin",
      "outputs": [],
      "stateMutability": "nonpayable",
      "type": "function"
    },
    {
      "inputs": [
        {
          "internalType": "string",
          "name": "contractName",
          "type": "string"
        }
      ],
      "name": "getContractAddress",
      "outputs": [
        {
          "internalType": "address",
          "name": "contractAddress",
          "type": "address"
        }
      ],
      "stateMutability": "view",
      "type": "function",
      "constant": true
    },
    {
      "inputs": [
        {
          "internalType": "string",
          "name": "contractName",
          "type": "string"
        }
      ],
      "name": "getContractAddressByAdmin",
      "outputs": [
        {
          "internalType": "address",
          "name": "contractAddress",
          "type": "address"
        }
      ],
      "stateMutability": "view",
      "type": "function",
      "constant": true
    },
    {
      "inputs": [
        {
          "internalType": "address",
          "name": "contractAddress",
          "type": "address"
        }
      ],
      "name": "getContractNameByAdmin",
      "outputs": [
        {
          "internalType": "string",
          "name": "contractName",
          "type": "string"
        }
      ],
      "stateMutability": "view",
      "type": "function",
      "constant": true
    },
    {
      "inputs": [
        {
          "internalType": "string",
          "name": "contractName",
          "type": "string"
        },
        {
          "internalType": "address",
          "name": "contractAddress",
          "type": "address"
        }
      ],
      "name": "updateContractAddress",
      "outputs": [],
      "stateMutability": "nonpayable",
      "type": "function"
    },
    {
      "inputs": [
        {
          "internalType": "address",
          "name": "_lender",
          "type": "address"
        },
        {
          "internalType": "uint32",
          "name": "_loanAmount",
          "type": "uint32"
        },
        {
          "internalType": "uint256",
          "name": "_collateralAmount",
          "type": "uint256"
        },
        {
          "internalType": "uint16",
          "name": "_loanTerm",
          "type": "uint16"
        },
        {
          "internalType": "uint16",
          "name": "_apr",
          "type": "uint16"
        },
        {
          "internalType": "uint16",
          "name": "_repaymentSchedule",
          "type": "uint16"
        },
        {
          "internalType": "uint32",
          "name": "_monthlyRepaymentAmount",
          "type": "uint32"
        },
        {
          "internalType": "uint16",
          "name": "_remainingPaymentCount",
          "type": "uint16"
        },
        {
          "internalType": "uint8",
          "name": "_initialLTV",
          "type": "uint8"
        },
        {
          "internalType": "uint8",
          "name": "_marginLTV",
          "type": "uint8"
        },
        {
          "internalType": "uint8",
          "name": "_liquidationLTV",
          "type": "uint8"
        }
      ],
      "name": "initiateLoan",
      "outputs": [
        {
          "internalType": "uint256",
          "name": "",
          "type": "uint256"
        }
      ],
      "stateMutability": "nonpayable",
      "type": "function"
    },
    {
      "inputs": [
        {
          "internalType": "address",
          "name": "_borrower",
          "type": "address"
        },
        {
          "internalType": "uint256",
          "name": "_loanId",
          "type": "uint256"
        }
      ],
      "name": "requestLoan",
      "outputs": [],
      "stateMutability": "nonpayable",
      "type": "function"
    },
    {
      "inputs": [
        {
          "internalType": "address",
          "name": "_lender",
          "type": "address"
        },
        {
          "internalType": "uint256",
          "name": "_loanId",
          "type": "uint256"
        }
      ],
      "name": "cancelLoan",
      "outputs": [],
      "stateMutability": "nonpayable",
      "type": "function"
    },
    {
      "inputs": [
        {
          "internalType": "address",
          "name": "_lender",
          "type": "address"
        },
        {
          "internalType": "uint256",
          "name": "_loanId",
          "type": "uint256"
        },
        {
          "internalType": "uint256",
          "name": "_nextRepaymentDeadline",
          "type": "uint256"
        }
      ],
      "name": "updateDisbursedLoanDetails",
      "outputs": [],
      "stateMutability": "nonpayable",
      "type": "function"
    },
    {
      "inputs": [
        {
          "internalType": "uint256",
          "name": "_nextRepaymentDeadline",
          "type": "uint256"
        }
      ],
      "name": "getDefaultedLoanIds",
      "outputs": [
        {
          "internalType": "uint256[]",
          "name": "",
          "type": "uint256[]"
        }
      ],
      "stateMutability": "view",
      "type": "function",
      "constant": true
    },
    {
      "inputs": [
        {
          "internalType": "uint256",
          "name": "_loanId",
          "type": "uint256"
        },
        {
          "internalType": "uint256",
          "name": "_nextRepaymentDeadline",
          "type": "uint256"
        }
      ],
      "name": "updateNextLoanRepaymentDetails",
      "outputs": [
        {
          "internalType": "bool",
          "name": "isFullyRepaid",
          "type": "bool"
        }
      ],
      "stateMutability": "nonpayable",
      "type": "function"
    },
    {
      "inputs": [
        {
          "internalType": "uint256",
          "name": "_loanId",
          "type": "uint256"
        }
      ],
      "name": "recordLoanDefaultEvent",
      "outputs": [],
      "stateMutability": "nonpayable",
      "type": "function"
    },
    {
      "inputs": [
        {
          "internalType": "uint256",
          "name": "_loanId",
          "type": "uint256"
        }
      ],
      "name": "recordLoanFullyRepaidEvent",
      "outputs": [],
      "stateMutability": "nonpayable",
      "type": "function"
    },
    {
      "inputs": [
        {
          "internalType": "uint256",
          "name": "_loanId",
          "type": "uint256"
        }
      ],
      "name": "getLoanDetails",
      "outputs": [
        {
          "components": [
            {
              "internalType": "uint256",
              "name": "loanId",
              "type": "uint256"
            },
            {
              "internalType": "uint32",
              "name": "loanAmount",
              "type": "uint32"
            },
            {
              "internalType": "uint256",
              "name": "collateralAmount",
              "type": "uint256"
            },
            {
              "internalType": "address",
              "name": "borrower",
              "type": "address"
            },
            {
              "internalType": "address",
              "name": "lender",
              "type": "address"
            },
            {
              "internalType": "enum LoanStructure.LoanStatus",
              "name": "loanStatus",
              "type": "uint8"
            },
            {
              "internalType": "uint16",
              "name": "loanTerm",
              "type": "uint16"
            },
            {
              "internalType": "uint16",
              "name": "apr",
              "type": "uint16"
            },
            {
              "internalType": "uint16",
              "name": "repaymentSchedule",
              "type": "uint16"
            },
            {
              "internalType": "uint32",
              "name": "monthlyRepaymentAmount",
              "type": "uint32"
            },
            {
              "internalType": "uint16",
              "name": "remainingRepaymentCount",
              "type": "uint16"
            },
            {
              "internalType": "uint256",
              "name": "nextRepaymentDeadline",
              "type": "uint256"
            },
            {
              "internalType": "uint8",
              "name": "initialLTV",
              "type": "uint8"
            },
            {
              "internalType": "uint8",
              "name": "marginLTV",
              "type": "uint8"
            },
            {
              "internalType": "uint8",
              "name": "liquidationLTV",
              "type": "uint8"
            },
            {
              "internalType": "uint256",
              "name": "createTime",
              "type": "uint256"
            },
            {
              "internalType": "uint256",
              "name": "lastUpdateTime",
              "type": "uint256"
            }
          ],
          "internalType": "struct LoanStructure.Loan",
          "name": "",
          "type": "tuple"
        }
      ],
      "stateMutability": "view",
      "type": "function",
      "constant": true
    },
    {
      "inputs": [
        {
          "internalType": "address",
          "name": "_lender",
          "type": "address"
        }
      ],
      "name": "getLenderLoans",
      "outputs": [
        {
          "components": [
            {
              "internalType": "uint256",
              "name": "loanId",
              "type": "uint256"
            },
            {
              "internalType": "uint32",
              "name": "loanAmount",
              "type": "uint32"
            },
            {
              "internalType": "uint256",
              "name": "collateralAmount",
              "type": "uint256"
            },
            {
              "internalType": "address",
              "name": "borrower",
              "type": "address"
            },
            {
              "internalType": "address",
              "name": "lender",
              "type": "address"
            },
            {
              "internalType": "enum LoanStructure.LoanStatus",
              "name": "loanStatus",
              "type": "uint8"
            },
            {
              "internalType": "uint16",
              "name": "loanTerm",
              "type": "uint16"
            },
            {
              "internalType": "uint16",
              "name": "apr",
              "type": "uint16"
            },
            {
              "internalType": "uint16",
              "name": "repaymentSchedule",
              "type": "uint16"
            },
            {
              "internalType": "uint32",
              "name": "monthlyRepaymentAmount",
              "type": "uint32"
            },
            {
              "internalType": "uint16",
              "name": "remainingRepaymentCount",
              "type": "uint16"
            },
            {
              "internalType": "uint256",
              "name": "nextRepaymentDeadline",
              "type": "uint256"
            },
            {
              "internalType": "uint8",
              "name": "initialLTV",
              "type": "uint8"
            },
            {
              "internalType": "uint8",
              "name": "marginLTV",
              "type": "uint8"
            },
            {
              "internalType": "uint8",
              "name": "liquidationLTV",
              "type": "uint8"
            },
            {
              "internalType": "uint256",
              "name": "createTime",
              "type": "uint256"
            },
            {
              "internalType": "uint256",
              "name": "lastUpdateTime",
              "type": "uint256"
            }
          ],
          "internalType": "struct LoanStructure.Loan[]",
          "name": "",
          "type": "tuple[]"
        }
      ],
      "stateMutability": "view",
      "type": "function",
      "constant": true
    },
    {
      "inputs": [
        {
          "internalType": "address",
          "name": "_borrower",
          "type": "address"
        }
      ],
      "name": "getBorrowerLoans",
      "outputs": [
        {
          "components": [
            {
              "internalType": "uint256",
              "name": "loanId",
              "type": "uint256"
            },
            {
              "internalType": "uint32",
              "name": "loanAmount",
              "type": "uint32"
            },
            {
              "internalType": "uint256",
              "name": "collateralAmount",
              "type": "uint256"
            },
            {
              "internalType": "address",
              "name": "borrower",
              "type": "address"
            },
            {
              "internalType": "address",
              "name": "lender",
              "type": "address"
            },
            {
              "internalType": "enum LoanStructure.LoanStatus",
              "name": "loanStatus",
              "type": "uint8"
            },
            {
              "internalType": "uint16",
              "name": "loanTerm",
              "type": "uint16"
            },
            {
              "internalType": "uint16",
              "name": "apr",
              "type": "uint16"
            },
            {
              "internalType": "uint16",
              "name": "repaymentSchedule",
              "type": "uint16"
            },
            {
              "internalType": "uint32",
              "name": "monthlyRepaymentAmount",
              "type": "uint32"
            },
            {
              "internalType": "uint16",
              "name": "remainingRepaymentCount",
              "type": "uint16"
            },
            {
              "internalType": "uint256",
              "name": "nextRepaymentDeadline",
              "type": "uint256"
            },
            {
              "internalType": "uint8",
              "name": "initialLTV",
              "type": "uint8"
            },
            {
              "internalType": "uint8",
              "name": "marginLTV",
              "type": "uint8"
            },
            {
              "internalType": "uint8",
              "name": "liquidationLTV",
              "type": "uint8"
            },
            {
              "internalType": "uint256",
              "name": "createTime",
              "type": "uint256"
            },
            {
              "internalType": "uint256",
              "name": "lastUpdateTime",
              "type": "uint256"
            }
          ],
          "internalType": "struct LoanStructure.Loan[]",
          "name": "",
          "type": "tuple[]"
        }
      ],
      "stateMutability": "view",
      "type": "function",
      "constant": true
    },
    {
      "inputs": [
        {
          "internalType": "uint256",
          "name": "_loanId",
          "type": "uint256"
        }
      ],
      "name": "getLoanAmount",
      "outputs": [
        {
          "internalType": "uint256",
          "name": "",
          "type": "uint256"
        }
      ],
      "stateMutability": "view",
      "type": "function",
      "constant": true
    },
    {
      "inputs": [
        {
          "internalType": "uint256",
          "name": "_loanId",
          "type": "uint256"
        }
      ],
      "name": "getCollateralAmount",
      "outputs": [
        {
          "internalType": "uint256",
          "name": "",
          "type": "uint256"
        }
      ],
      "stateMutability": "view",
      "type": "function",
      "constant": true
    },
    {
      "inputs": [
        {
          "internalType": "uint8",
          "name": "a",
          "type": "uint8"
        },
        {
          "internalType": "uint8",
          "name": "b",
          "type": "uint8"
        }
      ],
      "name": "add1",
      "outputs": [
        {
          "internalType": "uint8",
          "name": "",
          "type": "uint8"
        }
      ],
      "stateMutability": "view",
      "type": "function",
      "constant": true
    },
    {
      "inputs": [
        {
          "internalType": "uint256",
          "name": "_loanId",
          "type": "uint256"
        },
        {
          "internalType": "uint16",
          "name": "_remainingCount",
          "type": "uint16"
        }
      ],
      "name": "updateLoanRemainingRepaymentCount",
      "outputs": [],
      "stateMutability": "nonpayable",
      "type": "function"
    }
  ],
  "bytecode": "0x60806040523480156200001157600080fd5b5060405162002b2338038062002b23833981016040819052620000349162000075565b80620000498164010000000062000051810204565b5050620000a5565b7faf3ccdab63767d83181d2ac8c40c256cce5f7d52dd79fa93eadafa27d81b942e55565b60006020828403121562000087578081fd5b8151600160a060020a03811681146200009e578182fd5b9392505050565b612a6e80620000b56000396000f3fe608060405234801561001057600080fd5b5060043610610154576000357c010000000000000000000000000000000000000000000000000000000090048063990b1649116100d5578063bdc7c12b11610099578063bdc7c12b146102d4578063be921c9d146102e7578063c27ee0f9146102fa578063eee8b7ff1461031a578063eeeb0c171461033a578063f92eecc11461034d57610154565b8063990b1649146102735780639c3f71cc1461027b5780639f8c02341461028e578063a241180e146102a1578063a7cc787a146102b457610154565b806366877b8d1161011c57806366877b8d146101e55780637c46499b146102055780637ffa8b5c14610218578063813b9f3c1461023b57806384f81e551461026057610154565b806304433bbc146101595780631f06e78814610189578063226546a41461019e57806338aed2f7146101bf5780633efb7047146101d2575b600080fd5b61016c61016736600461258b565b610360565b604051600160a060020a0390911681526020015b60405180910390f35b61019c61019736600461246c565b6103b2565b005b6101b16101ac366004612612565b610544565b604051908152602001610180565b61019c6101cd3660046125c6565b6105ab565b61019c6101e0366004612612565b610641565b6101f86101f3366004612612565b6107ba565b60405161018091906128af565b61019c61021336600461246c565b6109b4565b61022b61022636600461264c565b610b4d565b6040519015158152602001610180565b61024e61024936600461266d565b610da4565b60405160ff9091168152602001610180565b61019c61026e366004612495565b610e02565b61016c610fcc565b61019c610289366004612612565b611011565b61019c61029c36600461262a565b61116a565b6101b16102af3660046124c7565b6111b8565b6102c76102c2366004612452565b6115dc565b604051610180919061287c565b6101b16102e2366004612612565b6116b5565b61016c6102f536600461258b565b611717565b61030d610308366004612612565b611758565b6040516101809190612844565b61032d610328366004612452565b6119be565b60405161018091906127f5565b61032d610348366004612452565b611ceb565b61019c61035b366004612452565b612011565b336000908152600160205260408120805461037a9061296d565b1590506101545760008260405161039191906127d9565b90815260405190819003602001902054600160a060020a031690505b919050565b6103de604051806040016040528060198152602001600080516020612a19833981519152815250610360565b600160a060020a031633600160a060020a0316146103fb57600080fd5b60008181526002602052604090206004015482908290600160a060020a0380841691161461042857600080fd5b600083815260036020526040902054839060019060ff1680156104aa57508060058111156104695760e060020a634e487b7102600052602160045260246000fd5b60008381526002602052604090206004015460a060020a900460ff1660058111156104a75760e060020a634e487b7102600052602160045260246000fd5b11155b6104b357600080fd5b60008581526002602052604090819020600401805460a060020a60ff0219167402000000000000000000000000000000000000000017905551859042907f54d0421e3881582d5c6f6e39165066b99e8b4be494d5994f67fd360521892801906105219084908b9085906128be565b60405180910390a160009182526002602052604090912060090155505050505050565b6000610572604051806040016040528060198152602001600080516020612a19833981519152815250610360565b600160a060020a031633600160a060020a03161461058f57600080fd5b5060009081526002602052604090206001015463ffffffff1690565b6000805160206129f983398151915254600160a060020a031633600160a060020a0316141561015457806000836040516105e591906127d9565b9081526040805160209281900383019020805473ffffffffffffffffffffffffffffffffffffffff1916600160a060020a0394851617905591831660009081526001825291909120835161063b9285019061225c565b505b5050565b61066d604051806040016040528060198152602001600080516020612a19833981519152815250610360565b600160a060020a031633600160a060020a03161461068a57600080fd5b60008181526003602081905260409091205482919060ff16801561070c57508060058111156106cc5760e060020a634e487b7102600052602160045260246000fd5b60008381526002602052604090206004015460a060020a900460ff16600581111561070a5760e060020a634e487b7102600052602160045260246000fd5b145b61071557600080fd5b60008381526002602052604080822060048101805460a060020a60ff0219167404000000000000000000000000000000000000000017905560068101929092556003909101549051849142917f2d6de712d035bfecc1593860af7eae0831e978cab3cd96f778478b1fdc443bc39161079a918591600160a060020a03169085906128be565b60405180910390a160009182526002602052604090912060090155505050565b6107c26122e0565b6107ee604051806040016040528060198152602001600080516020612a19833981519152815250610360565b600160a060020a031633600160a060020a03161461080b57600080fd5b60008281526002602081815260409283902083516102208101855281548152600182015463ffffffff169281019290925291820154928101929092526003810154600160a060020a0390811660608401526004820154908116608084015260a083019060a060020a900460ff16600581111561089a5760e060020a634e487b7102600052602160045260246000fd5b60058111156108bc5760e060020a634e487b7102600052602160045260246000fd5b815260048201547501000000000000000000000000000000000000000000810461ffff9081166020840152770100000000000000000000000000000000000000000000008204811660408401527901000000000000000000000000000000000000000000000000008204811660608401527b0100000000000000000000000000000000000000000000000000000090910463ffffffff16608083015260058301541660a0820152600682015460c0820152600782015460ff80821660e0840152610100808304821690840152620100009091041661012082015260088201546101408201526009909101546101609091015292915050565b6109e0604051806040016040528060198152602001600080516020612a19833981519152815250610360565b600160a060020a031633600160a060020a0316146109fd57600080fd5b60008181526003602052604081205482919060ff168015610a7c5750806005811115610a3c5760e060020a634e487b7102600052602160045260246000fd5b60008381526002602052604090206004015460a060020a900460ff166005811115610a7a5760e060020a634e487b7102600052602160045260246000fd5b145b610a8557600080fd5b600083815260026020908152604080832060048101805460a060020a60ff02191660a060020a179055600301805473ffffffffffffffffffffffffffffffffffffffff1916600160a060020a0389169081179091558352600582528083208054600181018255908452919092200184905551839042907f97e04be2fd6414727fe9d0400464568f4384aa8b06264119565ca8f6cc2a4b7a90610b2c908490899085906128be565b60405180910390a16000918252600260205260409091206009015550505050565b6000610b7b604051806040016040528060198152602001600080516020612a19833981519152815250610360565b600160a060020a031633600160a060020a031614610b9857600080fd5b60008381526003602081905260409091205484919060ff168015610c1a5750806005811115610bda5760e060020a634e487b7102600052602160045260246000fd5b60008381526002602052604090206004015460a060020a900460ff166005811115610c185760e060020a634e487b7102600052602160045260246000fd5b145b610c2357600080fd5b8442610c2e87612146565b6000878152600260205260408120600501805460019290610c5490849061ffff1661291a565b82546101009290920a61ffff8181021990931691831602179091556000898152600260205260409020600501541615159050610d2557600087815260026020526040908190206003015490517f3d60126fde9e8e802286d4b172355dd415d5121b60d4789a304aa7c10069116c91610cd9918a91600160a060020a03169042906128be565b60405180910390a1600087815260026020526040812060048101805460a060020a60ff021916740500000000000000000000000000000000000000001790556006015560019450610d88565b600087815260026020818152604080842060069081018b90558a8552825280842081518083019092528b825281830185815281546001808201845592875293862092519390940290910191825591519101805460ff191691151591909117905594505b6000918252600260205260409091206009015550909392505050565b6000610dd2604051806040016040528060198152602001600080516020612a19833981519152815250610360565b600160a060020a031633600160a060020a031614610def57600080fd5b610df982846128f5565b90505b92915050565b610e2e604051806040016040528060198152602001600080516020612a19833981519152815250610360565b600160a060020a031633600160a060020a031614610e4b57600080fd5b600082815260036020526040902054829060019060ff168015610ecc5750806005811115610e8c5760e060020a634e487b7102600052602160045260246000fd5b60008381526002602052604090206004015460a060020a900460ff166005811115610eca5760e060020a634e487b7102600052602160045260246000fd5b145b610ed557600080fd5b600084815260026020818152604080842060048101805460a060020a60ff0219167403000000000000000000000000000000000000000017905560069081018890558785528252808420815180830183528981528084018681528254600181810185559388529685902091519690950201948555925193909201805460ff1916931515939093179092558051868152600160a060020a038816928101929092528181018590524260608301819052905186927fa17f99bd4547aa4c1ccc3829b6f6b53285043ac310a536743995ea2ae594520f919081900360800190a1600091825260026020526040909120600901555050505050565b6000610fe46000805160206129f98339815191525490565b600160a060020a031633600160a060020a0316141561015457506000805160206129f98339815191525490565b61103d604051806040016040528060198152602001600080516020612a19833981519152815250610360565b600160a060020a031633600160a060020a03161461105a57600080fd5b60008181526003602081905260409091205482919060ff1680156110dc575080600581111561109c5760e060020a634e487b7102600052602160045260246000fd5b60008381526002602052604090206004015460a060020a900460ff1660058111156110da5760e060020a634e487b7102600052602160045260246000fd5b145b6110e557600080fd5b60008381526002602052604080822060048101805460a060020a60ff0219167405000000000000000000000000000000000000000017905560068101929092556003909101549051849142917f3d60126fde9e8e802286d4b172355dd415d5121b60d4789a304aa7c10069116c9161079a918591600160a060020a03169085906128be565b6000805160206129f983398151915254600160a060020a031633600160a060020a03161415610154576000828152600260205260409020600501805461ffff191661ffff831617905561063d565b60006111e6604051806040016040528060198152602001600080516020612a19833981519152815250610360565b600160a060020a031633600160a060020a03161461120357600080fd5b60016007600082825461121691906128dd565b90915550506040805161022081018252600754815263ffffffff8d1660208201529081018b9052600060608201819052600160a060020a038e16608083015260a082019081526020018a61ffff1681526020018961ffff1681526020018861ffff1681526020018763ffffffff1681526020018661ffff168152602001600081526020018560ff1681526020018460ff1681526020018360ff168152602001428152602001428152506002600060075481526020019081526020016000206000820151816000015560208201518160010160006101000a81548163ffffffff021916908363ffffffff1602179055506040820151816002015560608201518160030160006101000a815481600160a060020a030219169083600160a060020a0316021790555060808201518160040160006101000a815481600160a060020a030219169083600160a060020a0316021790555060a08201518160040160146101000a81548160ff021916908360058111156113a45760e060020a634e487b7102600052602160045260246000fd5b021790555060c08201518160040160156101000a81548161ffff021916908361ffff16021790555060e08201518160040160176101000a81548161ffff021916908361ffff1602179055506101008201518160040160196101000a81548161ffff021916908361ffff16021790555061012082015181600401601b6101000a81548163ffffffff021916908363ffffffff1602179055506101408201518160050160006101000a81548161ffff021916908361ffff16021790555061016082015181600601556101808201518160070160006101000a81548160ff021916908360ff1602179055506101a08201518160070160016101000a81548160ff021916908360ff1602179055506101c08201518160070160026101000a81548160ff021916908360ff1602179055506101e082015181600801556102008201518160090155905050600460008d600160a060020a0316600160a060020a031681526020019081526020016000206007549080600181540180825580915050600190039060005260206000200160009091909190915055600160036000600754815260200190815260200160002060006101000a81548160ff0219169083151502179055507f289f3c222551c24eff143386380eef80567f9e791ca043b8e19d530ff5e5c25e6007548d600260006007548152602001908152602001600020600801546040516115b2939291906128be565b60405180910390a1506007546000908152600260205260409020549b9a5050505050505050505050565b60606115f46000805160206129f98339815191525490565b600160a060020a031633600160a060020a0316141561015457600160a060020a038216600090815260016020526040902080546116309061296d565b80601f016020809104026020016040519081016040528092919081815260200182805461165c9061296d565b80156116a95780601f1061167e576101008083540402835291602001916116a9565b820191906000526020600020905b81548152906001019060200180831161168c57829003601f168201915b505050505090506103ad565b60006116e3604051806040016040528060198152602001600080516020612a19833981519152815250610360565b600160a060020a031633600160a060020a03161461170057600080fd5b506000908152600260208190526040909120015490565b600061172f6000805160206129f98339815191525490565b600160a060020a031633600160a060020a031614156101545760008260405161039191906127d9565b6060611786604051806040016040528060198152602001600080516020612a19833981519152815250610360565b600160a060020a031633600160a060020a0316146117a357600080fd5b60008281526006602052604081208054829067ffffffffffffffff8111156117de5760e060020a634e487b7102600052604160045260246000fd5b604051908082528060200260200182016040528015611807578160200160208202803683370190505b50905060005b82548110156118e45760008084838154811061183c5760e060020a634e487b7102600052603260045260246000fd5b9060005260206000209060020201600001548584815481106118715760e060020a634e487b7102600052603260045260246000fd5b600091825260209091206001600290920201015490925060ff169050806118cf57818487815181106118b65760e060020a634e487b7102600052603260045260246000fd5b60209081029190910101526118cc6001876128dd565b95505b505080806118dc906129ab565b91505061180d565b5060008367ffffffffffffffff8111156119115760e060020a634e487b7102600052604160045260246000fd5b60405190808252806020026020018201604052801561193a578160200160208202803683370190505b50905060005b81518110156119b45782818151811061196c5760e060020a634e487b7102600052603260045260246000fd5b60200260200101518282815181106119975760e060020a634e487b7102600052603260045260246000fd5b6020908102919091010152806119ac816129ab565b915050611940565b5095945050505050565b60606119ec604051806040016040528060198152602001600080516020612a19833981519152815250610360565b600160a060020a031633600160a060020a031614611a0957600080fd5b600160a060020a03821660009081526005602052604081205467ffffffffffffffff811115611a4b5760e060020a634e487b7102600052604160045260246000fd5b604051908082528060200260200182016040528015611a8457816020015b611a716122e0565b815260200190600190039081611a695790505b50905060005b600160a060020a038416600090815260056020526040902054811015611ce457600160a060020a03841660009081526005602052604081208054600291839185908110611aea5760e060020a634e487b7102600052603260045260246000fd5b60009182526020808320909101548352828101939093526040918201902081516102208101835281548152600182015463ffffffff16938101939093526002810154918301919091526003810154600160a060020a0390811660608401526004820154908116608084015260a083019060ff60a060020a909104166005811115611b875760e060020a634e487b7102600052602160045260246000fd5b6005811115611ba95760e060020a634e487b7102600052602160045260246000fd5b815260048201547501000000000000000000000000000000000000000000810461ffff9081166020840152770100000000000000000000000000000000000000000000008204811660408401527901000000000000000000000000000000000000000000000000008204811660608401527b0100000000000000000000000000000000000000000000000000000090910463ffffffff16608083015260058301541660a0820152600682015460c0820152600782015460ff80821660e0840152610100808304821690840152620100009091041661012082015260088201546101408201526009909101546101609091015283519091508190849084908110611cc55760e060020a634e487b7102600052603260045260246000fd5b6020026020010181905250508080611cdc906129ab565b915050611a8a565b5092915050565b6060611d19604051806040016040528060198152602001600080516020612a19833981519152815250610360565b600160a060020a031633600160a060020a031614611d3657600080fd5b600160a060020a03821660009081526004602052604081205467ffffffffffffffff811115611d785760e060020a634e487b7102600052604160045260246000fd5b604051908082528060200260200182016040528015611db157816020015b611d9e6122e0565b815260200190600190039081611d965790505b50905060005b600160a060020a038416600090815260046020526040902054811015611ce457600160a060020a03841660009081526004602052604081208054600291839185908110611e175760e060020a634e487b7102600052603260045260246000fd5b60009182526020808320909101548352828101939093526040918201902081516102208101835281548152600182015463ffffffff16938101939093526002810154918301919091526003810154600160a060020a0390811660608401526004820154908116608084015260a083019060ff60a060020a909104166005811115611eb45760e060020a634e487b7102600052602160045260246000fd5b6005811115611ed65760e060020a634e487b7102600052602160045260246000fd5b815260048201547501000000000000000000000000000000000000000000810461ffff9081166020840152770100000000000000000000000000000000000000000000008204811660408401527901000000000000000000000000000000000000000000000000008204811660608401527b0100000000000000000000000000000000000000000000000000000090910463ffffffff16608083015260058301541660a0820152600682015460c0820152600782015460ff80821660e0840152610100808304821690840152620100009091041661012082015260088201546101408201526009909101546101609091015283519091508190849084908110611ff25760e060020a634e487b7102600052603260045260246000fd5b6020026020010181905250508080612009906129ab565b915050611db7565b6000805160206129f983398151915254600160a060020a031633600160a060020a0316141561015457600160a060020a0381166120d4576040517f08c379a000000000000000000000000000000000000000000000000000000000815260206004820152603260248201527f5472616e73706172656e7455706772616461626c6550726f78793a206e65772060448201527f61646d696e206973206164647265737320300000000000000000000000000000606482015260840160405180910390fd5b7f1fcd9f8f9240447000d2e6d16dc98e443b2ff6561f5fc7c704e3f765f0ae37e861210b6000805160206129f98339815191525490565b60408051600160a060020a03928316815291841660208301520160405180910390a1612143816000805160206129f983398151915255565b50565b60008181526002602090815260408083206006908101548452909152812082914291905b81548110156122435760008282815481106121985760e060020a634e487b7102600052603260045260246000fd5b9060005260206000209060020201600001548383815481106121cd5760e060020a634e487b7102600052603260045260246000fd5b506000529050858114156122305760018383815481106122005760e060020a634e487b7102600052603260045260246000fd5b906000526020600020906002020160010160006101000a81548160ff021916908315150217905550505050612246565b508061223b816129ab565b91505061216a565b50505b6000918252600260205260409091206009015550565b8280546122689061296d565b90600052602060002090601f01602090048101928261228a57600085556122d0565b82601f106122a357805160ff19168380011785556122d0565b828001600101855582156122d0579182015b828111156122d05782518255916020019190600101906122b5565b506122dc929150612368565b5090565b604080516102208101825260008082526020820181905291810182905260608101829052608081018290529060a0820190815260006020820181905260408201819052606082018190526080820181905260a0820181905260c0820181905260e082018190526101008201819052610120820181905261014082018190526101609091015290565b5b808211156122dc5760008155600101612369565b8035600160a060020a03811681146103ad57600080fd5b600082601f8301126123a4578081fd5b813567ffffffffffffffff808211156123bf576123bf6129df565b604051601f8301601f19908116603f011681019082821181831017156123e7576123e76129df565b816040528381528660208588010111156123ff578485fd5b8360208701602083013792830160200193909352509392505050565b803561ffff811681146103ad57600080fd5b803563ffffffff811681146103ad57600080fd5b803560ff811681146103ad57600080fd5b600060208284031215612463578081fd5b610df98261237d565b6000806040838503121561247e578081fd5b6124878361237d565b946020939093013593505050565b6000806000606084860312156124a9578081fd5b6124b28461237d565b95602085013595506040909401359392505050565b60008060008060008060008060008060006101608c8e0312156124e8578687fd5b6124f18c61237d565b9a506124ff60208d0161242d565b995060408c0135985061251460608d0161241b565b975061252260808d0161241b565b965061253060a08d0161241b565b955061253e60c08d0161242d565b945061254c60e08d0161241b565b935061255b6101008d01612441565b925061256a6101208d01612441565b91506125796101408d01612441565b90509295989b509295989b9093969950565b60006020828403121561259c578081fd5b813567ffffffffffffffff8111156125b2578182fd5b6125be84828501612394565b949350505050565b600080604083850312156125d8578182fd5b823567ffffffffffffffff8111156125ee578283fd5b6125fa85828601612394565b9250506126096020840161237d565b90509250929050565b600060208284031215612623578081fd5b5035919050565b6000806040838503121561263c578182fd5b823591506126096020840161241b565b6000806040838503121561265e578182fd5b50508035926020909101359150565b6000806040838503121561267f578182fd5b61268883612441565b915061260960208401612441565b600681106126b75760e060020a634e487b7102600052602160045260246000fd5b9052565b8051825260208101516126d6602084018263ffffffff169052565b506040810151604083015260608101516126fb6060840182600160a060020a03169052565b5060808101516127166080840182600160a060020a03169052565b5060a081015161272960a0840182612696565b5060c081015161273f60c084018261ffff169052565b5060e081015161275560e084018261ffff169052565b506101008181015161ffff908116918401919091526101208083015163ffffffff1690840152610140808301519091169083015261016080820151908301526101808082015160ff908116918401919091526101a0808301518216908401526101c080830151909116908301526101e0808201519083015261020090810151910152565b600082516127eb81846020870161293d565b9190910192915050565b6020808252825182820181905260009190848201906040850190845b81811015612838576128248385516126bb565b928401926102209290920191600101612811565b50909695505050505050565b6020808252825182820181905260009190848201906040850190845b8181101561283857835183529284019291840191600101612860565b600060208252825180602084015261289b81604085016020870161293d565b601f01601f19169190910160400192915050565b6102208101610dfc82846126bb565b928352600160a060020a03919091166020830152604082015260600190565b600082198211156128f0576128f06129c6565b500190565b600060ff821660ff84168060ff03821115612912576129126129c6565b019392505050565b600061ffff83811690831681811015612935576129356129c6565b039392505050565b60005b83811015612958578181015183820152602001612940565b83811115612967576000848401525b50505050565b60028104600182168061298157607f821691505b602082108114156129a55760e060020a634e487b7102600052602260045260246000fd5b50919050565b60006000198214156129bf576129bf6129c6565b5060010190565b60e060020a634e487b7102600052601160045260246000fd5b60e060020a634e487b7102600052604160045260246000fdfeaf3ccdab63767d83181d2ac8c40c256cce5f7d52dd79fa93eadafa27d81b942e436f6c6c61746572616c697a65644c6f616e4761746577617900000000000000a2646970667358221220554992bd38788585b0cbf4180ea648c86d2331c479d861501c5f21ba4230030964736f6c63430008030033",
  "immutableReferences": {},
  "source": "// SPDX-License-Identifier: GPL-3.0\n\npragma solidity ^0.8.0;\n\nimport \"./LoanStructure.sol\";\nimport \"./AddressManagement.sol\";\n\n/**\n * @title CollateralizedLoan\n * @dev Allow the lending of loan in fiat currency with cryptocurrency as collateral\n */\ncontract CollateralizedLoan is AddressManagement {\n\n    constructor(address admin_) AddressManagement(admin_) { }\n    \n    /**\n     * @dev Trigger the event when agreement of the collateralized loan is made\n     */\n    event LoanInitiated(uint256 _loanId, address _lender, uint256 _initiatedTime);\n\n    /**\n     * @dev Trigger the event when borrower raised a request for loan\n     */\n    event LoanRequested(uint256 _loanId, address _requester, uint256 _requestedTime);\n\n    /**\n     * @dev Trigger the event when the loan is cancelled\n     */\n    event LoanCancelled(uint256 _loanId, address _lender, uint256 _cancelTime);\n\n    /**\n     * @dev Trigger the event when loan is disbursed to borrower\n     */\n    event LoanDisbursed(uint256 _loanId, address _lender, uint256 _nextRepaymentDeadline, uint256 _disburseTime);\n\n    /**\n     * @dev Trigger the event when repayment is made by the borrower\n     */\n    event LoanRepaid(uint256 _loanId, address _borrower, uint256 _repaidTime);\n\n    /**\n     * @dev Trigger the event when borrower defaults on a particular loan\n     */\n    event LoanDefaulted(uint256 _loanId, address _borrower, uint256 _checkTime);\n\n    /**\n     * @dev Trigger the event when borrower has fully repaid the loan\n     */\n    event LoanFullyRepaid(uint256 _loanId, address _borrower, uint256 _repaidTime);\n\n    /**\n     * @dev loanId => Loan\n     */\n    mapping(uint256 => LoanStructure.Loan) loanMap;\n\n    /**\n     * @dev loanId => loanExistence\n     */\n    mapping(uint256 => bool) loanExistenceMap;\n\n    /**\n     * @dev lender address => loanId[]\n     */\n    mapping(address => uint256[]) lenderMap;\n\n    /**\n     * @dev borrower address => loanId[]\n     */\n    mapping(address => uint256[]) borrowerMap;\n\n    /**\n     * @dev nextPaymentDeadline => NextPaymentRecord[]\n     */\n    mapping(uint256 => LoanStructure.NextPaymentRecord[]) nextPaymentRecordMap;\n\n    /**\n     * @dev Count of latest loanId\n     */\n    uint256 loanCount;\n\n    /**\n     * @dev Require the loan to be initiated and processed to a particular stage\n     */\n    modifier RequireLoanStatus(uint256 _loanId, LoanStructure.LoanStatus _loanStatus) {\n        require(loanExistenceMap[_loanId] && loanMap[_loanId].loanStatus == _loanStatus);\n        _;\n    }\n\n    /**\n     * @dev Require the loan to be initiated and processed to a particular stage\n     */\n    modifier RequireLoanStatusBefore(uint256 _loanId, LoanStructure.LoanStatus _loanStatus) {\n        require(loanExistenceMap[_loanId] && loanMap[_loanId].loanStatus <= _loanStatus);\n        _;\n    }\n\n    /**\n     * @dev Authenticate the address of the sender, see if it is the address of the borrower of a loan\n     */\n    modifier AuthenticateBorrower(address _borrower, uint256 _loanId) {\n        require(_borrower == loanMap[_loanId].borrower);\n        _;\n    }\n    \n    /**\n     * @dev Authenticate the address of the sender, see if it is the address of the lender of a loan\n     */\n    modifier AuthenticateLender(address _lender, uint256 _loanId) {\n        require(_lender == loanMap[_loanId].lender);\n        _;\n    }\n    \n    /**\n     * @dev Authenticate the address of the sender, see if it is coming from the Collateralized Loan Gateway\n     */\n    modifier AuthenticateSender() {\n        require(msg.sender == super.getContractAddress(\"CollateralizedLoanGateway\"));\n        _;\n    }\n\n    /**\n     * @dev Update lastUpdateTime of the loan\n     */\n    modifier UpdateLastUpdateTime(uint256 _loanId, uint256 _lastUpdateTime) {\n        _;\n        loanMap[_loanId].lastUpdateTime = _lastUpdateTime;\n    }\n    \n    /**\n     * @dev Initiate the loan offered from lender\n     */\n    function initiateLoan(address _lender, uint32 _loanAmount, uint256 _collateralAmount, uint16 _loanTerm, uint16 _apr, uint16 _repaymentSchedule, uint32 _monthlyRepaymentAmount, uint16 _remainingPaymentCount, uint8 _initialLTV, uint8 _marginLTV, uint8 _liquidationLTV) external\n    AuthenticateSender\n    returns(uint256)\n    {\n        loanCount += 1;\n        loanMap[loanCount] = LoanStructure.Loan({\n            loanId: loanCount\n            , loanAmount: _loanAmount\n            , collateralAmount: _collateralAmount\n            , borrower: address(0)\n            , lender: _lender\n            , loanStatus: LoanStructure.LoanStatus.LoanInitiated\n            , loanTerm: _loanTerm\n            , apr: _apr\n            , repaymentSchedule: _repaymentSchedule\n            , monthlyRepaymentAmount: _monthlyRepaymentAmount\n            , remainingRepaymentCount: _remainingPaymentCount\n            , nextRepaymentDeadline: 0\n            , initialLTV: _initialLTV\n            , marginLTV: _marginLTV\n            , liquidationLTV: _liquidationLTV\n            , createTime: block.timestamp\n            , lastUpdateTime: block.timestamp\n        });\n        lenderMap[_lender].push(loanCount);\n        loanExistenceMap[loanCount] = true;\n        emit LoanInitiated(loanCount, _lender, loanMap[loanCount].createTime);\n        return loanMap[loanCount].loanId;\n    }\n\n    /**\n     * @dev Borrower requests for the loan\n     */\n    function requestLoan(address _borrower, uint256 _loanId) external\n    AuthenticateSender RequireLoanStatus(_loanId, LoanStructure.LoanStatus.LoanInitiated) UpdateLastUpdateTime(_loanId, block.timestamp)\n    {\n        loanMap[_loanId].loanStatus = LoanStructure.LoanStatus.LoanRequested;\n        loanMap[_loanId].borrower = _borrower;\n        borrowerMap[_borrower].push(_loanId);\n        emit LoanRequested(_loanId, _borrower, block.timestamp);\n    }\n\n    /**\n     * @dev Loan is cancelled by the lender\n     */\n    function cancelLoan(address _lender, uint256 _loanId) external\n    AuthenticateSender AuthenticateLender(_lender, _loanId) RequireLoanStatusBefore(_loanId, LoanStructure.LoanStatus.LoanRequested) UpdateLastUpdateTime(_loanId, block.timestamp)\n    {\n        loanMap[_loanId].loanStatus = LoanStructure.LoanStatus.LoanCancelled;\n        emit LoanCancelled(_loanId, _lender, block.timestamp);\n    }\n\n    /**\n     * @dev Record the event of loan disbursement\n     */\n    function updateDisbursedLoanDetails(address _lender, uint256 _loanId, uint256 _nextRepaymentDeadline) external\n    AuthenticateSender RequireLoanStatus(_loanId, LoanStructure.LoanStatus.LoanRequested) UpdateLastUpdateTime(_loanId, block.timestamp)\n    {\n        loanMap[_loanId].loanStatus = LoanStructure.LoanStatus.LoanRepaying;\n        loanMap[_loanId].nextRepaymentDeadline = _nextRepaymentDeadline;\n        nextPaymentRecordMap[_nextRepaymentDeadline].push(LoanStructure.NextPaymentRecord(_loanId, false));\n        emit LoanDisbursed(_loanId, _lender, _nextRepaymentDeadline, block.timestamp);\n    }\n\n    /**\n     * @dev Get a list of defaulted loanIds by nextRepaymentDeadline in NextPaymentRecord\n     */\n    function getDefaultedLoanIds(uint256 _nextRepaymentDeadline) external view\n    AuthenticateSender\n    returns(uint256[] memory)\n    {\n        uint256 defaultedLoanIdCount = 0;\n        LoanStructure.NextPaymentRecord[] storage loanIds = nextPaymentRecordMap[_nextRepaymentDeadline];\n        uint256[] memory candidates = new uint256[](loanIds.length);\n        for(uint256 i = 0; i < loanIds.length; i++) {\n            (uint256 _loanId_, bool _isPaid) = (loanIds[i].loanId, loanIds[i].isPaid);\n            if(!_isPaid) {\n                candidates[defaultedLoanIdCount] = _loanId_;\n                defaultedLoanIdCount += 1;\n            }\n        }\n        uint256[] memory defaultedLoanIds = new uint[](defaultedLoanIdCount);\n        for (uint j = 0; j < defaultedLoanIds.length; j++) {\n            defaultedLoanIds[j] = candidates[j];\n        }\n        return defaultedLoanIds;\n    }\n\n    /**\n     * @dev Update the next payment status as paid in NextPaymentRecord\n     */\n    function updateNextPaymentAsPaid(uint256 _loanId) internal\n    UpdateLastUpdateTime(_loanId, block.timestamp)\n    {\n        LoanStructure.NextPaymentRecord[] storage loanIds = nextPaymentRecordMap[loanMap[_loanId].nextRepaymentDeadline];\n        for(uint256 i = 0; i < loanIds.length; i++) {\n            (uint256 _loanId_, ) = (loanIds[i].loanId, loanIds[i].isPaid);\n            if(_loanId_ == _loanId) {\n                loanIds[i].isPaid = true;\n                return;\n            }\n        }\n    }\n\n    /**\n     * @dev Update the details of the next loan repayment\n     */\n    function updateNextLoanRepaymentDetails(uint256 _loanId, uint256 _nextRepaymentDeadline) external\n    AuthenticateSender RequireLoanStatus(_loanId, LoanStructure.LoanStatus.LoanRepaying) UpdateLastUpdateTime(_loanId, block.timestamp)\n    returns(bool isFullyRepaid)\n    {\n        updateNextPaymentAsPaid(_loanId);\n        loanMap[_loanId].remainingRepaymentCount -= 1;\n        if(loanMap[_loanId].remainingRepaymentCount == 0) {\n            emit LoanFullyRepaid(_loanId, loanMap[_loanId].borrower, block.timestamp);\n            loanMap[_loanId].loanStatus = LoanStructure.LoanStatus.LoanCompleted;\n            loanMap[_loanId].nextRepaymentDeadline = 0;\n            return true;\n        }\n        loanMap[_loanId].nextRepaymentDeadline = _nextRepaymentDeadline;\n        nextPaymentRecordMap[_nextRepaymentDeadline].push(LoanStructure.NextPaymentRecord(_loanId, false));\n        return false;\n    }\n\n    /**\n     * @dev Record the event of loan default\n     */\n    function recordLoanDefaultEvent(uint256 _loanId) external\n    AuthenticateSender RequireLoanStatus(_loanId, LoanStructure.LoanStatus.LoanRepaying) UpdateLastUpdateTime(_loanId, block.timestamp)\n    {\n        loanMap[_loanId].loanStatus = LoanStructure.LoanStatus.LoanDefaulted;\n        loanMap[_loanId].nextRepaymentDeadline = 0;\n        emit LoanDefaulted(_loanId, loanMap[_loanId].borrower, block.timestamp);\n    }\n\n    /**\n     * @dev Record the event of loan default\n     */\n    function recordLoanFullyRepaidEvent(uint256 _loanId) external\n    AuthenticateSender RequireLoanStatus(_loanId, LoanStructure.LoanStatus.LoanRepaying) UpdateLastUpdateTime(_loanId, block.timestamp)\n    {\n        loanMap[_loanId].loanStatus = LoanStructure.LoanStatus.LoanCompleted;\n        loanMap[_loanId].nextRepaymentDeadline = 0;\n        emit LoanFullyRepaid(_loanId, loanMap[_loanId].borrower, block.timestamp);\n    }\n\n    /**\n     * @dev Get loan details by loanId\n     */\n    function getLoanDetails(uint256 _loanId) external view\n    AuthenticateSender\n    returns(LoanStructure.Loan memory)\n    {\n        return loanMap[_loanId];\n    }\n\n    /**\n     * @dev Get all the initiated loans by a particular lender (which is the msg.sender)\n     */\n    function getLenderLoans(address _lender) external view\n    AuthenticateSender\n    returns(LoanStructure.Loan[] memory)\n    {\n        LoanStructure.Loan[] memory result = new LoanStructure.Loan[](lenderMap[_lender].length);\n        for (uint i = 0; i < lenderMap[_lender].length; i++) {\n            LoanStructure.Loan memory initiatedLoan = loanMap[lenderMap[_lender][i]];\n            result[i] = initiatedLoan;\n        }\n        return result;\n    }\n\n    /**\n     * @dev Get all the initiated loans by a particular borrower (which is the msg.sender)\n     */\n    function getBorrowerLoans(address _borrower) external view\n    AuthenticateSender\n    returns(LoanStructure.Loan[] memory)\n    {\n        LoanStructure.Loan[] memory result = new LoanStructure.Loan[](borrowerMap[_borrower].length);\n        for (uint i = 0; i < borrowerMap[_borrower].length; i++) {\n            LoanStructure.Loan memory initiatedLoan = loanMap[borrowerMap[_borrower][i]];\n            result[i] = initiatedLoan;\n        }\n        return result;\n    }\n\n    /**\n     * @dev Get loan amount of a particular loan agreement\n     */\n    function getLoanAmount(uint256 _loanId) external view\n    AuthenticateSender\n    returns(uint256)\n    {\n        return loanMap[_loanId].loanAmount;\n    }\n\n    /**\n     * @dev Get collateral amount of a particular loan agreement\n     */\n    function getCollateralAmount(uint256 _loanId) external view\n    AuthenticateSender\n    returns(uint256)\n    {\n        return loanMap[_loanId].collateralAmount;\n    }\n\n    /* For testing */\n    function add1(uint8 a, uint8 b) external view\n    AuthenticateSender\n    returns (uint8) {\n        return a + b;\n    }\n\n    function updateLoanRemainingRepaymentCount(uint256 _loanId, uint16 _remainingCount) external isAdmin {\n        loanMap[_loanId].remainingRepaymentCount = _remainingCount;\n    }\n\n}\n",
  "sourcePath": "/Users/AlsieSam/Desktop/DEX/truffle/contracts/CollateralizedLoan.sol",
  "compiler": {
    "name": "solc",
    "version": "0.8.3+commit.8d00100c.Emscripten.clang"
  },
  "schemaVersion": "3.4.3",
  "updatedAt": "2022-03-22T10:58:29.785Z",
  "networkType": "ethereum",
  "devdoc": {
    "details": "Allow the lending of loan in fiat currency with cryptocurrency as collateral",
    "events": {
      "LoanCancelled(uint256,address,uint256)": {
        "details": "Trigger the event when the loan is cancelled"
      },
      "LoanDefaulted(uint256,address,uint256)": {
        "details": "Trigger the event when borrower defaults on a particular loan"
      },
      "LoanDisbursed(uint256,address,uint256,uint256)": {
        "details": "Trigger the event when loan is disbursed to borrower"
      },
      "LoanFullyRepaid(uint256,address,uint256)": {
        "details": "Trigger the event when borrower has fully repaid the loan"
      },
      "LoanInitiated(uint256,address,uint256)": {
        "details": "Trigger the event when agreement of the collateralized loan is made"
      },
      "LoanRepaid(uint256,address,uint256)": {
        "details": "Trigger the event when repayment is made by the borrower"
      },
      "LoanRequested(uint256,address,uint256)": {
        "details": "Trigger the event when borrower raised a request for loan"
      }
    },
    "kind": "dev",
    "methods": {
      "cancelLoan(address,uint256)": {
        "details": "Loan is cancelled by the lender"
      },
      "getBorrowerLoans(address)": {
        "details": "Get all the initiated loans by a particular borrower (which is the msg.sender)"
      },
      "getCollateralAmount(uint256)": {
        "details": "Get collateral amount of a particular loan agreement"
      },
      "getDefaultedLoanIds(uint256)": {
        "details": "Get a list of defaulted loanIds by nextRepaymentDeadline in NextPaymentRecord"
      },
      "getLenderLoans(address)": {
        "details": "Get all the initiated loans by a particular lender (which is the msg.sender)"
      },
      "getLoanAmount(uint256)": {
        "details": "Get loan amount of a particular loan agreement"
      },
      "getLoanDetails(uint256)": {
        "details": "Get loan details by loanId"
      },
      "initiateLoan(address,uint32,uint256,uint16,uint16,uint16,uint32,uint16,uint8,uint8,uint8)": {
        "details": "Initiate the loan offered from lender"
      },
      "recordLoanDefaultEvent(uint256)": {
        "details": "Record the event of loan default"
      },
      "recordLoanFullyRepaidEvent(uint256)": {
        "details": "Record the event of loan default"
      },
      "requestLoan(address,uint256)": {
        "details": "Borrower requests for the loan"
      },
      "updateDisbursedLoanDetails(address,uint256,uint256)": {
        "details": "Record the event of loan disbursement"
      },
      "updateNextLoanRepaymentDetails(uint256,uint256)": {
        "details": "Update the details of the next loan repayment"
      }
    },
    "stateVariables": {
      "borrowerMap": {
        "details": "borrower address => loanId[]"
      },
      "lenderMap": {
        "details": "lender address => loanId[]"
      },
      "loanCount": {
        "details": "Count of latest loanId"
      },
      "loanExistenceMap": {
        "details": "loanId => loanExistence"
      },
      "loanMap": {
        "details": "loanId => Loan"
      },
      "nextPaymentRecordMap": {
        "details": "nextPaymentDeadline => NextPaymentRecord[]"
      }
    },
    "title": "CollateralizedLoan",
    "version": 1
  },
  "userdoc": {
    "kind": "user",
    "methods": {},
    "version": 1
  }
}