{
  "contractName": "CollateralizedLoanGateway",
  "abi": [
    {
      "inputs": [
        {
          "internalType": "address",
          "name": "_collateralizedLoanProxy",
          "type": "address"
        },
        {
          "internalType": "address",
          "name": "_transactionsProxy",
          "type": "address"
        },
        {
          "internalType": "address",
          "name": "_addressManagement",
          "type": "address"
        },
        {
          "internalType": "address",
          "name": "_airnodeAdmin",
          "type": "address"
        },
        {
          "internalType": "address",
          "name": "admin_",
          "type": "address"
        }
      ],
      "stateMutability": "nonpayable",
      "type": "constructor"
    },
    {
      "anonymous": false,
      "inputs": [
        {
          "indexed": false,
          "internalType": "address",
          "name": "previousAdmin",
          "type": "address"
        },
        {
          "indexed": false,
          "internalType": "address",
          "name": "newAdmin",
          "type": "address"
        }
      ],
      "name": "AddressManagementAdminChanged",
      "type": "event"
    },
    {
      "anonymous": false,
      "inputs": [
        {
          "indexed": false,
          "internalType": "uint256",
          "name": "_loanId",
          "type": "uint256"
        },
        {
          "indexed": false,
          "internalType": "address",
          "name": "_borrower",
          "type": "address"
        },
        {
          "indexed": false,
          "internalType": "uint256",
          "name": "_paidTime",
          "type": "uint256"
        }
      ],
      "name": "CollateralPaidback",
      "type": "event"
    },
    {
      "anonymous": false,
      "inputs": [
        {
          "indexed": false,
          "internalType": "uint256",
          "name": "_loanId",
          "type": "uint256"
        },
        {
          "indexed": false,
          "internalType": "address",
          "name": "_lender",
          "type": "address"
        },
        {
          "indexed": false,
          "internalType": "uint256",
          "name": "_sentTime",
          "type": "uint256"
        }
      ],
      "name": "CollateralSentToLender",
      "type": "event"
    },
    {
      "anonymous": false,
      "inputs": [
        {
          "indexed": false,
          "internalType": "address",
          "name": "_address",
          "type": "address"
        },
        {
          "indexed": false,
          "internalType": "uint256",
          "name": "_loanId",
          "type": "uint256"
        },
        {
          "indexed": false,
          "internalType": "uint256",
          "name": "_value",
          "type": "uint256"
        }
      ],
      "name": "EtherCollateralized",
      "type": "event"
    },
    {
      "anonymous": false,
      "inputs": [
        {
          "indexed": false,
          "internalType": "address",
          "name": "_from",
          "type": "address"
        },
        {
          "indexed": false,
          "internalType": "uint256",
          "name": "_value",
          "type": "uint256"
        }
      ],
      "name": "EtherReceived",
      "type": "event"
    },
    {
      "anonymous": false,
      "inputs": [
        {
          "indexed": false,
          "internalType": "address",
          "name": "_address",
          "type": "address"
        },
        {
          "indexed": false,
          "internalType": "uint256",
          "name": "_loanId",
          "type": "uint256"
        },
        {
          "indexed": false,
          "internalType": "uint256",
          "name": "_value",
          "type": "uint256"
        }
      ],
      "name": "EtherReleasedFromVault",
      "type": "event"
    },
    {
      "anonymous": false,
      "inputs": [
        {
          "indexed": false,
          "internalType": "address",
          "name": "_address",
          "type": "address"
        },
        {
          "indexed": false,
          "internalType": "uint256",
          "name": "_value",
          "type": "uint256"
        }
      ],
      "name": "EtherStored",
      "type": "event"
    },
    {
      "anonymous": false,
      "inputs": [
        {
          "indexed": false,
          "internalType": "address",
          "name": "_to",
          "type": "address"
        },
        {
          "indexed": false,
          "internalType": "uint256",
          "name": "_value",
          "type": "uint256"
        }
      ],
      "name": "EtherTransferred",
      "type": "event"
    },
    {
      "anonymous": false,
      "inputs": [
        {
          "indexed": false,
          "internalType": "address",
          "name": "_address",
          "type": "address"
        },
        {
          "indexed": false,
          "internalType": "uint256",
          "name": "_value",
          "type": "uint256"
        }
      ],
      "name": "EtherWithdrawn",
      "type": "event"
    },
    {
      "anonymous": false,
      "inputs": [
        {
          "indexed": false,
          "internalType": "address",
          "name": "_address",
          "type": "address"
        },
        {
          "indexed": false,
          "internalType": "uint256",
          "name": "_value",
          "type": "uint256"
        }
      ],
      "name": "FiatMoneyStored",
      "type": "event"
    },
    {
      "anonymous": false,
      "inputs": [
        {
          "indexed": false,
          "internalType": "address",
          "name": "_from",
          "type": "address"
        },
        {
          "indexed": false,
          "internalType": "address",
          "name": "_to",
          "type": "address"
        },
        {
          "indexed": false,
          "internalType": "uint256",
          "name": "_value",
          "type": "uint256"
        }
      ],
      "name": "FiatMoneyTransferredBetweenAddress",
      "type": "event"
    },
    {
      "anonymous": false,
      "inputs": [
        {
          "indexed": false,
          "internalType": "address",
          "name": "_address",
          "type": "address"
        },
        {
          "indexed": false,
          "internalType": "string",
          "name": "_bankAccountNo",
          "type": "string"
        },
        {
          "indexed": false,
          "internalType": "uint256",
          "name": "_value",
          "type": "uint256"
        }
      ],
      "name": "FiatMoneyTransferredToBank",
      "type": "event"
    },
    {
      "anonymous": false,
      "inputs": [
        {
          "indexed": false,
          "internalType": "address",
          "name": "_address",
          "type": "address"
        },
        {
          "indexed": false,
          "internalType": "uint256",
          "name": "_value",
          "type": "uint256"
        }
      ],
      "name": "FiatMoneyWithdrawn",
      "type": "event"
    },
    {
      "anonymous": false,
      "inputs": [
        {
          "indexed": false,
          "internalType": "uint256",
          "name": "_loanId",
          "type": "uint256"
        },
        {
          "indexed": false,
          "internalType": "address",
          "name": "_lender",
          "type": "address"
        },
        {
          "indexed": false,
          "internalType": "uint256",
          "name": "_cancelTime",
          "type": "uint256"
        }
      ],
      "name": "LoanCancelled",
      "type": "event"
    },
    {
      "anonymous": false,
      "inputs": [
        {
          "indexed": false,
          "internalType": "uint256",
          "name": "_loanId",
          "type": "uint256"
        },
        {
          "indexed": false,
          "internalType": "address",
          "name": "_borrower",
          "type": "address"
        },
        {
          "indexed": false,
          "internalType": "uint256",
          "name": "_checkTime",
          "type": "uint256"
        }
      ],
      "name": "LoanDefaulted",
      "type": "event"
    },
    {
      "anonymous": false,
      "inputs": [
        {
          "indexed": false,
          "internalType": "uint256",
          "name": "_loanId",
          "type": "uint256"
        },
        {
          "indexed": false,
          "internalType": "address",
          "name": "_lender",
          "type": "address"
        },
        {
          "indexed": false,
          "internalType": "uint256",
          "name": "_nextRepaymentDeadline",
          "type": "uint256"
        },
        {
          "indexed": false,
          "internalType": "uint256",
          "name": "_disburseTime",
          "type": "uint256"
        }
      ],
      "name": "LoanDisbursed",
      "type": "event"
    },
    {
      "anonymous": false,
      "inputs": [
        {
          "indexed": false,
          "internalType": "uint256",
          "name": "_loanId",
          "type": "uint256"
        },
        {
          "indexed": false,
          "internalType": "address",
          "name": "_borrower",
          "type": "address"
        },
        {
          "indexed": false,
          "internalType": "uint256",
          "name": "_repaidTime",
          "type": "uint256"
        }
      ],
      "name": "LoanFullyRepaid",
      "type": "event"
    },
    {
      "anonymous": false,
      "inputs": [
        {
          "indexed": false,
          "internalType": "uint256",
          "name": "_loanId",
          "type": "uint256"
        },
        {
          "indexed": false,
          "internalType": "address",
          "name": "_lender",
          "type": "address"
        },
        {
          "indexed": false,
          "internalType": "uint256",
          "name": "_initiatedTime",
          "type": "uint256"
        }
      ],
      "name": "LoanInitiated",
      "type": "event"
    },
    {
      "anonymous": false,
      "inputs": [
        {
          "indexed": false,
          "internalType": "uint256",
          "name": "_loanId",
          "type": "uint256"
        },
        {
          "indexed": false,
          "internalType": "address",
          "name": "_borrower",
          "type": "address"
        },
        {
          "indexed": false,
          "internalType": "uint256",
          "name": "_repaidTime",
          "type": "uint256"
        }
      ],
      "name": "LoanRepaid",
      "type": "event"
    },
    {
      "anonymous": false,
      "inputs": [
        {
          "indexed": false,
          "internalType": "uint256",
          "name": "_loanId",
          "type": "uint256"
        },
        {
          "indexed": false,
          "internalType": "address",
          "name": "_requester",
          "type": "address"
        },
        {
          "indexed": false,
          "internalType": "uint256",
          "name": "_requestedTime",
          "type": "uint256"
        }
      ],
      "name": "LoanRequested",
      "type": "event"
    },
    {
      "stateMutability": "payable",
      "type": "fallback",
      "payable": true
    },
    {
      "inputs": [],
      "name": "addressManagementAdmin",
      "outputs": [
        {
          "internalType": "address",
          "name": "admin_",
          "type": "address"
        }
      ],
      "stateMutability": "view",
      "type": "function",
      "constant": true
    },
    {
      "inputs": [
        {
          "internalType": "address",
          "name": "newAdmin",
          "type": "address"
        }
      ],
      "name": "changeAddressManagementAdmin",
      "outputs": [],
      "stateMutability": "nonpayable",
      "type": "function"
    },
    {
      "inputs": [
        {
          "internalType": "string",
          "name": "contractName",
          "type": "string"
        }
      ],
      "name": "getContractAddress",
      "outputs": [
        {
          "internalType": "address",
          "name": "contractAddress",
          "type": "address"
        }
      ],
      "stateMutability": "view",
      "type": "function",
      "constant": true
    },
    {
      "inputs": [
        {
          "internalType": "string",
          "name": "contractName",
          "type": "string"
        }
      ],
      "name": "getContractAddressByAdmin",
      "outputs": [
        {
          "internalType": "address",
          "name": "contractAddress",
          "type": "address"
        }
      ],
      "stateMutability": "view",
      "type": "function",
      "constant": true
    },
    {
      "inputs": [
        {
          "internalType": "address",
          "name": "contractAddress",
          "type": "address"
        }
      ],
      "name": "getContractNameByAdmin",
      "outputs": [
        {
          "internalType": "string",
          "name": "contractName",
          "type": "string"
        }
      ],
      "stateMutability": "view",
      "type": "function",
      "constant": true
    },
    {
      "inputs": [
        {
          "internalType": "string",
          "name": "contractName",
          "type": "string"
        },
        {
          "internalType": "address",
          "name": "contractAddress",
          "type": "address"
        }
      ],
      "name": "updateContractAddress",
      "outputs": [],
      "stateMutability": "nonpayable",
      "type": "function"
    },
    {
      "stateMutability": "payable",
      "type": "receive",
      "payable": true
    },
    {
      "inputs": [],
      "name": "getCollateralizedLoanProxy",
      "outputs": [
        {
          "internalType": "address",
          "name": "",
          "type": "address"
        }
      ],
      "stateMutability": "view",
      "type": "function",
      "constant": true
    },
    {
      "inputs": [],
      "name": "getTransactionsProxy",
      "outputs": [
        {
          "internalType": "address",
          "name": "",
          "type": "address"
        }
      ],
      "stateMutability": "view",
      "type": "function",
      "constant": true
    },
    {
      "inputs": [],
      "name": "getAddressManagement",
      "outputs": [
        {
          "internalType": "address",
          "name": "",
          "type": "address"
        }
      ],
      "stateMutability": "view",
      "type": "function",
      "constant": true
    },
    {
      "inputs": [],
      "name": "getAirnodeAdmin",
      "outputs": [
        {
          "internalType": "address",
          "name": "",
          "type": "address"
        }
      ],
      "stateMutability": "view",
      "type": "function",
      "constant": true
    },
    {
      "inputs": [
        {
          "internalType": "address",
          "name": "_collateralizedLoanProxy",
          "type": "address"
        }
      ],
      "name": "changeCollateralizedLoanProxy",
      "outputs": [],
      "stateMutability": "nonpayable",
      "type": "function"
    },
    {
      "inputs": [
        {
          "internalType": "address",
          "name": "_transactionsProxy",
          "type": "address"
        }
      ],
      "name": "changeTransactionsProxy",
      "outputs": [],
      "stateMutability": "nonpayable",
      "type": "function"
    },
    {
      "inputs": [
        {
          "internalType": "address",
          "name": "_addressManagement",
          "type": "address"
        }
      ],
      "name": "changeAddressManagement",
      "outputs": [],
      "stateMutability": "nonpayable",
      "type": "function"
    },
    {
      "inputs": [
        {
          "internalType": "address",
          "name": "_airnodeAdmin",
          "type": "address"
        }
      ],
      "name": "changeAirnodeAdmin",
      "outputs": [],
      "stateMutability": "nonpayable",
      "type": "function"
    },
    {
      "inputs": [
        {
          "internalType": "address",
          "name": "_lender",
          "type": "address"
        },
        {
          "internalType": "uint32",
          "name": "_loanAmount",
          "type": "uint32"
        },
        {
          "internalType": "uint256",
          "name": "_collateralAmount",
          "type": "uint256"
        },
        {
          "internalType": "uint16",
          "name": "_loanTerm",
          "type": "uint16"
        },
        {
          "internalType": "uint16",
          "name": "_apr",
          "type": "uint16"
        },
        {
          "internalType": "uint16",
          "name": "_repaymentSchedule",
          "type": "uint16"
        },
        {
          "internalType": "uint32",
          "name": "_monthlyRepayment",
          "type": "uint32"
        },
        {
          "internalType": "uint16",
          "name": "_remainingPaymentCount",
          "type": "uint16"
        },
        {
          "internalType": "uint8",
          "name": "_ltv",
          "type": "uint8"
        },
        {
          "internalType": "uint8",
          "name": "_marginLTV",
          "type": "uint8"
        },
        {
          "internalType": "uint8",
          "name": "_liquidationLTV",
          "type": "uint8"
        }
      ],
      "name": "initiateLoan",
      "outputs": [],
      "stateMutability": "nonpayable",
      "type": "function"
    },
    {
      "inputs": [
        {
          "internalType": "address",
          "name": "_requester",
          "type": "address"
        },
        {
          "internalType": "uint256",
          "name": "_loanId",
          "type": "uint256"
        }
      ],
      "name": "requestLoan",
      "outputs": [],
      "stateMutability": "nonpayable",
      "type": "function"
    },
    {
      "inputs": [
        {
          "internalType": "address",
          "name": "_lender",
          "type": "address"
        },
        {
          "internalType": "uint256",
          "name": "_loanId",
          "type": "uint256"
        }
      ],
      "name": "cancelLoan",
      "outputs": [],
      "stateMutability": "nonpayable",
      "type": "function"
    },
    {
      "inputs": [
        {
          "internalType": "address",
          "name": "_lender",
          "type": "address"
        },
        {
          "internalType": "uint256",
          "name": "_loanId",
          "type": "uint256"
        },
        {
          "internalType": "uint256",
          "name": "_nextRepaymentDeadline",
          "type": "uint256"
        }
      ],
      "name": "disburseLoan",
      "outputs": [],
      "stateMutability": "nonpayable",
      "type": "function"
    },
    {
      "inputs": [
        {
          "internalType": "address",
          "name": "_borrower",
          "type": "address"
        },
        {
          "internalType": "uint256",
          "name": "_loanId",
          "type": "uint256"
        },
        {
          "internalType": "uint256",
          "name": "_payValue",
          "type": "uint256"
        },
        {
          "internalType": "uint256",
          "name": "_nextRepaymentDeadline",
          "type": "uint256"
        }
      ],
      "name": "makeRepaymentByBorrower",
      "outputs": [],
      "stateMutability": "nonpayable",
      "type": "function"
    },
    {
      "inputs": [
        {
          "internalType": "uint256",
          "name": "_nextRepaymentDeadline",
          "type": "uint256"
        }
      ],
      "name": "checkBorrowerDefault",
      "outputs": [],
      "stateMutability": "nonpayable",
      "type": "function"
    },
    {
      "inputs": [
        {
          "internalType": "uint256",
          "name": "_loanId",
          "type": "uint256"
        }
      ],
      "name": "recordLoanDefaultEvent",
      "outputs": [],
      "stateMutability": "nonpayable",
      "type": "function"
    },
    {
      "inputs": [
        {
          "internalType": "uint256",
          "name": "_loanId",
          "type": "uint256"
        }
      ],
      "name": "recordLoanFullyRepaidEvent",
      "outputs": [],
      "stateMutability": "nonpayable",
      "type": "function"
    },
    {
      "inputs": [
        {
          "internalType": "uint256[]",
          "name": "loanIds",
          "type": "uint256[]"
        },
        {
          "internalType": "uint256[]",
          "name": "collateralInUSD",
          "type": "uint256[]"
        },
        {
          "internalType": "uint256[]",
          "name": "collateralPayables",
          "type": "uint256[]"
        }
      ],
      "name": "liquidateLoan",
      "outputs": [],
      "stateMutability": "nonpayable",
      "type": "function"
    },
    {
      "inputs": [
        {
          "internalType": "uint256",
          "name": "_loanId",
          "type": "uint256"
        }
      ],
      "name": "getLoanDetails",
      "outputs": [
        {
          "components": [
            {
              "internalType": "uint256",
              "name": "loanId",
              "type": "uint256"
            },
            {
              "internalType": "uint32",
              "name": "loanAmount",
              "type": "uint32"
            },
            {
              "internalType": "uint256",
              "name": "collateralAmount",
              "type": "uint256"
            },
            {
              "internalType": "address",
              "name": "borrower",
              "type": "address"
            },
            {
              "internalType": "address",
              "name": "lender",
              "type": "address"
            },
            {
              "internalType": "enum LoanStructure.LoanStatus",
              "name": "loanStatus",
              "type": "uint8"
            },
            {
              "internalType": "uint16",
              "name": "loanTerm",
              "type": "uint16"
            },
            {
              "internalType": "uint16",
              "name": "apr",
              "type": "uint16"
            },
            {
              "internalType": "uint16",
              "name": "repaymentSchedule",
              "type": "uint16"
            },
            {
              "internalType": "uint32",
              "name": "monthlyRepaymentAmount",
              "type": "uint32"
            },
            {
              "internalType": "uint16",
              "name": "remainingRepaymentCount",
              "type": "uint16"
            },
            {
              "internalType": "uint256",
              "name": "nextRepaymentDeadline",
              "type": "uint256"
            },
            {
              "internalType": "uint8",
              "name": "initialLTV",
              "type": "uint8"
            },
            {
              "internalType": "uint8",
              "name": "marginLTV",
              "type": "uint8"
            },
            {
              "internalType": "uint8",
              "name": "liquidationLTV",
              "type": "uint8"
            },
            {
              "internalType": "uint256",
              "name": "createTime",
              "type": "uint256"
            },
            {
              "internalType": "uint256",
              "name": "lastUpdateTime",
              "type": "uint256"
            }
          ],
          "internalType": "struct LoanStructure.Loan",
          "name": "",
          "type": "tuple"
        }
      ],
      "stateMutability": "nonpayable",
      "type": "function"
    },
    {
      "inputs": [
        {
          "internalType": "address",
          "name": "_lender",
          "type": "address"
        }
      ],
      "name": "getLenderLoans",
      "outputs": [
        {
          "components": [
            {
              "internalType": "uint256",
              "name": "loanId",
              "type": "uint256"
            },
            {
              "internalType": "uint32",
              "name": "loanAmount",
              "type": "uint32"
            },
            {
              "internalType": "uint256",
              "name": "collateralAmount",
              "type": "uint256"
            },
            {
              "internalType": "address",
              "name": "borrower",
              "type": "address"
            },
            {
              "internalType": "address",
              "name": "lender",
              "type": "address"
            },
            {
              "internalType": "enum LoanStructure.LoanStatus",
              "name": "loanStatus",
              "type": "uint8"
            },
            {
              "internalType": "uint16",
              "name": "loanTerm",
              "type": "uint16"
            },
            {
              "internalType": "uint16",
              "name": "apr",
              "type": "uint16"
            },
            {
              "internalType": "uint16",
              "name": "repaymentSchedule",
              "type": "uint16"
            },
            {
              "internalType": "uint32",
              "name": "monthlyRepaymentAmount",
              "type": "uint32"
            },
            {
              "internalType": "uint16",
              "name": "remainingRepaymentCount",
              "type": "uint16"
            },
            {
              "internalType": "uint256",
              "name": "nextRepaymentDeadline",
              "type": "uint256"
            },
            {
              "internalType": "uint8",
              "name": "initialLTV",
              "type": "uint8"
            },
            {
              "internalType": "uint8",
              "name": "marginLTV",
              "type": "uint8"
            },
            {
              "internalType": "uint8",
              "name": "liquidationLTV",
              "type": "uint8"
            },
            {
              "internalType": "uint256",
              "name": "createTime",
              "type": "uint256"
            },
            {
              "internalType": "uint256",
              "name": "lastUpdateTime",
              "type": "uint256"
            }
          ],
          "internalType": "struct LoanStructure.Loan[]",
          "name": "",
          "type": "tuple[]"
        }
      ],
      "stateMutability": "nonpayable",
      "type": "function"
    },
    {
      "inputs": [
        {
          "internalType": "address",
          "name": "_borrower",
          "type": "address"
        }
      ],
      "name": "getBorrowerLoans",
      "outputs": [
        {
          "components": [
            {
              "internalType": "uint256",
              "name": "loanId",
              "type": "uint256"
            },
            {
              "internalType": "uint32",
              "name": "loanAmount",
              "type": "uint32"
            },
            {
              "internalType": "uint256",
              "name": "collateralAmount",
              "type": "uint256"
            },
            {
              "internalType": "address",
              "name": "borrower",
              "type": "address"
            },
            {
              "internalType": "address",
              "name": "lender",
              "type": "address"
            },
            {
              "internalType": "enum LoanStructure.LoanStatus",
              "name": "loanStatus",
              "type": "uint8"
            },
            {
              "internalType": "uint16",
              "name": "loanTerm",
              "type": "uint16"
            },
            {
              "internalType": "uint16",
              "name": "apr",
              "type": "uint16"
            },
            {
              "internalType": "uint16",
              "name": "repaymentSchedule",
              "type": "uint16"
            },
            {
              "internalType": "uint32",
              "name": "monthlyRepaymentAmount",
              "type": "uint32"
            },
            {
              "internalType": "uint16",
              "name": "remainingRepaymentCount",
              "type": "uint16"
            },
            {
              "internalType": "uint256",
              "name": "nextRepaymentDeadline",
              "type": "uint256"
            },
            {
              "internalType": "uint8",
              "name": "initialLTV",
              "type": "uint8"
            },
            {
              "internalType": "uint8",
              "name": "marginLTV",
              "type": "uint8"
            },
            {
              "internalType": "uint8",
              "name": "liquidationLTV",
              "type": "uint8"
            },
            {
              "internalType": "uint256",
              "name": "createTime",
              "type": "uint256"
            },
            {
              "internalType": "uint256",
              "name": "lastUpdateTime",
              "type": "uint256"
            }
          ],
          "internalType": "struct LoanStructure.Loan[]",
          "name": "",
          "type": "tuple[]"
        }
      ],
      "stateMutability": "nonpayable",
      "type": "function"
    },
    {
      "inputs": [
        {
          "internalType": "address",
          "name": "_address",
          "type": "address"
        },
        {
          "internalType": "uint256",
          "name": "_value",
          "type": "uint256"
        }
      ],
      "name": "storeEther",
      "outputs": [],
      "stateMutability": "nonpayable",
      "type": "function"
    },
    {
      "inputs": [
        {
          "internalType": "address",
          "name": "_address",
          "type": "address"
        },
        {
          "internalType": "uint256",
          "name": "_value",
          "type": "uint256"
        }
      ],
      "name": "storeFiatMoney",
      "outputs": [],
      "stateMutability": "nonpayable",
      "type": "function"
    },
    {
      "inputs": [
        {
          "internalType": "address payable",
          "name": "_address",
          "type": "address"
        },
        {
          "internalType": "uint256",
          "name": "_value",
          "type": "uint256"
        }
      ],
      "name": "withdrawEther",
      "outputs": [],
      "stateMutability": "nonpayable",
      "type": "function"
    },
    {
      "inputs": [
        {
          "internalType": "address",
          "name": "_address",
          "type": "address"
        },
        {
          "internalType": "uint256",
          "name": "_value",
          "type": "uint256"
        }
      ],
      "name": "withdrawFiatMoney",
      "outputs": [],
      "stateMutability": "nonpayable",
      "type": "function"
    },
    {
      "inputs": [
        {
          "internalType": "address",
          "name": "_address",
          "type": "address"
        }
      ],
      "name": "checkEtherBalanceAmount",
      "outputs": [
        {
          "internalType": "uint256",
          "name": "",
          "type": "uint256"
        }
      ],
      "stateMutability": "nonpayable",
      "type": "function"
    },
    {
      "inputs": [
        {
          "internalType": "address",
          "name": "_address",
          "type": "address"
        }
      ],
      "name": "checkFiatBalanceAmount",
      "outputs": [
        {
          "internalType": "uint256",
          "name": "",
          "type": "uint256"
        }
      ],
      "stateMutability": "nonpayable",
      "type": "function"
    },
    {
      "inputs": [
        {
          "internalType": "address",
          "name": "_requester",
          "type": "address"
        },
        {
          "internalType": "string",
          "name": "_bankAccountNo",
          "type": "string"
        },
        {
          "internalType": "uint256",
          "name": "_value",
          "type": "uint256"
        }
      ],
      "name": "transferFiatMoneyBackToBank",
      "outputs": [],
      "stateMutability": "nonpayable",
      "type": "function"
    },
    {
      "inputs": [
        {
          "internalType": "address payable",
          "name": "_lender",
          "type": "address"
        },
        {
          "internalType": "uint256",
          "name": "_value",
          "type": "uint256"
        }
      ],
      "name": "transferEther",
      "outputs": [],
      "stateMutability": "nonpayable",
      "type": "function"
    },
    {
      "inputs": [],
      "name": "add1",
      "outputs": [
        {
          "internalType": "uint8",
          "name": "",
          "type": "uint8"
        }
      ],
      "stateMutability": "nonpayable",
      "type": "function"
    },
    {
      "inputs": [],
      "name": "add2",
      "outputs": [
        {
          "internalType": "uint8",
          "name": "",
          "type": "uint8"
        }
      ],
      "stateMutability": "nonpayable",
      "type": "function"
    },
    {
      "inputs": [
        {
          "internalType": "uint256",
          "name": "_loanId",
          "type": "uint256"
        },
        {
          "internalType": "uint16",
          "name": "_remainingCount",
          "type": "uint16"
        }
      ],
      "name": "updateLoanRemainingRepaymentCount",
      "outputs": [],
      "stateMutability": "nonpayable",
      "type": "function"
    }
  ],
  "bytecode": "0x60806040523480156200001157600080fd5b50604051620040b1380380620040b18339810160408190526200003491620000e0565b8062000049816401000000006200009f810204565b505060028054600160a060020a03958616600160a060020a03199182161790915560038054948616948216949094179093556004805492851692841692909217909155600580549190931691161790556200014f565b7faf3ccdab63767d83181d2ac8c40c256cce5f7d52dd79fa93eadafa27d81b942e55565b8051600160a060020a0381168114620000db57600080fd5b919050565b600080600080600060a08688031215620000f8578081fd5b6200010386620000c3565b94506200011360208701620000c3565b93506200012360408701620000c3565b92506200013360608701620000c3565b91506200014360808701620000c3565b90509295509295909350565b613f52806200015f6000396000f3fe60806040526004361061023a576000357c0100000000000000000000000000000000000000000000000000000000900480637c46499b116101405780639f8c0234116100c8578063d771edf31161008c578063d771edf314610691578063eee8b7ff146106a6578063eeeb0c17146106d3578063f92eecc1146106f3578063fb58e69c146107135761027a565b80639f8c0234146105e4578063a241180e14610604578063a7cc787a14610624578063bb3c4c2314610651578063be921c9d146106715761027a565b80638e493b2d1161010f5780638e493b2d1461055a578063947771111461057a578063990b16491461058f5780639a09fb76146105a45780639c3f71cc146105c45761027a565b80637c46499b146104e5578063875a47c3146105055780638d197a7a146105255780638d81d2351461053a5761027a565b80631f7e98e4116101c3578063522f681511610192578063522f68151461044e578063565bbbd21461046e5780635c1e63781461048e57806366877b8d146104a35780636c1f222f146104d05761027a565b80631f7e98e4146103ce57806338aed2f7146103ee5780633b9e9e1a1461040e5780633efb70471461042e5761027a565b80630cfe9ad51161020a5780630cfe9ad5146103205780631283ea241461034e5780631b2daa841461036e5780631cabfeb01461038e5780631f06e788146103ae5761027a565b806235921a1461027c57806304433bbc146102a8578063059eac9a146102e057806305b1137b146103005761027a565b3661027a577f1e57e3bb474320be3d2c77138f75b7c3941292d647f5f9634e33a8e94e0e069b3334604051610270929190613ba5565b60405180910390a1005b005b34801561028857600080fd5b50610291610733565b60405160ff90911681526020015b60405180910390f35b3480156102b457600080fd5b506102c86102c3366004613903565b6107de565b604051600160a060020a03909116815260200161029f565b3480156102ec57600080fd5b5061027a6102fb36600461353c565b610830565b34801561030c57600080fd5b5061027a61031b366004613558565b61087d565b34801561032c57600080fd5b5061034061033b36600461353c565b610984565b60405190815260200161029f565b34801561035a57600080fd5b5061027a61036936600461353c565b610a1b565b34801561037a57600080fd5b5061034061038936600461353c565b610a69565b34801561039a57600080fd5b5061027a6103a93660046135ec565b610ae3565b3480156103ba57600080fd5b5061027a6103c93660046135da565b61102a565b3480156103da57600080fd5b5061027a6103e93660046135da565b6110e2565b3480156103fa57600080fd5b5061027a61040936600461393e565b61118a565b34801561041a57600080fd5b5061027a61042936600461385f565b611218565b34801561043a57600080fd5b5061027a6104493660046139aa565b61193c565b34801561045a57600080fd5b5061027a610469366004613558565b611aa7565b34801561047a57600080fd5b5061027a61048936600461353c565b611bf3565b34801561049a57600080fd5b506102c8611c41565b3480156104af57600080fd5b506104c36104be3660046139aa565b611c76565b60405161029f9190613d51565b3480156104dc57600080fd5b50610291611d66565b3480156104f157600080fd5b5061027a6105003660046135da565b611dee565b34801561051157600080fd5b5061027a610520366004613583565b611e97565b34801561053157600080fd5b506102c8611f50565b34801561054657600080fd5b5061027a6105553660046135da565b611f85565b34801561056657600080fd5b5061027a610575366004613620565b61202c565b34801561058657600080fd5b506102c8612525565b34801561059b57600080fd5b506102c861255a565b3480156105b057600080fd5b5061027a6105bf36600461353c565b61258c565b3480156105d057600080fd5b5061027a6105df3660046139aa565b6125da565b3480156105f057600080fd5b5061027a6105ff3660046139da565b612735565b34801561061057600080fd5b5061027a61061f36600461365a565b6127c5565b34801561063057600080fd5b5061064461063f36600461353c565b6128fb565b60405161029f9190613c84565b34801561065d57600080fd5b5061027a61066c3660046135da565b6129c6565b34801561067d57600080fd5b506102c861068c366004613903565b612a6d565b34801561069d57600080fd5b506102c8612aa0565b3480156106b257600080fd5b506106c66106c136600461353c565b612ad5565b60405161029f9190613c35565b3480156106df57600080fd5b506106c66106ee36600461353c565b612b62565b3480156106ff57600080fd5b5061027a61070e36600461353c565b612bdc565b34801561071f57600080fd5b5061027a61072e3660046139aa565b612cf4565b600061073d61309f565b600160a060020a031633600160a060020a031614156107d657604051600360248201526005604482015260009060640160408051601f19818403018152919052602081018051600160e060020a03167f813b9f3c0000000000000000000000000000000000000000000000000000000017905290506107bb816130c4565b8060200190518101906107ce91906139fe565b9150506107db565b600080fd5b90565b33600090815260016020526040812080546107f890613e51565b1590506107d65760008260405161080f9190613b89565b90815260405190819003602001902054600160a060020a031690505b919050565b61083861309f565b600160a060020a031633600160a060020a031614156107d6576002805473ffffffffffffffffffffffffffffffffffffffff1916600160a060020a0383161790555b50565b600554600160a060020a0316331415610935576000600160a060020a0383166108fc6108aa846001613dda565b6040518115909202916000818181858888f193505050509050806108ec5760405160e560020a62461bcd0281526004016108e390613cf4565b60405180910390fd5b7f2bd8874aee0f667380057c67e3a812157e4b7649b244d6fcbc9094a9a1f7ee1d83610919846001613dda565b604051610927929190613ba5565b60405180910390a150610980565b60405160e560020a62461bcd02815260206004820152600c60248201527f556e617574686f72697a6564000000000000000000000000000000000000000060448201526064016108e3565b5050565b60008133600160a060020a038216141561093557604051600160a060020a038416602482015260009060440160408051601f19818403018152919052602081018051600160e060020a03167f0cfe9ad50000000000000000000000000000000000000000000000000000000017905290506109fe816131a4565b806020019051810190610a1191906139c2565b9250505b50919050565b610a2361309f565b600160a060020a031633600160a060020a031614156107d6576005805473ffffffffffffffffffffffffffffffffffffffff1916600160a060020a03831617905561087a565b60008133600160a060020a038216141561093557604051600160a060020a038416602482015260009060440160408051601f19818403018152919052602081018051600160e060020a03167f1b2daa840000000000000000000000000000000000000000000000000000000017905290506109fe816131a4565b8233600160a060020a038216141561093557600083604051602401610b0a91815260200190565b60408051601f19818403018152919052602081018051600160e060020a031660e060020a6366877b8d0217905290506000610b44826130c4565b806020019051810190610b57919061398e565b6080810151604051600160a060020a03909116602482015290915060009060440160408051601f19818403018152919052602081018051600160e060020a03167f1b2daa840000000000000000000000000000000000000000000000000000000017905290506000610bc8826131a4565b806020019051810190610bdb91906139c2565b6060840151604051600160a060020a03909116602482015290915060009060440160408051601f19818403018152919052602081018051600160e060020a03167f0cfe9ad50000000000000000000000000000000000000000000000000000000017905290506000610c4c826131a4565b806020019051810190610c5f91906139c2565b90508460800151600160a060020a03168a600160a060020a031614610cef5760405160e560020a62461bcd02815260206004820152602860248201527f4c6f616e206973206e6f742064697362757273656420627920746865206c6f6160448201527f6e206c656e64657200000000000000000000000000000000000000000000000060648201526084016108e3565b846020015163ffffffff16831015610d725760405160e560020a62461bcd02815260206004820152602860248201527f4c656e64657220646f6573206e6f74206861766520656e6f756768206669617460448201527f2062616c616e636500000000000000000000000000000000000000000000000060648201526084016108e3565b8460400151811015610def5760405160e560020a62461bcd02815260206004820152602b60248201527f426f72726f77657220646f6573206e6f74206861766520656e6f75676820457460448201527f6865722062616c616e636500000000000000000000000000000000000000000060648201526084016108e3565b600085608001518660600151876020015163ffffffff16604051602401610e1893929190613bbe565b60408051601f19818403018152919052602081018051600160e060020a03167ff9e0e6ca000000000000000000000000000000000000000000000000000000001790529050610e66816131a4565b507f4aca5d6189468c3d6b1fc7d98eefcfcec86a5ba3d337cf2e50f86cacf004149886608001518760600151886020015163ffffffff16604051610eac93929190613bbe565b60405180910390a1600086606001518b8860400151604051602401610ed393929190613c14565b60408051601f19818403018152919052602081018051600160e060020a03167f10455b79000000000000000000000000000000000000000000000000000000001790529050610f21816131a4565b507f8f63f616e2afaa47e9646ebf47e270fdb9b8b820a2f2a5b1627f4230f4beef8a87606001518c8960400151604051610f5d93929190613c14565b60405180910390a160008c8c8c604051602401610f7c93929190613c14565b60408051601f19818403018152919052602081018051600160e060020a03167f84f81e55000000000000000000000000000000000000000000000000000000001790529050610fca816130c4565b50604080518d8152600160a060020a038f1660208201529081018c90524260608201527fa17f99bd4547aa4c1ccc3829b6f6b53285043ac310a536743995ea2ae594520f9060800160405180910390a15050505050505050505b50505050565b8133600160a060020a03821614156109355760008383604051602401611051929190613ba5565b60408051601f19818403018152919052602081018051600160e060020a03167f1f06e78800000000000000000000000000000000000000000000000000000000179052905061109f816130c4565b507f54d0421e3881582d5c6f6e39165066b99e8b4be494d5994f67fd3605218928018385426040516110d393929190613d66565b60405180910390a1505b505050565b600554600160a060020a0316331415610935576000828260405160240161110a929190613ba5565b60408051601f19818403018152919052602081018051600160e060020a03167f1f7e98e4000000000000000000000000000000000000000000000000000000001790529050611158816131a4565b507fddb9af1698f4a38b4995d67906e95053737f40a4dc0a9519ad890007565f3d8b8383604051610927929190613ba5565b61119261309f565b600160a060020a031633600160a060020a031614156107d657806000836040516111bc9190613b89565b9081526040805160209281900383019020805473ffffffffffffffffffffffffffffffffffffffff1916600160a060020a039485161790559183166000908152600182529190912083516112129285019061325e565b50610980565b600554600160a060020a03163314156109355760005b835181101561193657600084828151811061125c5760e060020a634e487b7102600052603260045260246000fd5b602002602001015160405160240161127691815260200190565b60408051601f19818403018152919052602081018051600160e060020a031660e060020a6366877b8d02179052905060006112b0826130c4565b8060200190518101906112c3919061398e565b9050600081610120015182610140015161ffff166112e19190613df9565b63ffffffff169050600087858151811061130e5760e060020a634e487b7102600052603260045260246000fd5b602002602001015160405160240161132891815260200190565b60408051601f19818403018152919052602081018051600160e060020a03167f9be8a2a70000000000000000000000000000000000000000000000000000000017905290506000611378826131a4565b80602001905181019061138b91906139c2565b9050828887815181106113b15760e060020a634e487b7102600052603260045260246000fd5b6020026020010151106116b65760008987815181106113e35760e060020a634e487b7102600052603260045260246000fd5b602002602001015182604051602401611406929190918252602082015260400190565b60408051601f19818403018152919052602081018051600160e060020a03167f920eaac6000000000000000000000000000000000000000000000000000000001790529050611454816131a4565b50600085608001518560405160240161146e929190613ba5565b60408051601f19818403018152919052602081018051600160e060020a03167fbb3c4c230000000000000000000000000000000000000000000000000000000017905290506114bc816131a4565b50600086606001518a8a815181106114e75760e060020a634e487b7102600052603260045260246000fd5b6020026020010151604051602401611500929190613ba5565b60408051601f19818403018152919052602081018051600160e060020a03167f8d81d23500000000000000000000000000000000000000000000000000000000179052905061154e816131a4565b507f1f5217c98c4d3671084037e761604fbbd42589c41eb45bfab0157d77986acee087606001518b8b815181106115985760e060020a634e487b7102600052603260045260246000fd5b60200260200101516040516115ae929190613ba5565b60405180910390a160008c8a815181106115db5760e060020a634e487b7102600052603260045260246000fd5b60200260200101516040516024016115f591815260200190565b60408051601f19818403018152919052602081018051600160e060020a03167f9c3f71cc000000000000000000000000000000000000000000000000000000001790529050611643816130c4565b507f3d60126fde9e8e802286d4b172355dd415d5121b60d4789a304aa7c10069116c8d8b815181106116885760e060020a634e487b7102600052603260045260246000fd5b60200260200101518960600151426040516116a593929190613d66565b60405180910390a15050505061191e565b600084608001518a88815181106116e05760e060020a634e487b7102600052603260045260246000fd5b602002602001015186604001516040516024016116ff93929190613c14565b60408051601f19818403018152919052602081018051600160e060020a03167fb279f76f00000000000000000000000000000000000000000000000000000000179052905061174d816131a4565b507fd229488d32e80c1c999ec8566823f6e2fabdac74b39ea72cf5542075188392c485608001518b89815181106117975760e060020a634e487b7102600052603260045260246000fd5b602002602001015187604001516040516117b393929190613c14565b60405180910390a160008a88815181106117e05760e060020a634e487b7102600052603260045260246000fd5b60200260200101516040516024016117fa91815260200190565b60408051601f19818403018152919052602081018051600160e060020a03167f3efb7047000000000000000000000000000000000000000000000000000000001790529050611848816130c4565b507f2d6de712d035bfecc1593860af7eae0831e978cab3cd96f778478b1fdc443bc38b898151811061188d5760e060020a634e487b7102600052603260045260246000fd5b60200260200101518760600151426040516118aa93929190613d66565b60405180910390a17fed1eee41741b53b08d72014ce1014368cbd4d6052cd5063bb1a8215ee5bcd3e68b89815181106118f65760e060020a634e487b7102600052603260045260246000fd5b602002602001015187608001514260405161191393929190613d66565b60405180910390a150505b5050505050808061192e90613e89565b91505061122e565b506110dd565b600554600160a060020a03163314156109355760008160405160240161196491815260200190565b60408051601f19818403018152919052602081018051600160e060020a031660e060020a6366877b8d021790529050600061199e826130c4565b8060200190518101906119b1919061398e565b905060038160a0015160058111156119dc5760e060020a634e487b7102600052602160045260246000fd5b146119fc5760405160e560020a62461bcd0281526004016108e390613c97565b600083604051602401611a1191815260200190565b60408051601f19818403018152919052602081018051600160e060020a03167f3efb7047000000000000000000000000000000000000000000000000000000001790529050611a5f816130c4565b507f2d6de712d035bfecc1593860af7eae0831e978cab3cd96f778478b1fdc443bc384836060015142604051611a9793929190613d66565b60405180910390a150505061087a565b8133600160a060020a03821614156109355760008383604051602401611ace929190613ba5565b60408051601f19818403018152919052602081018051600160e060020a03167f522f6815000000000000000000000000000000000000000000000000000000001790529050611b1c816131a4565b506000600160a060020a0385166108fc611b37866001613dda565b6040518115909202916000818181858888f19350505050905080611b705760405160e560020a62461bcd0281526004016108e390613cf4565b7f2bd8874aee0f667380057c67e3a812157e4b7649b244d6fcbc9094a9a1f7ee1d85611b9d866001613dda565b604051611bab929190613ba5565b60405180910390a17f06097061aeda806b5e9cb4133d9899f332ff0913956567fc0f7ea15e3d19947c8585604051611be4929190613ba5565b60405180910390a150506110dd565b611bfb61309f565b600160a060020a031633600160a060020a031614156107d6576003805473ffffffffffffffffffffffffffffffffffffffff1916600160a060020a03831617905561087a565b6000611c4b61309f565b600160a060020a031633600160a060020a031614156107d65750600554600160a060020a03166107db565b6040805161022081018252600080825260208201819052918101829052606081018290526080810182905260a0810182905260c0810182905260e08101829052610100810182905261012081018290526101408101829052610160810182905261018081018290526101a081018290526101c081018290526101e08101829052610200810191909152600082604051602401611d1491815260200190565b60408051601f19818403018152919052602081018051600160e060020a031660e060020a6366877b8d021790529050611d4c816130c4565b806020019051810190611d5f919061398e565b9392505050565b6000611d7061309f565b600160a060020a031633600160a060020a031614156107d657604051600260248201526004604482015260009060640160408051601f19818403018152919052602081018051600160e060020a03167f54d492c10000000000000000000000000000000000000000000000000000000017905290506107bb816131a4565b8133600160a060020a03821614156109355760008383604051602401611e15929190613ba5565b60408051601f19818403018152919052602081018051600160e060020a03167f7c46499b000000000000000000000000000000000000000000000000000000001790529050611e63816130c4565b507f97e04be2fd6414727fe9d0400464568f4384aa8b06264119565ca8f6cc2a4b7a8385426040516110d393929190613d66565b8233600160a060020a0382161415610935576000848484604051602401611ec093929190613be2565b60408051601f19818403018152919052602081018051600160e060020a03167f875a47c3000000000000000000000000000000000000000000000000000000001790529050611f0e816131a4565b507ffa341ba9e9867c41f99413aa604717de7eecbd94380d7260d78a6b040d7f4867858585604051611f4293929190613be2565b60405180910390a150611024565b6000611f5a61309f565b600160a060020a031633600160a060020a031614156107d65750600454600160a060020a03166107db565b8133600160a060020a03821614156109355760008383604051602401611fac929190613ba5565b60408051601f19818403018152919052602081018051600160e060020a03167f8d81d235000000000000000000000000000000000000000000000000000000001790529050611ffa816131a4565b507f1f5217c98c4d3671084037e761604fbbd42589c41eb45bfab0157d77986acee084846040516110d3929190613ba5565b8333600160a060020a03821614156109355760008460405160240161205391815260200190565b60408051601f19818403018152919052602081018051600160e060020a031660e060020a6366877b8d021790529050600061208d826130c4565b8060200190518101906120a0919061398e565b905080610120015163ffffffff1685146121255760405160e560020a62461bcd02815260206004820152603e60248201527f52657061796d656e742076616c7565206973206e6f742073616d65206173206160448201527f6772656564206d6f6e74686c792072657061796d656e7420616d6f756e74000060648201526084016108e3565b8060600151600160a060020a031687600160a060020a0316146121b35760405160e560020a62461bcd02815260206004820152602a60248201527f52657061796d656e74206973206e6f74206d61646520627920746865206c6f6160448201527f6e20626f72726f7765720000000000000000000000000000000000000000000060648201526084016108e3565b6060810151604051600160a060020a03909116602482015260009060440160408051601f19818403018152919052602081018051600160e060020a03167f1b2daa840000000000000000000000000000000000000000000000000000000017905290506000612221826131a4565b80602001905181019061223491906139c2565b905082610120015163ffffffff168110156122ba5760405160e560020a62461bcd02815260206004820152602a60248201527f426f72726f77657220646f6573206e6f74206861766520656e6f75676820666960448201527f61742062616c616e63650000000000000000000000000000000000000000000060648201526084016108e3565b600083606001518460800151896040516024016122d993929190613bbe565b60408051601f19818403018152919052602081018051600160e060020a03167ff9e0e6ca000000000000000000000000000000000000000000000000000000001790529050612327816131a4565b507f4aca5d6189468c3d6b1fc7d98eefcfcec86a5ba3d337cf2e50f86cacf0041498846060015185608001518a60405161236393929190613bbe565b60405180910390a1604051602481018a90526044810188905260009060640160408051601f19818403018152919052602081018051600160e060020a03167f7ffa8b5c00000000000000000000000000000000000000000000000000000000179052905060006123d2826130c4565b8060200190518101906123e591906138e3565b905080156124db5760008c8c886040015160405160240161240893929190613c14565b60408051601f19818403018152919052602081018051600160e060020a03167fb279f76f000000000000000000000000000000000000000000000000000000001790529050612456816131a4565b507fd229488d32e80c1c999ec8566823f6e2fabdac74b39ea72cf5542075188392c48d8d896040015160405161248e93929190613c14565b60405180910390a17f3d60126fde9e8e802286d4b172355dd415d5121b60d4789a304aa7c10069116c8c8860600151426040516124cd93929190613d66565b60405180910390a150612517565b7f512d3e65b3e58c2187bb1872aa435dba5bd09c1c03823ba56ab70aac411e4a218b8d4260405161250e93929190613d66565b60405180910390a15b505050505050505050505050565b600061252f61309f565b600160a060020a031633600160a060020a031614156107d65750600254600160a060020a03166107db565b600061256461309f565b600160a060020a031633600160a060020a031614156107d65761258561309f565b90506107db565b61259461309f565b600160a060020a031633600160a060020a031614156107d6576004805473ffffffffffffffffffffffffffffffffffffffff1916600160a060020a03831617905561087a565b600554600160a060020a03163314156109355760008160405160240161260291815260200190565b60408051601f19818403018152919052602081018051600160e060020a031660e060020a6366877b8d021790529050600061263c826130c4565b80602001905181019061264f919061398e565b905060038160a00151600581111561267a5760e060020a634e487b7102600052602160045260246000fd5b1461269a5760405160e560020a62461bcd0281526004016108e390613c97565b6000836040516024016126af91815260200190565b60408051601f19818403018152919052602081018051600160e060020a03167f9c3f71cc0000000000000000000000000000000000000000000000000000000017905290506126fd816130c4565b507f3d60126fde9e8e802286d4b172355dd415d5121b60d4789a304aa7c10069116c84836060015142604051611a9793929190613d66565b61273d61309f565b600160a060020a031633600160a060020a031614156107d6576040516024810183905261ffff8216604482015260009060640160408051601f19818403018152919052602081018051600160e060020a03167f9f8c02340000000000000000000000000000000000000000000000000000000017905290506127be816130c4565b5050610980565b8a33600160a060020a038216141561093557604051600160a060020a038d16602482015263ffffffff808d166044830152606482018c905261ffff808c166084840152808b1660a4840152808a1660c484015290881660e4830152861661010482015260ff80861661012483015280851661014483015283166101648201526000906101840160408051601f19818403018152919052602081018051600160e060020a03167fa241180e000000000000000000000000000000000000000000000000000000001790529050600061289b826130c4565b8060200190518101906128ae91906139c2565b90507f289f3c222551c24eff143386380eef80567f9e791ca043b8e19d530ff5e5c25e818f426040516128e393929190613d66565b60405180910390a15050505050505050505050505050565b606061290561309f565b600160a060020a031633600160a060020a031614156107d657600160a060020a0382166000908152600160205260409020805461294190613e51565b80601f016020809104026020016040519081016040528092919081815260200182805461296d90613e51565b80156129ba5780601f1061298f576101008083540402835291602001916129ba565b820191906000526020600020905b81548152906001019060200180831161299d57829003601f168201915b5050505050905061082b565b8133600160a060020a038216141561093557600083836040516024016129ed929190613ba5565b60408051601f19818403018152919052602081018051600160e060020a03167fbb3c4c23000000000000000000000000000000000000000000000000000000001790529050612a3b816131a4565b507f7bd6c3e67beeeb48468105ca1a46d301b4c3d04bd211d2cc298e7bfd1b26223e84846040516110d3929190613ba5565b6000612a7761309f565b600160a060020a031633600160a060020a031614156107d65760008260405161080f9190613b89565b6000612aaa61309f565b600160a060020a031633600160a060020a031614156107d65750600354600160a060020a03166107db565b60608133600160a060020a038216141561093557604051600160a060020a038416602482015260009060440160408051601f19818403018152919052602081018051600160e060020a03167feee8b7ff000000000000000000000000000000000000000000000000000000001790529050612b4f816130c4565b806020019051810190610a119190613730565b60608133600160a060020a038216141561093557604051600160a060020a038416602482015260009060440160408051601f19818403018152919052602081018051600160e060020a03167feeeb0c17000000000000000000000000000000000000000000000000000000001790529050612b4f816130c4565b612be461309f565b600160a060020a031633600160a060020a031614156107d657600160a060020a038116612c7c5760405160e560020a62461bcd02815260206004820152603260248201527f5472616e73706172656e7455706772616461626c6550726f78793a206e65772060448201527f61646d696e20697320616464726573732030000000000000000000000000000060648201526084016108e3565b7f1fcd9f8f9240447000d2e6d16dc98e443b2ff6561f5fc7c704e3f765f0ae37e8612ca561309f565b60408051600160a060020a03928316815291841660208301520160405180910390a1612cef817faf3ccdab63767d83181d2ac8c40c256cce5f7d52dd79fa93eadafa27d81b942e55565b61087a565b600554600160a060020a031633141561093557600081604051602401612d1c91815260200190565b60408051601f19818403018152919052602081018051600160e060020a03167fc27ee0f90000000000000000000000000000000000000000000000000000000017905290506000612d6c826130c4565b806020019051810190612d7f91906137cf565b905060005b8151811015613097576000828281518110612db25760e060020a634e487b7102600052603260045260246000fd5b6020026020010151604051602401612dcc91815260200190565b60408051601f19818403018152919052602081018051600160e060020a031660e060020a6366877b8d0217905290506000612e06826130c4565b806020019051810190612e19919061398e565b905060008160800151858581518110612e455760e060020a634e487b7102600052603260045260246000fd5b60200260200101518360400151604051602401612e6493929190613c14565b60408051601f19818403018152919052602081018051600160e060020a03167fb279f76f000000000000000000000000000000000000000000000000000000001790529050612eb2816131a4565b507fd229488d32e80c1c999ec8566823f6e2fabdac74b39ea72cf5542075188392c48260800151868681518110612efc5760e060020a634e487b7102600052603260045260246000fd5b60200260200101518460400151604051612f1893929190613c14565b60405180910390a16000858581518110612f455760e060020a634e487b7102600052603260045260246000fd5b6020026020010151604051602401612f5f91815260200190565b60408051601f19818403018152919052602081018051600160e060020a03167f3efb7047000000000000000000000000000000000000000000000000000000001790529050612fad816130c4565b507f2d6de712d035bfecc1593860af7eae0831e978cab3cd96f778478b1fdc443bc3868681518110612ff25760e060020a634e487b7102600052603260045260246000fd5b602002602001015184606001514260405161300f93929190613d66565b60405180910390a17fed1eee41741b53b08d72014ce1014368cbd4d6052cd5063bb1a8215ee5bcd3e686868151811061305b5760e060020a634e487b7102600052603260045260246000fd5b602002602001015184608001514260405161307893929190613d66565b60405180910390a150505050808061308f90613e89565b915050612d84565b50505061087a565b7faf3ccdab63767d83181d2ac8c40c256cce5f7d52dd79fa93eadafa27d81b942e5490565b6002546040516060916000918291600160a060020a0316906130e7908690613b89565b6000604051808303816000865af19150503d8060008114613124576040519150601f19603f3d011682016040523d82523d6000602084013e613129565b606091505b509150915081611d5f5760405160e560020a62461bcd02815260206004820152602660248201527f63616c6c20746f20636f6c6c61746572616c697a65644c6f616e50726f78792060448201527f6661696c6564000000000000000000000000000000000000000000000000000060648201526084016108e3565b6003546040516060916000918291600160a060020a0316906131c7908690613b89565b6000604051808303816000865af19150503d8060008114613204576040519150601f19603f3d011682016040523d82523d6000602084013e613209565b606091505b509150915081611d5f5760405160e560020a62461bcd02815260206004820181905260248201527f63616c6c20746f207472616e73616374696f6e7350726f7879206661696c656460448201526064016108e3565b82805461326a90613e51565b90600052602060002090601f01602090048101928261328c57600085556132d2565b82601f106132a557805160ff19168380011785556132d2565b828001600101855582156132d2579182015b828111156132d25782518255916020019190600101906132b7565b506132de9291506132e2565b5090565b5b808211156132de57600081556001016132e3565b805161082b81613ed6565b600082601f830112613312578081fd5b8135602061332761332283613db6565b613d85565b8281528181019085830183850287018401881015613343578586fd5b855b8581101561336157813584529284019290840190600101613345565b5090979650505050505050565b80516006811061082b57600080fd5b600082601f83011261338d578081fd5b813567ffffffffffffffff8111156133a7576133a7613ebd565b6133ba601f8201601f1916602001613d85565b8181528460208386010111156133ce578283fd5b816020850160208301379081016020019190915292915050565b60006102208083850312156133fb578182fd5b61340481613d85565b915050815181526134176020830161351b565b602082015260408201516040820152613432606083016132f7565b6060820152613443608083016132f7565b608082015261345460a0830161336e565b60a082015261346560c08301613510565b60c082015261347660e08301613510565b60e0820152610100613489818401613510565b9082015261012061349b83820161351b565b908201526101406134ad838201613510565b9082015261016082810151908201526101806134ca818401613531565b908201526101a06134dc838201613531565b908201526101c06134ee838201613531565b908201526101e082810151908201526102009182015191810191909152919050565b805161082b81613eeb565b805161082b81613efb565b803561082b81613f0d565b805161082b81613f0d565b60006020828403121561354d578081fd5b8135611d5f81613ed6565b6000806040838503121561356a578081fd5b823561357581613ed6565b946020939093013593505050565b600080600060608486031215613597578081fd5b83356135a281613ed6565b9250602084013567ffffffffffffffff8111156135bd578182fd5b6135c98682870161337d565b925050604084013590509250925092565b6000806040838503121561356a578182fd5b600080600060608486031215613600578081fd5b833561360b81613ed6565b95602085013595506040909401359392505050565b60008060008060808587031215613635578182fd5b843561364081613ed6565b966020860135965060408601359560600135945092505050565b60008060008060008060008060008060006101608c8e03121561367b578889fd5b8b3561368681613ed6565b9a5060208c013561369681613efb565b995060408c0135985060608c01356136ad81613eeb565b975060808c01356136bd81613eeb565b965060a08c01356136cd81613eeb565b955060c08c01356136dd81613efb565b945060e08c01356136ed81613eeb565b93506101008c01356136fe81613f0d565b92506101208c013561370f81613f0d565b915061371e6101408d01613526565b90509295989b509295989b9093969950565b60006020808385031215613742578182fd5b825167ffffffffffffffff811115613758578283fd5b8301601f81018513613768578283fd5b805161377661332282613db6565b81815283810190838501610220808502860187018a1015613795578788fd5b8795505b848610156137c1576137ab8a836133e8565b8452600195909501949286019290810190613799565b509098975050505050505050565b600060208083850312156137e1578182fd5b825167ffffffffffffffff8111156137f7578283fd5b8301601f81018513613807578283fd5b805161381561332282613db6565b8181528381019083850185840285018601891015613831578687fd5b8694505b83851015613853578051835260019490940193918501918501613835565b50979650505050505050565b600080600060608486031215613873578081fd5b833567ffffffffffffffff8082111561388a578283fd5b61389687838801613302565b945060208601359150808211156138ab578283fd5b6138b787838801613302565b935060408601359150808211156138cc578283fd5b506138d986828701613302565b9150509250925092565b6000602082840312156138f4578081fd5b81518015158114611d5f578182fd5b600060208284031215613914578081fd5b813567ffffffffffffffff81111561392a578182fd5b6139368482850161337d565b949350505050565b60008060408385031215613950578182fd5b823567ffffffffffffffff811115613966578283fd5b6139728582860161337d565b925050602083013561398381613ed6565b809150509250929050565b600061022082840312156139a0578081fd5b611d5f83836133e8565b6000602082840312156139bb578081fd5b5035919050565b6000602082840312156139d3578081fd5b5051919050565b600080604083850312156139ec578182fd5b82359150602083013561398381613eeb565b600060208284031215613a0f578081fd5b8151611d5f81613f0d565b60068110613a3b5760e060020a634e487b7102600052602160045260246000fd5b9052565b60008151808452613a57816020860160208601613e25565b601f01601f19169290920160200192915050565b805182526020810151613a86602084018263ffffffff169052565b50604081015160408301526060810151613aab6060840182600160a060020a03169052565b506080810151613ac66080840182600160a060020a03169052565b5060a0810151613ad960a0840182613a1a565b5060c0810151613aef60c084018261ffff169052565b5060e0810151613b0560e084018261ffff169052565b506101008181015161ffff908116918401919091526101208083015163ffffffff1690840152610140808301519091169083015261016080820151908301526101808082015160ff908116918401919091526101a0808301518216908401526101c080830151909116908301526101e0808201519083015261020090810151910152565b60008251613b9b818460208701613e25565b9190910192915050565b600160a060020a03929092168252602082015260400190565b600160a060020a039384168152919092166020820152604081019190915260600190565b6000600160a060020a038516825260606020830152613c046060830185613a3f565b9050826040830152949350505050565b600160a060020a039390931683526020830191909152604082015260600190565b6020808252825182820181905260009190848201906040850190845b81811015613c7857613c64838551613a6b565b928401926102209290920191600101613c51565b50909695505050505050565b600060208252611d5f6020830184613a3f565b60208082526022908201527f4c6f616e206973206e6f74206174204c6f616e5265706179696e67207374617460408201527f7573000000000000000000000000000000000000000000000000000000000000606082015260800190565b6020808252602c908201527f776974686472617745746865722847617465776179293a204661696c6564207460408201527f6f2073656e642045746865720000000000000000000000000000000000000000606082015260800190565b6102208101613d608284613a6b565b92915050565b928352600160a060020a03919091166020830152604082015260600190565b604051601f8201601f1916810167ffffffffffffffff81118282101715613dae57613dae613ebd565b604052919050565b600067ffffffffffffffff821115613dd057613dd0613ebd565b5060209081020190565b6000816000190483118215151615613df457613df4613ea4565b500290565b600063ffffffff80831681851681830481118215151615613e1c57613e1c613ea4565b02949350505050565b60005b83811015613e40578181015183820152602001613e28565b838111156110245750506000910152565b600281046001821680613e6557607f821691505b60208210811415610a155760e060020a634e487b7102600052602260045260246000fd5b6000600019821415613e9d57613e9d613ea4565b5060010190565b60e060020a634e487b7102600052601160045260246000fd5b60e060020a634e487b7102600052604160045260246000fd5b600160a060020a038116811461087a57600080fd5b61ffff8116811461087a57600080fd5b63ffffffff8116811461087a57600080fd5b60ff8116811461087a57600080fdfea264697066735822122028e3d5796accd6da5a415af3138a31ea898489e59cb8bce5ee8b64f00c7f21ea64736f6c63430008030033",
  "immutableReferences": {},
  "source": "// SPDX-License-Identifier: GPL-3.0\n\npragma solidity ^0.8.0;\n\nimport \"./LoanStructure.sol\";\nimport \"./AddressManagement.sol\";\n\ncontract CollateralizedLoanGateway is AddressManagement {\n    address collateralizedLoanProxy;\n    address transactionsProxy;\n    address addressManagement;\n    address airnodeAdmin;\n\n    constructor(address _collateralizedLoanProxy, address _transactionsProxy, address _addressManagement, address _airnodeAdmin, address admin_) AddressManagement(admin_) {\n        collateralizedLoanProxy = _collateralizedLoanProxy;\n        transactionsProxy = _transactionsProxy;\n        addressManagement = _addressManagement;\n        airnodeAdmin = _airnodeAdmin;\n    }\n\n    fallback() external payable {}\n\n    receive() external payable {\n        emit EtherReceived(msg.sender, msg.value);\n    }\n\n    modifier AuthenticateSender(address _address) {\n        if(msg.sender == _address) {\n            _;\n        } else {\n            revert(\"Unauthorized\");\n        }\n    }\n\n    modifier AuthenticateAirnodeAdmin {\n        if(msg.sender == airnodeAdmin) {\n            _;\n        } else {\n            revert(\"Unauthorized\");\n        }\n    }\n\n    /**\n     * @dev Trigger the event when agreement of the collateralized loan is made\n     */\n    event LoanInitiated(uint256 _loanId, address _lender, uint256 _initiatedTime);\n\n    /**\n     * @dev Trigger the event when borrower raised a request for loan\n     */\n    event LoanRequested(uint256 _loanId, address _requester, uint256 _requestedTime);\n\n    /**\n     * @dev Trigger the event when the loan is cancelled\n     */\n    event LoanCancelled(uint256 _loanId, address _lender, uint256 _cancelTime);\n\n    /**\n     * @dev Trigger the event when loan is disbursed to borrower\n     */\n    event LoanDisbursed(uint256 _loanId, address _lender, uint256 _nextRepaymentDeadline, uint256 _disburseTime);\n\n    /**\n     * @dev Trigger the event when repayment is made by the borrower\n     */\n    event LoanRepaid(uint256 _loanId, address _borrower, uint256 _repaidTime);\n\n    /**\n     * @dev Trigger the event when borrower defaults on a particular loan\n     */\n    event LoanDefaulted(uint256 _loanId, address _borrower, uint256 _checkTime);\n\n    /**\n     * @dev Trigger the event when borrower defaults and collateralized ether is sent to the lender\n     */\n    event CollateralSentToLender(uint256 _loanId, address _lender, uint256 _sentTime);\n\n    /**\n     * @dev Trigger the event when borrower has fully repaid the loan\n     */\n    event LoanFullyRepaid(uint256 _loanId, address _borrower, uint256 _repaidTime);\n\n    /**\n     * @dev Trigger the event when collateral is paid back to the borrower\n     */\n    event CollateralPaidback(uint256 _loanId, address _borrower, uint256 _paidTime);\n\n    /**\n     * @dev Trigger the event when Ether is stored in the contract\n     */\n    event EtherStored(address _address, uint256 _value);\n\n    /**\n     * @dev Trigger the event when fiat money is stored in the contract\n     */\n    event FiatMoneyStored(address _address, uint256 _value);\n\n    /**\n     * @dev Trigger the event when Ether is withdrawn in the contract\n     */\n    event EtherWithdrawn(address _address, uint256 _value);\n\n    /**\n     * @dev Trigger the event when fiat money is withdrawn in the contract\n     */\n    event FiatMoneyWithdrawn(address _address, uint256 _value);\n\n    /**\n     * @dev Trigger the event when Ether is successfully transferred\n     */\n    event EtherReceived(address _from, uint256 _value);\n    \n    /**\n     * @dev Trigger the event when fiat money is successfully transferred from one to another address\n     */\n    event FiatMoneyTransferredBetweenAddress(address _from, address _to, uint256 _value);\n    \n    /**\n     * @dev Trigger the event when fiat money is successfully transferred from one to another address\n     */\n    event FiatMoneyTransferredToBank(address _address, string _bankAccountNo, uint256 _value);\n    \n    /**\n     * @dev Trigger the event when Ether is successfully transferred\n     */\n    event EtherTransferred(address _to, uint256 _value);\n\n    /**\n     * @dev Trigger the event when collateral is stored in vault\n     */\n    event EtherCollateralized(address _address, uint256 _loanId, uint256 _value);\n\n    /**\n     * @dev Trigger the event when collateral is released from vault\n     */\n    event EtherReleasedFromVault(address _address, uint256 _loanId, uint256 _value);\n\n    function getCollateralizedLoanProxy() external view isAdmin returns (address) {\n        return collateralizedLoanProxy;\n    }\n\n    function getTransactionsProxy() external view isAdmin returns (address) {\n        return transactionsProxy;\n    }\n\n    function getAddressManagement() external view isAdmin returns (address) {\n        return addressManagement;\n    }\n\n    function getAirnodeAdmin() external view isAdmin returns (address) {\n        return airnodeAdmin;\n    }\n\n    function changeCollateralizedLoanProxy(address _collateralizedLoanProxy) external isAdmin {\n        collateralizedLoanProxy = _collateralizedLoanProxy;\n    }\n\n    function changeTransactionsProxy(address _transactionsProxy) external isAdmin {\n        transactionsProxy = _transactionsProxy;\n    }\n\n    function changeAddressManagement(address _addressManagement) external isAdmin {\n        addressManagement = _addressManagement;\n    }\n\n    function changeAirnodeAdmin(address _airnodeAdmin) external isAdmin {\n        airnodeAdmin = _airnodeAdmin;\n    }\n\n    function functionCallToCollateralizedLoanProxy(bytes memory payload) internal returns (bytes memory)\n    {\n        (bool success, bytes memory returnData) = collateralizedLoanProxy.call(payload);\n        require(success, \"call to collateralizedLoanProxy failed\");\n        return returnData;\n    }\n\n    function functionCallToTransactionsProxy(bytes memory payload) internal returns (bytes memory)\n    {\n        (bool success, bytes memory returnData) = transactionsProxy.call(payload);\n        require(success, \"call to transactionsProxy failed\");\n        return returnData;\n    }\n    \n    /**\n     * @dev Endpoints from CollateralizedLoan\n     */\n    function initiateLoan(address _lender, uint32 _loanAmount, uint256 _collateralAmount, uint16 _loanTerm, uint16 _apr, uint16 _repaymentSchedule, uint32 _monthlyRepayment, uint16 _remainingPaymentCount, uint8 _ltv, uint8 _marginLTV, uint8 _liquidationLTV)\n    AuthenticateSender(_lender)\n    external\n    {\n        bytes memory payload = abi.encodeWithSignature(\"initiateLoan(address,uint32,uint256,uint16,uint16,uint16,uint32,uint16,uint8,uint8,uint8)\", _lender, _loanAmount, _collateralAmount, _loanTerm, _apr, _repaymentSchedule, _monthlyRepayment, _remainingPaymentCount, _ltv, _marginLTV, _liquidationLTV);\n        uint256 newLoanId = abi.decode(functionCallToCollateralizedLoanProxy(payload), (uint256));\n        emit LoanInitiated(newLoanId, _lender, block.timestamp);\n    }\n\n    function requestLoan(address _requester, uint256 _loanId)\n    AuthenticateSender(_requester)\n    external\n    {\n        bytes memory payload = abi.encodeWithSignature(\"requestLoan(address,uint256)\", _requester, _loanId);\n\n        functionCallToCollateralizedLoanProxy(payload);\n        \n        emit LoanRequested(_loanId, _requester, block.timestamp);\n    }\n\n    function cancelLoan(address _lender, uint256 _loanId)\n    AuthenticateSender(_lender)\n    external\n    {\n        bytes memory payload = abi.encodeWithSignature(\"cancelLoan(address,uint256)\", _lender, _loanId);\n        functionCallToCollateralizedLoanProxy(payload);\n        emit LoanCancelled(_loanId, _lender, block.timestamp);\n    }\n\n    function disburseLoan(address _lender, uint256 _loanId, uint256 _nextRepaymentDeadline)\n    AuthenticateSender(_lender)\n    external\n    {\n        bytes memory payload1 = abi.encodeWithSignature(\"getLoanDetails(uint256)\", _loanId);\n        LoanStructure.Loan memory loan = abi.decode(functionCallToCollateralizedLoanProxy(payload1), (LoanStructure.Loan));\n\n        bytes memory payload1a = abi.encodeWithSignature(\"checkFiatBalanceAmount(address)\", loan.lender);\n        uint256 lenderFiatBalance = abi.decode(functionCallToTransactionsProxy(payload1a), (uint256));\n        \n        bytes memory payload1b = abi.encodeWithSignature(\"checkEtherBalanceAmount(address)\", loan.borrower);\n        uint256 borrowerEtherBalance = abi.decode(functionCallToTransactionsProxy(payload1b), (uint256));\n\n        if(_lender != loan.lender) {\n            revert(\"Loan is not disbursed by the loan lender\");\n        }\n\n        if(lenderFiatBalance < uint32(loan.loanAmount)) {\n            revert(\"Lender does not have enough fiat balance\");\n        }\n\n        if(borrowerEtherBalance < uint256(loan.collateralAmount)) {\n            revert(\"Borrower does not have enough Ether balance\");\n        }\n\n        bytes memory payload2 = abi.encodeWithSignature(\"transferFiatMoneyToAnotherAddress(address,address,uint256)\", loan.lender, loan.borrower, uint(loan.loanAmount));\n        functionCallToTransactionsProxy(payload2);\n\n        emit FiatMoneyTransferredBetweenAddress(loan.lender, loan.borrower, uint(loan.loanAmount));\n\n        bytes memory payload3 = abi.encodeWithSignature(\"storeCollateralToVault(address,uint256,uint256)\", loan.borrower, _loanId, uint(loan.collateralAmount));\n        functionCallToTransactionsProxy(payload3);\n\n        emit EtherCollateralized(loan.borrower, _loanId, uint(loan.collateralAmount));\n\n        bytes memory payload4 = abi.encodeWithSignature(\"updateDisbursedLoanDetails(address,uint256,uint256)\", _lender, _loanId, _nextRepaymentDeadline);\n        functionCallToCollateralizedLoanProxy(payload4);\n\n        emit LoanDisbursed(_loanId, _lender, _nextRepaymentDeadline, block.timestamp);\n    }\n\n    function makeRepaymentByBorrower(address _borrower, uint256 _loanId, uint256 _payValue, uint256 _nextRepaymentDeadline)\n    AuthenticateSender(_borrower)\n    external\n    {\n        bytes memory payload1 = abi.encodeWithSignature(\"getLoanDetails(uint256)\", _loanId);\n        LoanStructure.Loan memory loan = abi.decode(functionCallToCollateralizedLoanProxy(payload1), (LoanStructure.Loan));\n\n        if(_payValue != uint256(loan.monthlyRepaymentAmount)) {\n            revert(\"Repayment value is not same as agreed monthly repayment amount\");\n        }\n\n        if(_borrower != loan.borrower) {\n            revert(\"Repayment is not made by the loan borrower\");\n        }\n\n        bytes memory payload1a = abi.encodeWithSignature(\"checkFiatBalanceAmount(address)\", loan.borrower);\n        uint256 borrowerFiatBalance = abi.decode(functionCallToTransactionsProxy(payload1a), (uint256));\n\n        if(borrowerFiatBalance < uint256(loan.monthlyRepaymentAmount)) {\n            revert(\"Borrower does not have enough fiat balance\");\n        }\n\n        bytes memory payload2 = abi.encodeWithSignature(\"transferFiatMoneyToAnotherAddress(address,address,uint256)\", loan.borrower, loan.lender, _payValue);\n        functionCallToTransactionsProxy(payload2);\n\n        emit FiatMoneyTransferredBetweenAddress(loan.borrower, loan.lender, _payValue);\n\n        bytes memory payload3 = abi.encodeWithSignature(\"updateNextLoanRepaymentDetails(uint256,uint256)\", _loanId, _nextRepaymentDeadline);\n        bool isFullyRepaid = abi.decode(functionCallToCollateralizedLoanProxy(payload3), (bool));\n\n        if(isFullyRepaid) {\n            bytes memory payload4 = abi.encodeWithSignature(\"releaseCollateralFromVault(address,uint256,uint256)\", _borrower, _loanId, uint(loan.collateralAmount));\n            functionCallToTransactionsProxy(payload4);\n\n            emit EtherReleasedFromVault(_borrower, _loanId, uint(loan.collateralAmount));\n\n            emit LoanFullyRepaid(_loanId, loan.borrower, block.timestamp);\n        } else {\n            emit LoanRepaid(_loanId, _borrower, block.timestamp);\n        }\n    }\n\n    // Scheduled batch job for checking the defaulted loans\n    function checkBorrowerDefault(uint256 _nextRepaymentDeadline) external\n    AuthenticateAirnodeAdmin\n    {\n        bytes memory payload1 = abi.encodeWithSignature(\"getDefaultedLoanIds(uint256)\", _nextRepaymentDeadline);\n        uint256[] memory defaultedLoanIds = abi.decode(functionCallToCollateralizedLoanProxy(payload1), (uint256[]));\n        for(uint256 i = 0; i < defaultedLoanIds.length; i++) {\n            bytes memory payload2 = abi.encodeWithSignature(\"getLoanDetails(uint256)\", defaultedLoanIds[i]);\n            LoanStructure.Loan memory loan = abi.decode(functionCallToCollateralizedLoanProxy(payload2), (LoanStructure.Loan));\n            \n            bytes memory payload3 = abi.encodeWithSignature(\"releaseCollateralFromVault(address,uint256,uint256)\", loan.lender, defaultedLoanIds[i], uint(loan.collateralAmount));\n            functionCallToTransactionsProxy(payload3);\n\n            emit EtherReleasedFromVault(loan.lender, defaultedLoanIds[i], uint(loan.collateralAmount));\n\n            bytes memory payload4 = abi.encodeWithSignature(\"recordLoanDefaultEvent(uint256)\", defaultedLoanIds[i]);\n            functionCallToCollateralizedLoanProxy(payload4);\n\n            emit LoanDefaulted(defaultedLoanIds[i], loan.borrower, block.timestamp);\n            emit CollateralSentToLender(defaultedLoanIds[i], loan.lender, block.timestamp);\n        }\n    }\n\n    function recordLoanDefaultEvent(uint256 _loanId) external\n    AuthenticateAirnodeAdmin\n    {\n        bytes memory payload1 = abi.encodeWithSignature(\"getLoanDetails(uint256)\", _loanId);\n        LoanStructure.Loan memory loan = abi.decode(functionCallToCollateralizedLoanProxy(payload1), (LoanStructure.Loan));\n\n        if(loan.loanStatus != LoanStructure.LoanStatus.LoanRepaying) {\n            revert(\"Loan is not at LoanRepaying status\");\n        }\n\n        bytes memory payload2 = abi.encodeWithSignature(\"recordLoanDefaultEvent(uint256)\", _loanId);\n        functionCallToCollateralizedLoanProxy(payload2);\n\n        emit LoanDefaulted(_loanId, loan.borrower, block.timestamp);\n    }\n\n    function recordLoanFullyRepaidEvent(uint256 _loanId) external\n    AuthenticateAirnodeAdmin\n    {\n        bytes memory payload1 = abi.encodeWithSignature(\"getLoanDetails(uint256)\", _loanId);\n        LoanStructure.Loan memory loan = abi.decode(functionCallToCollateralizedLoanProxy(payload1), (LoanStructure.Loan));\n\n        if(loan.loanStatus != LoanStructure.LoanStatus.LoanRepaying) {\n            revert(\"Loan is not at LoanRepaying status\");\n        }\n\n        bytes memory payload2 = abi.encodeWithSignature(\"recordLoanFullyRepaidEvent(uint256)\", _loanId);\n        functionCallToCollateralizedLoanProxy(payload2);\n\n        emit LoanFullyRepaid(_loanId, loan.borrower, block.timestamp);\n    }\n\n    /**\n     * @dev Scheduled batch job for liquidating loans\n     */\n    function liquidateLoan(uint256[] memory loanIds, uint256[] memory collateralInUSD, uint256[] memory collateralPayables) external\n    AuthenticateAirnodeAdmin\n    {\n        for(uint256 i = 0; i < loanIds.length; i++) {\n            bytes memory payload1 = abi.encodeWithSignature(\"getLoanDetails(uint256)\", loanIds[i]);\n            LoanStructure.Loan memory loan = abi.decode(functionCallToCollateralizedLoanProxy(payload1), (LoanStructure.Loan));\n            \n            uint256 grossRemainingRepaymentAmount = loan.remainingRepaymentCount * loan.monthlyRepaymentAmount;\n            \n            bytes memory payload2 = abi.encodeWithSignature(\"getCollateralValueFromVault(uint256)\", loanIds[i]);\n            uint256 collateralAmount = abi.decode(functionCallToTransactionsProxy(payload2), (uint256));\n            \n            if(collateralInUSD[i] >= grossRemainingRepaymentAmount) {\n                // Set loan as fully repaid, transfer grossRemainingRepaymentAmount to lender\n                // and send remaining amount (collateralAmount - grossRemainingRepaymentAmount) to borrower\n\n                bytes memory payload3 = abi.encodeWithSignature(\"deductCollateralValueFromVault(uint256,uint256)\", loanIds[i], collateralAmount);\n                functionCallToTransactionsProxy(payload3);\n\n                bytes memory payload4 = abi.encodeWithSignature(\"storeFiatMoney(address,uint256)\", loan.lender, grossRemainingRepaymentAmount);\n                functionCallToTransactionsProxy(payload4);\n\n                bytes memory payload5 = abi.encodeWithSignature(\"storeEther(address,uint256)\", loan.borrower, collateralPayables[i]);\n                functionCallToTransactionsProxy(payload5);\n                emit EtherStored(loan.borrower, collateralPayables[i]);\n\n                bytes memory payload6 = abi.encodeWithSignature(\"recordLoanFullyRepaidEvent(uint256)\", loanIds[i]);\n                functionCallToCollateralizedLoanProxy(payload6);\n\n                emit LoanFullyRepaid(loanIds[i], loan.borrower, block.timestamp);\n            } else {\n                // Set loan as defaulted and send collateral to lender\n\n                bytes memory payload3 = abi.encodeWithSignature(\"releaseCollateralFromVault(address,uint256,uint256)\", loan.lender, loanIds[i], uint(loan.collateralAmount));\n                functionCallToTransactionsProxy(payload3);\n\n                emit EtherReleasedFromVault(loan.lender, loanIds[i], uint(loan.collateralAmount));\n\n                bytes memory payload4 = abi.encodeWithSignature(\"recordLoanDefaultEvent(uint256)\", loanIds[i]);\n                functionCallToCollateralizedLoanProxy(payload4);\n\n                emit LoanDefaulted(loanIds[i], loan.borrower, block.timestamp);\n                emit CollateralSentToLender(loanIds[i], loan.lender, block.timestamp);\n            }\n        }\n    }\n\n    function getLoanDetails(uint256 _loanId) external\n    returns (LoanStructure.Loan memory)\n    {\n        bytes memory payload = abi.encodeWithSignature(\"getLoanDetails(uint256)\", _loanId);\n        return abi.decode(functionCallToCollateralizedLoanProxy(payload), (LoanStructure.Loan));\n    }\n\n    function getLenderLoans(address _lender) external\n    AuthenticateSender(_lender)\n    returns (LoanStructure.Loan[] memory)\n    {\n        bytes memory payload = abi.encodeWithSignature(\"getLenderLoans(address)\", _lender);\n        return abi.decode(functionCallToCollateralizedLoanProxy(payload), (LoanStructure.Loan[]));\n    }\n\n    function getBorrowerLoans(address _borrower) external\n    AuthenticateSender(_borrower)\n    returns (LoanStructure.Loan[] memory)\n    {\n        bytes memory payload = abi.encodeWithSignature(\"getBorrowerLoans(address)\", _borrower);\n        return abi.decode(functionCallToCollateralizedLoanProxy(payload), (LoanStructure.Loan[]));\n    }\n\n    /**\n     * @dev Endpoints from Transactions\n     */\n    function storeEther(address _address, uint256 _value) public\n    AuthenticateSender(_address)\n    {\n        // transactionsProxy.transfer(msg.value);\n        bytes memory payload = abi.encodeWithSignature(\"storeEther(address,uint256)\", _address, _value);\n        functionCallToTransactionsProxy(payload);\n        emit EtherStored(_address, _value);\n    }\n\n    function storeFiatMoney(address _address, uint256 _value) public\n    AuthenticateSender(_address)\n    {\n        bytes memory payload = abi.encodeWithSignature(\"storeFiatMoney(address,uint256)\", _address, _value);\n        functionCallToTransactionsProxy(payload);\n        emit FiatMoneyStored(_address, _value);\n    }\n\n    function withdrawEther(address payable _address, uint256 _value) external\n    AuthenticateSender(_address)\n    {\n        bytes memory payload1 = abi.encodeWithSignature(\"withdrawEther(address,uint256)\", _address, _value);\n        functionCallToTransactionsProxy(payload1);\n\n        bool sent = _address.send(_value * 1 wei);\n        require(sent, \"withdrawEther(Gateway): Failed to send Ether\");\n\n        emit EtherTransferred(_address, _value * 1 wei);\n        emit EtherWithdrawn(_address, _value);\n    }\n\n\n    /**\n     * @dev Trigger when the user requested transfer fund to bank\n     */\n    function withdrawFiatMoney(address _address, uint256 _value) external\n    AuthenticateAirnodeAdmin\n    {\n        bytes memory payload = abi.encodeWithSignature(\"withdrawFiatMoney(address,uint256)\", _address, _value);\n        functionCallToTransactionsProxy(payload);\n        emit FiatMoneyWithdrawn(_address, _value);\n    }\n\n    function checkEtherBalanceAmount(address _address) public\n    AuthenticateSender(_address)\n    returns (uint256)\n    {\n        bytes memory payload = abi.encodeWithSignature(\"checkEtherBalanceAmount(address)\", _address);\n        return abi.decode(functionCallToTransactionsProxy(payload), (uint256));\n    }\n\n    function checkFiatBalanceAmount(address _address) public\n    AuthenticateSender(_address)\n    returns (uint256)\n    {\n        bytes memory payload = abi.encodeWithSignature(\"checkFiatBalanceAmount(address)\", _address);\n        return abi.decode(functionCallToTransactionsProxy(payload), (uint256));\n    }\n\n    function transferFiatMoneyBackToBank(address _requester, string memory _bankAccountNo, uint256 _value) external\n    AuthenticateSender(_requester)\n    {\n        bytes memory payload = abi.encodeWithSignature(\"transferFiatMoneyBackToBank(address,string,uint256)\", _requester, _bankAccountNo, _value);\n        functionCallToTransactionsProxy(payload);\n        emit FiatMoneyTransferredToBank(_requester, _bankAccountNo, _value);\n    }\n\n    /**\n     * @dev Trigger when the loan is defaulted\n     */\n    function transferEther(address payable _lender, uint256 _value) public\n    AuthenticateAirnodeAdmin\n    {\n        // bytes memory payload = abi.encodeWithSignature(\"transferEther(address,uint256)\", _lender, _value);\n        // functionCallToTransactionsProxy(payload);\n\n        bool sent = _lender.send(_value * 1 wei);\n        require(sent, \"withdrawEther(Gateway): Failed to send Ether\");\n        emit EtherTransferred(_lender, _value * 1 wei);\n    }\n\n    /**\n     * @dev For authentication testing\n     */\n    function add1() external isAdmin returns (uint8) {\n        bytes memory payload = abi.encodeWithSignature(\"add1(uint8,uint8)\", 3, 5);\n        return abi.decode(functionCallToCollateralizedLoanProxy(payload), (uint8));\n    }\n\n    function add2() external isAdmin returns (uint8) {\n        bytes memory payload = abi.encodeWithSignature(\"add2(uint8,uint8)\", 2, 4);\n        return abi.decode(functionCallToTransactionsProxy(payload), (uint8));\n    }\n\n    function updateLoanRemainingRepaymentCount(uint256 _loanId, uint16 _remainingCount) external isAdmin {\n        bytes memory payload = abi.encodeWithSignature(\"updateLoanRemainingRepaymentCount(uint256,uint16)\", _loanId, _remainingCount);\n        functionCallToCollateralizedLoanProxy(payload);\n    }\n\n}",
  "sourcePath": "/Users/AlsieSam/Desktop/DEX/truffle/contracts/CollateralizedLoanGateway.sol",
  "compiler": {
    "name": "solc",
    "version": "0.8.3+commit.8d00100c.Emscripten.clang"
  },
  "schemaVersion": "3.4.3",
  "updatedAt": "2022-03-22T10:58:29.821Z",
  "networkType": "ethereum",
  "devdoc": {
    "events": {
      "CollateralPaidback(uint256,address,uint256)": {
        "details": "Trigger the event when collateral is paid back to the borrower"
      },
      "CollateralSentToLender(uint256,address,uint256)": {
        "details": "Trigger the event when borrower defaults and collateralized ether is sent to the lender"
      },
      "EtherCollateralized(address,uint256,uint256)": {
        "details": "Trigger the event when collateral is stored in vault"
      },
      "EtherReceived(address,uint256)": {
        "details": "Trigger the event when Ether is successfully transferred"
      },
      "EtherReleasedFromVault(address,uint256,uint256)": {
        "details": "Trigger the event when collateral is released from vault"
      },
      "EtherStored(address,uint256)": {
        "details": "Trigger the event when Ether is stored in the contract"
      },
      "EtherTransferred(address,uint256)": {
        "details": "Trigger the event when Ether is successfully transferred"
      },
      "EtherWithdrawn(address,uint256)": {
        "details": "Trigger the event when Ether is withdrawn in the contract"
      },
      "FiatMoneyStored(address,uint256)": {
        "details": "Trigger the event when fiat money is stored in the contract"
      },
      "FiatMoneyTransferredBetweenAddress(address,address,uint256)": {
        "details": "Trigger the event when fiat money is successfully transferred from one to another address"
      },
      "FiatMoneyTransferredToBank(address,string,uint256)": {
        "details": "Trigger the event when fiat money is successfully transferred from one to another address"
      },
      "FiatMoneyWithdrawn(address,uint256)": {
        "details": "Trigger the event when fiat money is withdrawn in the contract"
      },
      "LoanCancelled(uint256,address,uint256)": {
        "details": "Trigger the event when the loan is cancelled"
      },
      "LoanDefaulted(uint256,address,uint256)": {
        "details": "Trigger the event when borrower defaults on a particular loan"
      },
      "LoanDisbursed(uint256,address,uint256,uint256)": {
        "details": "Trigger the event when loan is disbursed to borrower"
      },
      "LoanFullyRepaid(uint256,address,uint256)": {
        "details": "Trigger the event when borrower has fully repaid the loan"
      },
      "LoanInitiated(uint256,address,uint256)": {
        "details": "Trigger the event when agreement of the collateralized loan is made"
      },
      "LoanRepaid(uint256,address,uint256)": {
        "details": "Trigger the event when repayment is made by the borrower"
      },
      "LoanRequested(uint256,address,uint256)": {
        "details": "Trigger the event when borrower raised a request for loan"
      }
    },
    "kind": "dev",
    "methods": {
      "add1()": {
        "details": "For authentication testing"
      },
      "initiateLoan(address,uint32,uint256,uint16,uint16,uint16,uint32,uint16,uint8,uint8,uint8)": {
        "details": "Endpoints from CollateralizedLoan"
      },
      "liquidateLoan(uint256[],uint256[],uint256[])": {
        "details": "Scheduled batch job for liquidating loans"
      },
      "storeEther(address,uint256)": {
        "details": "Endpoints from Transactions"
      },
      "transferEther(address,uint256)": {
        "details": "Trigger when the loan is defaulted"
      },
      "withdrawFiatMoney(address,uint256)": {
        "details": "Trigger when the user requested transfer fund to bank"
      }
    },
    "version": 1
  },
  "userdoc": {
    "kind": "user",
    "methods": {},
    "version": 1
  }
}