{
  "contractName": "Transactions",
  "abi": [
    {
      "inputs": [
        {
          "internalType": "address",
          "name": "admin_",
          "type": "address"
        }
      ],
      "stateMutability": "nonpayable",
      "type": "constructor"
    },
    {
      "anonymous": false,
      "inputs": [
        {
          "indexed": false,
          "internalType": "address",
          "name": "previousAdmin",
          "type": "address"
        },
        {
          "indexed": false,
          "internalType": "address",
          "name": "newAdmin",
          "type": "address"
        }
      ],
      "name": "AddressManagementAdminChanged",
      "type": "event"
    },
    {
      "anonymous": false,
      "inputs": [
        {
          "indexed": false,
          "internalType": "address",
          "name": "_address",
          "type": "address"
        }
      ],
      "name": "EtherBalanceInitiated",
      "type": "event"
    },
    {
      "anonymous": false,
      "inputs": [
        {
          "indexed": false,
          "internalType": "address",
          "name": "_address",
          "type": "address"
        },
        {
          "indexed": false,
          "internalType": "uint256",
          "name": "_loanId",
          "type": "uint256"
        },
        {
          "indexed": false,
          "internalType": "uint256",
          "name": "_value",
          "type": "uint256"
        }
      ],
      "name": "EtherCollateralized",
      "type": "event"
    },
    {
      "anonymous": false,
      "inputs": [
        {
          "indexed": false,
          "internalType": "address",
          "name": "_from",
          "type": "address"
        },
        {
          "indexed": false,
          "internalType": "uint256",
          "name": "_value",
          "type": "uint256"
        }
      ],
      "name": "EtherReceived",
      "type": "event"
    },
    {
      "anonymous": false,
      "inputs": [
        {
          "indexed": false,
          "internalType": "address",
          "name": "_address",
          "type": "address"
        },
        {
          "indexed": false,
          "internalType": "uint256",
          "name": "_loanId",
          "type": "uint256"
        },
        {
          "indexed": false,
          "internalType": "uint256",
          "name": "_value",
          "type": "uint256"
        }
      ],
      "name": "EtherReleasedFromVault",
      "type": "event"
    },
    {
      "anonymous": false,
      "inputs": [
        {
          "indexed": false,
          "internalType": "address",
          "name": "_address",
          "type": "address"
        },
        {
          "indexed": false,
          "internalType": "uint256",
          "name": "_value",
          "type": "uint256"
        }
      ],
      "name": "EtherStored",
      "type": "event"
    },
    {
      "anonymous": false,
      "inputs": [
        {
          "indexed": false,
          "internalType": "address",
          "name": "_to",
          "type": "address"
        },
        {
          "indexed": false,
          "internalType": "uint256",
          "name": "_value",
          "type": "uint256"
        }
      ],
      "name": "EtherTransferred",
      "type": "event"
    },
    {
      "anonymous": false,
      "inputs": [
        {
          "indexed": false,
          "internalType": "address",
          "name": "_address",
          "type": "address"
        },
        {
          "indexed": false,
          "internalType": "uint256",
          "name": "_value",
          "type": "uint256"
        }
      ],
      "name": "EtherWithdrawn",
      "type": "event"
    },
    {
      "anonymous": false,
      "inputs": [
        {
          "indexed": false,
          "internalType": "address",
          "name": "_address",
          "type": "address"
        }
      ],
      "name": "FiatBalanceInitiated",
      "type": "event"
    },
    {
      "anonymous": false,
      "inputs": [
        {
          "indexed": false,
          "internalType": "address",
          "name": "_address",
          "type": "address"
        },
        {
          "indexed": false,
          "internalType": "uint256",
          "name": "_value",
          "type": "uint256"
        }
      ],
      "name": "FiatMoneyStored",
      "type": "event"
    },
    {
      "anonymous": false,
      "inputs": [
        {
          "indexed": false,
          "internalType": "address",
          "name": "_from",
          "type": "address"
        },
        {
          "indexed": false,
          "internalType": "address",
          "name": "_to",
          "type": "address"
        },
        {
          "indexed": false,
          "internalType": "uint256",
          "name": "_value",
          "type": "uint256"
        }
      ],
      "name": "FiatMoneyTransferredBetweenAddress",
      "type": "event"
    },
    {
      "anonymous": false,
      "inputs": [
        {
          "indexed": false,
          "internalType": "address",
          "name": "_address",
          "type": "address"
        },
        {
          "indexed": false,
          "internalType": "string",
          "name": "_bankAccountNo",
          "type": "string"
        },
        {
          "indexed": false,
          "internalType": "uint256",
          "name": "_value",
          "type": "uint256"
        }
      ],
      "name": "FiatMoneyTransferredToBank",
      "type": "event"
    },
    {
      "anonymous": false,
      "inputs": [
        {
          "indexed": false,
          "internalType": "address",
          "name": "_address",
          "type": "address"
        },
        {
          "indexed": false,
          "internalType": "uint256",
          "name": "_value",
          "type": "uint256"
        }
      ],
      "name": "FiatMoneyWithdrawn",
      "type": "event"
    },
    {
      "stateMutability": "payable",
      "type": "fallback",
      "payable": true
    },
    {
      "inputs": [],
      "name": "addressManagementAdmin",
      "outputs": [
        {
          "internalType": "address",
          "name": "admin_",
          "type": "address"
        }
      ],
      "stateMutability": "view",
      "type": "function",
      "constant": true
    },
    {
      "inputs": [
        {
          "internalType": "address",
          "name": "newAdmin",
          "type": "address"
        }
      ],
      "name": "changeAddressManagementAdmin",
      "outputs": [],
      "stateMutability": "nonpayable",
      "type": "function"
    },
    {
      "inputs": [
        {
          "internalType": "string",
          "name": "contractName",
          "type": "string"
        }
      ],
      "name": "getContractAddress",
      "outputs": [
        {
          "internalType": "address",
          "name": "contractAddress",
          "type": "address"
        }
      ],
      "stateMutability": "view",
      "type": "function",
      "constant": true
    },
    {
      "inputs": [
        {
          "internalType": "string",
          "name": "contractName",
          "type": "string"
        }
      ],
      "name": "getContractAddressByAdmin",
      "outputs": [
        {
          "internalType": "address",
          "name": "contractAddress",
          "type": "address"
        }
      ],
      "stateMutability": "view",
      "type": "function",
      "constant": true
    },
    {
      "inputs": [
        {
          "internalType": "address",
          "name": "contractAddress",
          "type": "address"
        }
      ],
      "name": "getContractNameByAdmin",
      "outputs": [
        {
          "internalType": "string",
          "name": "contractName",
          "type": "string"
        }
      ],
      "stateMutability": "view",
      "type": "function",
      "constant": true
    },
    {
      "inputs": [
        {
          "internalType": "string",
          "name": "contractName",
          "type": "string"
        },
        {
          "internalType": "address",
          "name": "contractAddress",
          "type": "address"
        }
      ],
      "name": "updateContractAddress",
      "outputs": [],
      "stateMutability": "nonpayable",
      "type": "function"
    },
    {
      "stateMutability": "payable",
      "type": "receive",
      "payable": true
    },
    {
      "inputs": [
        {
          "internalType": "address",
          "name": "_address",
          "type": "address"
        },
        {
          "internalType": "uint256",
          "name": "_value",
          "type": "uint256"
        }
      ],
      "name": "storeEther",
      "outputs": [],
      "stateMutability": "nonpayable",
      "type": "function"
    },
    {
      "inputs": [
        {
          "internalType": "address",
          "name": "_address",
          "type": "address"
        },
        {
          "internalType": "uint256",
          "name": "_value",
          "type": "uint256"
        }
      ],
      "name": "storeFiatMoney",
      "outputs": [],
      "stateMutability": "nonpayable",
      "type": "function"
    },
    {
      "inputs": [
        {
          "internalType": "address payable",
          "name": "_address",
          "type": "address"
        },
        {
          "internalType": "uint256",
          "name": "_value",
          "type": "uint256"
        }
      ],
      "name": "withdrawEther",
      "outputs": [],
      "stateMutability": "payable",
      "type": "function",
      "payable": true
    },
    {
      "inputs": [
        {
          "internalType": "address",
          "name": "_address",
          "type": "address"
        },
        {
          "internalType": "uint256",
          "name": "_value",
          "type": "uint256"
        }
      ],
      "name": "withdrawFiatMoney",
      "outputs": [],
      "stateMutability": "nonpayable",
      "type": "function"
    },
    {
      "inputs": [
        {
          "internalType": "address",
          "name": "_address",
          "type": "address"
        }
      ],
      "name": "checkEtherBalanceAmount",
      "outputs": [
        {
          "internalType": "uint256",
          "name": "",
          "type": "uint256"
        }
      ],
      "stateMutability": "view",
      "type": "function",
      "constant": true
    },
    {
      "inputs": [
        {
          "internalType": "address",
          "name": "_address",
          "type": "address"
        }
      ],
      "name": "checkFiatBalanceAmount",
      "outputs": [
        {
          "internalType": "uint256",
          "name": "",
          "type": "uint256"
        }
      ],
      "stateMutability": "view",
      "type": "function",
      "constant": true
    },
    {
      "inputs": [
        {
          "internalType": "address",
          "name": "_from",
          "type": "address"
        },
        {
          "internalType": "address",
          "name": "_to",
          "type": "address"
        },
        {
          "internalType": "uint256",
          "name": "_value",
          "type": "uint256"
        }
      ],
      "name": "transferFiatMoneyToAnotherAddress",
      "outputs": [],
      "stateMutability": "nonpayable",
      "type": "function"
    },
    {
      "inputs": [
        {
          "internalType": "address",
          "name": "_requester",
          "type": "address"
        },
        {
          "internalType": "string",
          "name": "_bankAccountNo",
          "type": "string"
        },
        {
          "internalType": "uint256",
          "name": "_value",
          "type": "uint256"
        }
      ],
      "name": "transferFiatMoneyBackToBank",
      "outputs": [],
      "stateMutability": "nonpayable",
      "type": "function"
    },
    {
      "inputs": [
        {
          "internalType": "address payable",
          "name": "_to",
          "type": "address"
        },
        {
          "internalType": "uint256",
          "name": "_value",
          "type": "uint256"
        }
      ],
      "name": "transferEther",
      "outputs": [],
      "stateMutability": "payable",
      "type": "function",
      "payable": true
    },
    {
      "inputs": [
        {
          "internalType": "address",
          "name": "_address",
          "type": "address"
        },
        {
          "internalType": "uint256",
          "name": "_loanId",
          "type": "uint256"
        },
        {
          "internalType": "uint256",
          "name": "_collateralAmount",
          "type": "uint256"
        }
      ],
      "name": "storeCollateralToVault",
      "outputs": [],
      "stateMutability": "nonpayable",
      "type": "function"
    },
    {
      "inputs": [
        {
          "internalType": "address",
          "name": "_address",
          "type": "address"
        },
        {
          "internalType": "uint256",
          "name": "_loanId",
          "type": "uint256"
        },
        {
          "internalType": "uint256",
          "name": "_collateralAmount",
          "type": "uint256"
        }
      ],
      "name": "releaseCollateralFromVault",
      "outputs": [],
      "stateMutability": "nonpayable",
      "type": "function"
    },
    {
      "inputs": [
        {
          "internalType": "uint256",
          "name": "_loanId",
          "type": "uint256"
        }
      ],
      "name": "getCollateralValueFromVault",
      "outputs": [
        {
          "internalType": "uint256",
          "name": "",
          "type": "uint256"
        }
      ],
      "stateMutability": "view",
      "type": "function",
      "constant": true
    },
    {
      "inputs": [
        {
          "internalType": "uint256",
          "name": "_loanId",
          "type": "uint256"
        },
        {
          "internalType": "uint256",
          "name": "_collateralAmount",
          "type": "uint256"
        }
      ],
      "name": "deductCollateralValueFromVault",
      "outputs": [],
      "stateMutability": "nonpayable",
      "type": "function"
    },
    {
      "inputs": [
        {
          "internalType": "uint8",
          "name": "a",
          "type": "uint8"
        },
        {
          "internalType": "uint8",
          "name": "b",
          "type": "uint8"
        }
      ],
      "name": "add2",
      "outputs": [
        {
          "internalType": "uint8",
          "name": "",
          "type": "uint8"
        }
      ],
      "stateMutability": "view",
      "type": "function",
      "constant": true
    }
  ],
  "bytecode": "0x608060405234801561001057600080fd5b506040516119d43803806119d483398101604081905261002f9161006d565b8061004281640100000000610049810204565b505061009b565b7faf3ccdab63767d83181d2ac8c40c256cce5f7d52dd79fa93eadafa27d81b942e55565b60006020828403121561007e578081fd5b8151600160a060020a0381168114610094578182fd5b9392505050565b61192a806100aa6000396000f3fe608060405260043610610140576000357c0100000000000000000000000000000000000000000000000000000000900480638d81d235116100bd578063b279f76f11610081578063b279f76f14610386578063bb3c4c23146103a6578063be921c9d146103c6578063f92eecc1146103e6578063f9e0e6ca146104065761017f565b80638d81d235146102e4578063920eaac614610304578063990b1649146103245780639be8a2a714610339578063a7cc787a146103595761017f565b80631f7e98e4116101045780631f7e98e41461023f57806338aed2f71461025f578063522f68151461027f57806354d492c114610292578063875a47c3146102c45761017f565b806304433bbc1461018157806305b1137b146101be5780630cfe9ad5146101d157806310455b79146101ff5780631b2daa841461021f5761017f565b3661017f57604080513381523460208201527f1e57e3bb474320be3d2c77138f75b7c3941292d647f5f9634e33a8e94e0e069b910160405180910390a1005b005b34801561018d57600080fd5b506101a161019c3660046115c7565b610426565b604051600160a060020a0390911681526020015b60405180910390f35b61017f6101cc3660046114bf565b610481565b3480156101dd57600080fd5b506101f16101ec3660046114a3565b6105cd565b6040519081526020016101b5565b34801561020b57600080fd5b5061017f61021a366004611593565b610634565b34801561022b57600080fd5b506101f161023a3660046114a3565b610714565b34801561024b57600080fd5b5061017f61025a366004611581565b61077b565b34801561026b57600080fd5b5061017f61027a366004611602565b6108cd565b61017f61028d3660046114bf565b610963565b34801561029e57600080fd5b506102b26102ad36600461168b565b610aa8565b60405160ff90911681526020016101b5565b3480156102d057600080fd5b5061017f6102df36600461152a565b610b04565b3480156102f057600080fd5b5061017f6102ff366004611581565b610c37565b34801561031057600080fd5b5061017f61031f36600461166a565b610cf4565b34801561033057600080fd5b506101a1610d64565b34801561034557600080fd5b506101f1610354366004611652565b610da9565b34801561036557600080fd5b506103796103743660046114a3565b610e07565b6040516101b59190611737565b34801561039257600080fd5b5061017f6103a1366004611593565b610ee0565b3480156103b257600080fd5b5061017f6103c1366004611581565b610fc0565b3480156103d257600080fd5b506101a16103e13660046115c7565b611075565b3480156103f257600080fd5b5061017f6104013660046114a3565b6110b6565b34801561041257600080fd5b5061017f6104213660046114ea565b6111d0565b3360009081526001602052604081208054610440906117ed565b1590506104775760008260405161045791906116e9565b90815260405190819003602001902054600160a060020a0316905061047c565b600080fd5b919050565b6104ad6040518060400160405280601981526020016000805160206118d5833981519152815250610426565b600160a060020a031633600160a060020a0316146104ca57600080fd5b6000600160a060020a0383166108fc6104e4846001611787565b6040518115909202916000818181858888f193505050509050806105785760405160e560020a62461bcd02815260206004820152602360248201527f7472616e7366657245746865723a204661696c656420746f2073656e6420457460448201527f686572000000000000000000000000000000000000000000000000000000000060648201526084015b60405180910390fd5b7f2bd8874aee0f667380057c67e3a812157e4b7649b244d6fcbc9094a9a1f7ee1d836105a5846001611787565b60408051600160a060020a0390931683526020830191909152015b60405180910390a1505050565b60006105fb6040518060400160405280601981526020016000805160206118d5833981519152815250610426565b600160a060020a031633600160a060020a03161461061857600080fd5b50600160a060020a031660009081526002602052604090205490565b6106606040518060400160405280601981526020016000805160206118d5833981519152815250610426565b600160a060020a031633600160a060020a03161461067d57600080fd5b600160a060020a038316600090815260026020526040812080548392906106a59084906117a6565b9091555050600082815260046020526040812080548392906106c890849061174a565b909155505060408051600160a060020a0385168152602081018490529081018290527f8f63f616e2afaa47e9646ebf47e270fdb9b8b820a2f2a5b1627f4230f4beef8a906060016105c0565b60006107426040518060400160405280601981526020016000805160206118d5833981519152815250610426565b600160a060020a031633600160a060020a03161461075f57600080fd5b50600160a060020a031660009081526003602052604090205490565b6107a76040518060400160405280601981526020016000805160206118d5833981519152815250610426565b600160a060020a031633600160a060020a0316146107c457600080fd5b600160a060020a038216600090815260036020526040902054811161085857600160a060020a0382166000908152600360205260408120805483929061080b9084906117a6565b909155505060408051600160a060020a0384168152602081018390527fddb9af1698f4a38b4995d67906e95053737f40a4dc0a9519ad890007565f3d8b91015b60405180910390a16108c9565b60405160e560020a62461bcd02815260206004820152603960248201527f7769746864726177466961744d6f6e65793a204e6f7420656e6f75676820666960448201527f61742062616c616e636520696e20746865206164647265737300000000000000606482015260840161056f565b5050565b6000805160206118b583398151915254600160a060020a031633600160a060020a03161415610477578060008360405161090791906116e9565b9081526040805160209281900383019020805473ffffffffffffffffffffffffffffffffffffffff1916600160a060020a0394851617905591831660009081526001825291909120835161095d92850190611372565b506108c9565b61098f6040518060400160405280601981526020016000805160206118d5833981519152815250610426565b600160a060020a031633600160a060020a0316146109ac57600080fd5b600160a060020a0382166000908152600260205260409020548111610a3757600160a060020a038216600090815260026020526040812080548392906109f39084906117a6565b909155505060408051600160a060020a0384168152602081018390527f06097061aeda806b5e9cb4133d9899f332ff0913956567fc0f7ea15e3d19947c910161084b565b60405160e560020a62461bcd02815260206004820152603660248201527f776974686472617745746865723a204e6f7420656e6f7567682045746865722060448201527f62616c616e636520696e20746865206164647265737300000000000000000000606482015260840161056f565b6000610ad66040518060400160405280601981526020016000805160206118d5833981519152815250610426565b600160a060020a031633600160a060020a031614610af357600080fd5b610afd8284611762565b9392505050565b610b306040518060400160405280601981526020016000805160206118d5833981519152815250610426565b600160a060020a031633600160a060020a031614610b4d57600080fd5b600160a060020a038316600090815260036020526040902054811115610c045760405160e560020a62461bcd02815260206004820152604960248201527f7472616e73666572466961744d6f6e65794261636b546f42616e6b3a204e6f7460448201527f20656e6f75676820666961742062616c616e636520696e20726571756573746560648201527f7220616464726573730000000000000000000000000000000000000000000000608482015260a40161056f565b7ffa341ba9e9867c41f99413aa604717de7eecbd94380d7260d78a6b040d7f48678383836040516105c093929190611705565b610c636040518060400160405280601981526020016000805160206118d5833981519152815250610426565b600160a060020a031633600160a060020a031614610c8057600080fd5b600160a060020a03821660009081526002602052604081208054839290610ca890849061174a565b909155505060408051600160a060020a0384168152602081018390527f1f5217c98c4d3671084037e761604fbbd42589c41eb45bfab0157d77986acee091015b60405180910390a15050565b610d206040518060400160405280601981526020016000805160206118d5833981519152815250610426565b600160a060020a031633600160a060020a031614610d3d57600080fd5b60008281526004602052604081208054839290610d5b9084906117a6565b90915550505050565b6000610d7c6000805160206118b58339815191525490565b600160a060020a031633600160a060020a0316141561047757506000805160206118b58339815191525490565b6000610dd76040518060400160405280601981526020016000805160206118d5833981519152815250610426565b600160a060020a031633600160a060020a031614610df457600080fd5b5060009081526004602052604090205490565b6060610e1f6000805160206118b58339815191525490565b600160a060020a031633600160a060020a0316141561047757600160a060020a03821660009081526001602052604090208054610e5b906117ed565b80601f0160208091040260200160405190810160405280929190818152602001828054610e87906117ed565b8015610ed45780601f10610ea957610100808354040283529160200191610ed4565b820191906000526020600020905b815481529060010190602001808311610eb757829003601f168201915b5050505050905061047c565b610f0c6040518060400160405280601981526020016000805160206118d5833981519152815250610426565b600160a060020a031633600160a060020a031614610f2957600080fd5b60008281526004602052604081208054839290610f479084906117a6565b9091555050600160a060020a03831660009081526002602052604081208054839290610f7490849061174a565b909155505060408051600160a060020a0385168152602081018490529081018290527fd229488d32e80c1c999ec8566823f6e2fabdac74b39ea72cf5542075188392c4906060016105c0565b610fec6040518060400160405280601981526020016000805160206118d5833981519152815250610426565b600160a060020a031633600160a060020a03161461100957600080fd5b600160a060020a0382166000908152600360205260408120805483929061103190849061174a565b909155505060408051600160a060020a0384168152602081018390527f7bd6c3e67beeeb48468105ca1a46d301b4c3d04bd211d2cc298e7bfd1b26223e9101610ce8565b600061108d6000805160206118b58339815191525490565b600160a060020a031633600160a060020a031614156104775760008260405161045791906116e9565b6000805160206118b583398151915254600160a060020a031633600160a060020a0316141561047757600160a060020a03811661115e5760405160e560020a62461bcd02815260206004820152603260248201527f5472616e73706172656e7455706772616461626c6550726f78793a206e65772060448201527f61646d696e206973206164647265737320300000000000000000000000000000606482015260840161056f565b7f1fcd9f8f9240447000d2e6d16dc98e443b2ff6561f5fc7c704e3f765f0ae37e86111956000805160206118b58339815191525490565b60408051600160a060020a03928316815291841660208301520160405180910390a16111cd816000805160206118b583398151915255565b50565b6111fc6040518060400160405280601981526020016000805160206118d5833981519152815250610426565b600160a060020a031633600160a060020a03161461121957600080fd5b600160a060020a0383166000908152600360205260409020548111156112d05760405160e560020a62461bcd02815260206004820152604e60248201527f7472616e73666572466961744d6f6e6579546f416e6f7468657241646472657360448201527f733a204e6f7420656e6f75676820666961742062616c616e636520696e20746860648201527f652066726f6d2061646472657373000000000000000000000000000000000000608482015260a40161056f565b600160a060020a038316600090815260036020526040812080548392906112f89084906117a6565b9091555050600160a060020a0382166000908152600360205260408120805483929061132590849061174a565b909155505060408051600160a060020a038086168252841660208201529081018290527f4aca5d6189468c3d6b1fc7d98eefcfcec86a5ba3d337cf2e50f86cacf0041498906060016105c0565b82805461137e906117ed565b90600052602060002090601f0160209004810192826113a057600085556113e6565b82601f106113b957805160ff19168380011785556113e6565b828001600101855582156113e6579182015b828111156113e65782518255916020019190600101906113cb565b506113f29291506113f6565b5090565b5b808211156113f257600081556001016113f7565b600082601f83011261141b578081fd5b813567ffffffffffffffff8082111561143657611436611870565b604051601f8301601f19908116603f0116810190828211818310171561145e5761145e611870565b81604052838152866020858801011115611476578485fd5b8360208701602083013792830160200193909352509392505050565b803560ff8116811461047c57600080fd5b6000602082840312156114b4578081fd5b8135610afd8161189f565b600080604083850312156114d1578081fd5b82356114dc8161189f565b946020939093013593505050565b6000806000606084860312156114fe578081fd5b83356115098161189f565b925060208401356115198161189f565b929592945050506040919091013590565b60008060006060848603121561153e578283fd5b83356115498161189f565b9250602084013567ffffffffffffffff811115611564578283fd5b6115708682870161140b565b925050604084013590509250925092565b600080604083850312156114d1578182fd5b6000806000606084860312156115a7578283fd5b83356115b28161189f565b95602085013595506040909401359392505050565b6000602082840312156115d8578081fd5b813567ffffffffffffffff8111156115ee578182fd5b6115fa8482850161140b565b949350505050565b60008060408385031215611614578182fd5b823567ffffffffffffffff81111561162a578283fd5b6116368582860161140b565b92505060208301356116478161189f565b809150509250929050565b600060208284031215611663578081fd5b5035919050565b6000806040838503121561167c578182fd5b50508035926020909101359150565b6000806040838503121561169d578182fd5b6116a683611492565b91506116b460208401611492565b90509250929050565b600081518084526116d58160208601602086016117bd565b601f01601f19169290920160200192915050565b600082516116fb8184602087016117bd565b9190910192915050565b6000600160a060020a03851682526060602083015261172760608301856116bd565b9050826040830152949350505050565b600060208252610afd60208301846116bd565b6000821982111561175d5761175d611841565b500190565b600060ff821660ff84168060ff0382111561177f5761177f611841565b019392505050565b60008160001904831182151516156117a1576117a1611841565b500290565b6000828210156117b8576117b8611841565b500390565b60005b838110156117d85781810151838201526020016117c0565b838111156117e7576000848401525b50505050565b60028104600182168061180157607f821691505b6020821081141561183b577f4e487b7100000000000000000000000000000000000000000000000000000000600052602260045260246000fd5b50919050565b7f4e487b7100000000000000000000000000000000000000000000000000000000600052601160045260246000fd5b7f4e487b7100000000000000000000000000000000000000000000000000000000600052604160045260246000fd5b600160a060020a03811681146111cd57600080fdfeaf3ccdab63767d83181d2ac8c40c256cce5f7d52dd79fa93eadafa27d81b942e436f6c6c61746572616c697a65644c6f616e4761746577617900000000000000a26469706673582212207c3e72d8e8be871d793e42a66c323665cc369cab4406be6e294ce3aae7ad1f9464736f6c63430008030033",
  "immutableReferences": {},
  "source": "// SPDX-License-Identifier: GPL-3.0\n\npragma solidity ^0.8.0;\n\nimport \"@openzeppelin/contracts/utils/math/SafeMath.sol\";\nimport \"./AddressManagement.sol\";\n\n/**\n * @title Transactions\n * @dev Log the transaction records of the collateralized loan\n */\ncontract Transactions is AddressManagement {\n\n    constructor(address admin_) AddressManagement(admin_) { }\n    \n    /**\n     * @dev Trigger the event when Ether balance of an wallet address is initiated\n     */\n    event EtherBalanceInitiated(address _address);\n\n    /**\n     * @dev Trigger the event when Fiat balance of an wallet address is initiated\n     */\n    event FiatBalanceInitiated(address _address);\n\n    /**\n     * @dev Trigger the event when Ether is stored in the contract\n     */\n    event EtherStored(address _address, uint256 _value);\n\n    /**\n     * @dev Trigger the event when fiat money is stored in the contract\n     */\n    event FiatMoneyStored(address _address, uint256 _value);\n\n    /**\n     * @dev Trigger the event when Ether is withdrawn in the contract\n     */\n    event EtherWithdrawn(address _address, uint256 _value);\n\n    /**\n     * @dev Trigger the event when fiat money is withdrawn in the contract\n     */\n    event FiatMoneyWithdrawn(address _address, uint256 _value);\n\n    /**\n     * @dev Trigger the event when Ether is successfully transferred\n     */\n    event EtherReceived(address _from, uint256 _value);\n    \n    /**\n     * @dev Trigger the event when fiat money is successfully transferred from one to another address\n     */\n    event FiatMoneyTransferredBetweenAddress(address _from, address _to, uint256 _value);\n    \n    /**\n     * @dev Trigger the event when fiat money is successfully transferred from one to another address\n     */\n    event FiatMoneyTransferredToBank(address _address, string _bankAccountNo, uint256 _value);\n    \n    /**\n     * @dev Trigger the event when Ether is successfully transferred\n     */\n    event EtherTransferred(address _to, uint256 _value);\n\n    /**\n     * @dev Trigger the event when collateral is stored in vault\n     */\n    event EtherCollateralized(address _address, uint256 _loanId, uint256 _value);\n\n    /**\n     * @dev Trigger the event when collateral is released from vault\n     */\n    event EtherReleasedFromVault(address _address, uint256 _loanId, uint256 _value);\n    \n    /**\n     * @dev Balance of Ether (in gas) to be tracked in the smart contract\n     *      wallet address => etherBalance\n     */\n    mapping(address => uint256) etherBalances;\n    \n    /**\n     * @dev Balance of fiat money to be tracked in the smart contract\n     *      wallet address => fiatBalance\n     */\n    mapping(address => uint256) fiatBalances;\n\n    /**\n     * @dev Place for storing the collateral\n     *      loanId => collateralValue\n     */\n    mapping(uint256 => uint256) collateralVault;\n    \n    /**\n     * @dev Check if the account have enough balance to proceed the transaction in fiat money\n     * @param _value Value of fiat money to be transferred\n     */\n    modifier CheckEnoughFiatBalance(uint256 _value) {\n        require(fiatBalances[msg.sender] >= _value);\n        _;\n    }\n    \n    /**\n     * @dev Check if the account have enough balance to proceed the transaction in Ether\n     * @param _value Value of Ether to be transferred (in wei)\n     */\n    modifier CheckEnoughEtherBalance(uint256 _value) {\n        require(etherBalances[msg.sender] >= _value);\n        _;\n    }\n    \n    /**\n     * @dev Authenticate the address of the sender, see if it is coming from the Collateralized Loan Gateway\n     */\n    modifier AuthenticateSender {\n        require(msg.sender == super.getContractAddress(\"CollateralizedLoanGateway\"));\n        _;\n    }\n\n    /**\n     * @dev Fallback function\n     */\n    fallback() external payable {\n    }\n\n    /**\n     * @dev A receive function for wallet to send ether to this contract\n     */\n    receive() external payable {\n        emit EtherReceived(msg.sender, msg.value);\n    }\n    \n    /**\n     * @dev Store Ether to the account if it is created before\n     * @param _address Address of the account\n     * @param _value Value of Ether (in wei)\n     */\n    function storeEther(address _address, uint256 _value) external\n    AuthenticateSender\n    {\n        etherBalances[_address] += _value;\n        emit EtherStored(_address, _value);\n    }\n    \n    /**\n     * @dev Store fiat money to the account if it is created before\n     * @param _address Address of the account\n     * @param _value Value of fiat money to be stored (in USD)\n     */\n    function storeFiatMoney(address _address, uint256 _value) external\n    AuthenticateSender\n    {\n        fiatBalances[_address] += _value;\n        emit FiatMoneyStored(_address, _value);\n    }\n\n    /**\n     * @dev Withdraw Ether from the contract\n     * @param _address Address of the account\n     * @param _value Value of Ether to be stored (in wei)\n     */\n    function withdrawEther(address payable _address, uint256 _value) external payable\n    AuthenticateSender\n    {\n        if(etherBalances[_address] >= _value) {\n            etherBalances[_address] -= _value;\n            \n            // This line is necessary if this contract is used standalone\n            // but since gateway is used, the ether is locked there instead of here\n            // transferEther(_address, _value);\n\n            emit EtherWithdrawn(_address, _value);\n        } else {\n            revert(\"withdrawEther: Not enough Ether balance in the address\");\n        }\n    }\n\n    /**\n     * @dev Withdraw fiat money from the contract (when off-chain fund transfer request is detected)\n     * @param _address Address of the account\n     * @param _value Value of fiat money to be withdrawn (in USD)\n     */\n    function withdrawFiatMoney(address _address, uint256 _value) external\n    AuthenticateSender\n    {\n        if(fiatBalances[_address] >= _value) {\n            fiatBalances[_address] -= _value;\n            emit FiatMoneyWithdrawn(_address, _value);\n        } else {\n            revert(\"withdrawFiatMoney: Not enough fiat balance in the address\");\n        }\n    }\n\n    /**\n     * @dev Check the last account balance in Ether\n     * @param _address Address of the account\n     */\n    function checkEtherBalanceAmount(address _address) external view\n    AuthenticateSender returns(uint256)\n    {\n        return etherBalances[_address];\n    }\n\n    /**\n     * @dev Check the last account balance in fiat money\n     * @param _address Address of the account\n     */\n    function checkFiatBalanceAmount(address _address) external view\n    AuthenticateSender returns(uint256)\n    {\n        return fiatBalances[_address];\n    }\n\n    /**\n     * @dev Transfer fiat money\n     * @param _from Address of the sender of fiat money\n     * @param _to Address of the receiver of fiat money\n     * @param _value Value of fiat money to be transferred (in USD)\n     */\n    function transferFiatMoneyToAnotherAddress(address _from, address _to, uint256 _value) external\n    AuthenticateSender\n    {\n        if(fiatBalances[_from] < _value) {\n            revert(\"transferFiatMoneyToAnotherAddress: Not enough fiat balance in the from address\");\n        }\n        fiatBalances[_from] -= _value;\n        fiatBalances[_to] += _value;\n        emit FiatMoneyTransferredBetweenAddress(_from, _to, _value);\n    }\n\n    /**\n     * @dev Transfer fiat money back to bank\n     * @param _requester Address of the requester\n     * @param _bankAccountNo Account number of the requester\n     * @param _value Value of fiat money to be transferred (in USD)\n     */\n    function transferFiatMoneyBackToBank(address _requester, string memory _bankAccountNo, uint256 _value) external\n    AuthenticateSender\n    {\n        if(fiatBalances[_requester] < _value) {\n            revert(\"transferFiatMoneyBackToBank: Not enough fiat balance in requester address\");\n        }\n        emit FiatMoneyTransferredToBank(_requester, _bankAccountNo, _value);\n    }\n    \n    /**\n     * @dev Transfer Ether from contract to wallet address\n     * @param _to Address of the receiver of Ether\n     * @param _value Value of Ether to be transferred (in wei)\n     */\n    function transferEther(address payable _to, uint256 _value) public payable\n    AuthenticateSender\n    {\n        bool sent = _to.send(_value * 1 wei);\n        require(sent, \"transferEther: Failed to send Ether\");\n        emit EtherTransferred(_to, _value * 1 wei);\n    }\n\n    /**\n     * @dev Transfer Ether to collateral vault\n     * @param _address Address of the borrower\n     * @param _loanId Id of the loan\n     * @param _collateralAmount Amount of the collateral (in wei)\n     */\n    function storeCollateralToVault(address _address, uint256 _loanId, uint256 _collateralAmount) external\n    AuthenticateSender\n    {\n        etherBalances[_address] -= _collateralAmount;\n        collateralVault[_loanId] += _collateralAmount;\n        emit EtherCollateralized(_address, _loanId, _collateralAmount);\n    }\n\n    /**\n     * @dev Release Ether from collateral vault\n     * @param _address Address of the borrower\n     * @param _loanId Id of the loan\n     * @param _collateralAmount Amount of the collateral (in wei)\n     */\n    function releaseCollateralFromVault(address _address, uint256 _loanId, uint256 _collateralAmount) external\n    AuthenticateSender\n    {\n        collateralVault[_loanId] -= _collateralAmount;\n        etherBalances[_address] += _collateralAmount;\n        emit EtherReleasedFromVault(_address, _loanId, _collateralAmount);\n    }\n\n    /**\n     * @dev Get collateral value from collateral vault\n     * @param _loanId Id of the loan\n     */\n    function getCollateralValueFromVault(uint256 _loanId) external view\n    AuthenticateSender\n    returns (uint256)\n    {\n        return collateralVault[_loanId];\n    }\n\n    /**\n     * @dev Deduct collateral value from collateral vault\n     * @param _loanId Id of the loan\n     * @param _collateralAmount Collateral amount to be deducted\n     */\n    function deductCollateralValueFromVault(uint256 _loanId, uint256 _collateralAmount) external\n    AuthenticateSender\n    {\n        collateralVault[_loanId] -= _collateralAmount;\n    }\n\n    /* For testing */\n    function add2(uint8 a, uint8 b) external view\n    AuthenticateSender\n    returns (uint8) {\n        return a + b;\n    }\n}",
  "sourcePath": "/Users/AlsieSam/Desktop/DEX/truffle/contracts/Transactions.sol",
  "compiler": {
    "name": "solc",
    "version": "0.8.3+commit.8d00100c.Emscripten.clang"
  },
  "schemaVersion": "3.4.3",
  "updatedAt": "2022-03-22T10:58:29.799Z",
  "networkType": "ethereum",
  "devdoc": {
    "details": "Log the transaction records of the collateralized loan",
    "events": {
      "EtherBalanceInitiated(address)": {
        "details": "Trigger the event when Ether balance of an wallet address is initiated"
      },
      "EtherCollateralized(address,uint256,uint256)": {
        "details": "Trigger the event when collateral is stored in vault"
      },
      "EtherReceived(address,uint256)": {
        "details": "Trigger the event when Ether is successfully transferred"
      },
      "EtherReleasedFromVault(address,uint256,uint256)": {
        "details": "Trigger the event when collateral is released from vault"
      },
      "EtherStored(address,uint256)": {
        "details": "Trigger the event when Ether is stored in the contract"
      },
      "EtherTransferred(address,uint256)": {
        "details": "Trigger the event when Ether is successfully transferred"
      },
      "EtherWithdrawn(address,uint256)": {
        "details": "Trigger the event when Ether is withdrawn in the contract"
      },
      "FiatBalanceInitiated(address)": {
        "details": "Trigger the event when Fiat balance of an wallet address is initiated"
      },
      "FiatMoneyStored(address,uint256)": {
        "details": "Trigger the event when fiat money is stored in the contract"
      },
      "FiatMoneyTransferredBetweenAddress(address,address,uint256)": {
        "details": "Trigger the event when fiat money is successfully transferred from one to another address"
      },
      "FiatMoneyTransferredToBank(address,string,uint256)": {
        "details": "Trigger the event when fiat money is successfully transferred from one to another address"
      },
      "FiatMoneyWithdrawn(address,uint256)": {
        "details": "Trigger the event when fiat money is withdrawn in the contract"
      }
    },
    "kind": "dev",
    "methods": {
      "checkEtherBalanceAmount(address)": {
        "details": "Check the last account balance in Ether",
        "params": {
          "_address": "Address of the account"
        }
      },
      "checkFiatBalanceAmount(address)": {
        "details": "Check the last account balance in fiat money",
        "params": {
          "_address": "Address of the account"
        }
      },
      "deductCollateralValueFromVault(uint256,uint256)": {
        "details": "Deduct collateral value from collateral vault",
        "params": {
          "_collateralAmount": "Collateral amount to be deducted",
          "_loanId": "Id of the loan"
        }
      },
      "getCollateralValueFromVault(uint256)": {
        "details": "Get collateral value from collateral vault",
        "params": {
          "_loanId": "Id of the loan"
        }
      },
      "releaseCollateralFromVault(address,uint256,uint256)": {
        "details": "Release Ether from collateral vault",
        "params": {
          "_address": "Address of the borrower",
          "_collateralAmount": "Amount of the collateral (in wei)",
          "_loanId": "Id of the loan"
        }
      },
      "storeCollateralToVault(address,uint256,uint256)": {
        "details": "Transfer Ether to collateral vault",
        "params": {
          "_address": "Address of the borrower",
          "_collateralAmount": "Amount of the collateral (in wei)",
          "_loanId": "Id of the loan"
        }
      },
      "storeEther(address,uint256)": {
        "details": "Store Ether to the account if it is created before",
        "params": {
          "_address": "Address of the account",
          "_value": "Value of Ether (in wei)"
        }
      },
      "storeFiatMoney(address,uint256)": {
        "details": "Store fiat money to the account if it is created before",
        "params": {
          "_address": "Address of the account",
          "_value": "Value of fiat money to be stored (in USD)"
        }
      },
      "transferEther(address,uint256)": {
        "details": "Transfer Ether from contract to wallet address",
        "params": {
          "_to": "Address of the receiver of Ether",
          "_value": "Value of Ether to be transferred (in wei)"
        }
      },
      "transferFiatMoneyBackToBank(address,string,uint256)": {
        "details": "Transfer fiat money back to bank",
        "params": {
          "_bankAccountNo": "Account number of the requester",
          "_requester": "Address of the requester",
          "_value": "Value of fiat money to be transferred (in USD)"
        }
      },
      "transferFiatMoneyToAnotherAddress(address,address,uint256)": {
        "details": "Transfer fiat money",
        "params": {
          "_from": "Address of the sender of fiat money",
          "_to": "Address of the receiver of fiat money",
          "_value": "Value of fiat money to be transferred (in USD)"
        }
      },
      "withdrawEther(address,uint256)": {
        "details": "Withdraw Ether from the contract",
        "params": {
          "_address": "Address of the account",
          "_value": "Value of Ether to be stored (in wei)"
        }
      },
      "withdrawFiatMoney(address,uint256)": {
        "details": "Withdraw fiat money from the contract (when off-chain fund transfer request is detected)",
        "params": {
          "_address": "Address of the account",
          "_value": "Value of fiat money to be withdrawn (in USD)"
        }
      }
    },
    "stateVariables": {
      "collateralVault": {
        "details": "Place for storing the collateral      loanId => collateralValue"
      },
      "etherBalances": {
        "details": "Balance of Ether (in gas) to be tracked in the smart contract      wallet address => etherBalance"
      },
      "fiatBalances": {
        "details": "Balance of fiat money to be tracked in the smart contract      wallet address => fiatBalance"
      }
    },
    "title": "Transactions",
    "version": 1
  },
  "userdoc": {
    "kind": "user",
    "methods": {},
    "version": 1
  }
}